:020000040000FA
:020000001228C4
:08000800AB000A0EBE00030E5E
:10001000AC0083018A1137202C0E83003E0E8A002B
:100020002B0E08008501860187018801890183164E
:1000300009309F002F308500013086000030870096
:100040000030880001308900C730810083122B20E6
:1000500028238A1500288B100B160B118B168C1079
:100060008C148B1708000B128B128C100800332095
:100070008B1849200B197C148C1840202B20080069
:100080007C1508007F3092007F3092007C11910136
:100090000800000008007B185D207D186620FD1810
:1000A0006F207D198020FD1987207D1A9D20FD1A63
:1000B000CC203B1998207C100800FA03031D08008F
:1000C0000310FB0CBD250830FA000800FE03031DD9
:1000D000080044120813C41288137D100800FF039F
:1000E000031D080042111630F1000230F200A62173
:1000F000C5111A30F1000230F200A621FD100800EF
:10010000EB03031D08007F260F30EB000800BA0345
:10011000031D0800C2111730F1000230F200A621C1
:1001200045121B30F1000230F200A621FD1108003B
:10013000BC03031D0800C8230800BD03031D0800FD
:1001400041121F30F1000330F200A621C1128713C3
:1001500041130611C1138611C111061244108612F3
:1001600042100613C4131E30F1000230F200A62123
:1001700044131C30F1000230F200A621C5121D30DC
:10018000F1000230F200A62145101F30F1000230CC
:10019000F200A6217D120800BF03031D08005C25A4
:1001A0006B251326222670261430BF000800861403
:1001B0006626861066263908A0000430A100A01922
:1001C0008614A01D86106626A00DA10BDF28003026
:1001D000A0000730A100201B8614201F8610662671
:1001E000A00DA10BEB2886146626662666268610CF
:1001F00083168614831242207C197A29861CFC28D7
:10020000861800296B266626B1010830A100B10DC1
:1002100086183114861C31106626A10B0729861812
:100220000F296B266626B2010830A100B20D861890
:100230003214861C32106626A10B162986181E2938
:100240006B266626B3010830A100B30D861833145F
:10025000861C33106626A10B252986182D296B26AE
:100260006626B4010830A100B40D86183414861C2B
:1002700034106626A10B342986183C296B26662685
:10028000B5010830A100B50D86183514861C35104F
:100290006626A10B432986184B296B266626B601D4
:1002A0000830A100B60D86183614861C3610662656
:1002B000A10B522986185A296B266626B7010830E9
:1002C000A100B70D86183714861C37106626A10BBF
:1002D0006129861869296B266626B8010830A100B5
:1002E000B80D86183814861C38106626A10B7029A4
:1002F00086187829831686108312612608008614D2
:100300006626861066267208A0000430A100A01997
:100310008614A01D86106626A00DA10B87298614C1
:1003200066267108A0000530A100201A8614201E40
:1003300086106626A00DA10B9529861466268614C4
:1003400066266626662686106126080086146626BE
:10035000861066267208A0000430A100A019861439
:10036000A01D86106626A00DA10BAE298614662658
:100370007108A0000530A100201A8614201E8610E6
:100380006626A00DA10BBC2986106626861466265B
:1003900066266626861061260800C31B0800031027
:1003A000590CA0000310A00C0310A00CE030A00416
:1003B0002008A3007408A306031908002008F4000D
:1003C000A00A03193B24A00A0319A523A00A0319B4
:1003D000C823A00A03192224A00A03198525A00A0C
:1003E00003197A25A00A03197224A00A031980248C
:1003F000A00A0319B024A00A0319B624A00A0319FD
:100400004825A00A03199024A00A0319A024A00AD1
:1004100003190325A00A03192B25A00A0319152582
:10042000A00A03193D250310590CA0002008031948
:10043000E6220800C31B080003105D0CA000031097
:10044000A00C0310A00CE030A0042008A300750845
:10045000A306031908002008F500A00A0319E923E0
:10046000A00A0319DE25A00A0319BC24A00A031957
:10047000F224A00A03199025A00A03199A24A00ABD
:100480000319A824A00A0319CC25A00A03196B2577
:10049000A00A03192226A00A03195C25A00A031941
:1004A0001326A00A03190C25A00A03193425A00A53
:1004B0000319BD25A00A03192025A00A031908263F
:1004C00003105D0CA00020080319E82208000000BA
:1004D00008000000080000000800000008000000FC
:1004E00008000000080000000800000008000000EC
:1004F00008000000080000000800000008000000DC
:1005000008000000080000000800000008000000CB
:1005100008000000080000000800000008000000BB
:100520000800000008000000080000000800C31BCD
:10053000000003106A0CA0000310A00C0310A00C14
:10054000E030A0042008A3007608A30603190800E1
:100550002008F600A00A0319A125A00A03192823E0
:10056000A00A03197523A00A03195F26A00A03191C
:100570005F26A00A03195F26A00A03195F26A00AB6
:1005800003195F26A00A03195F26A00A03195F2634
:10059000A00A03195F26A00A03195F26A00A0319FF
:1005A0005F26A00A03195F26A00A03195F26A00A86
:1005B00003195F26A00A03195F2603106A0CA00026
:1005C00020080319EA2208000000080000000800C3
:1005D00000000800000008001030F1000230F200B6
:1005E000C318A621C3101130F1000230F2004319E4
:1005F000A62143111230F1000230F200C319A621E6
:10060000C3111330F1000230F200431AA621431245
:100610001430F1000230F200C31AA621C3121530C3
:10062000F1000230F200431BA621431344120813C9
:10063000C41288131930F1000330F200421AA621C7
:100640004212C21388114213081143100812080005
:100650007B18080056085F046004610462046304A8
:100660006404A500A51B0000A51BBD25A51B1F300C
:10067000A51BFB00A51B0830A51BFA00A51B080045
:100680003B24C317861744160817C41688177D1411
:100690005030FE001630F1000230F200421D7F2182
:1006A00042151A30F1000230F200C51D7F21C51538
:1006B000FD141E30FF00BD250130FB000830FA009C
:1006C000C5138910000072247D150F30EB006508FA
:1006D000A6006608A7006708A8006808A9000030FF
:1006E000AA00AD00AE00AF0008007B180800C313DD
:1006F0008613E92344160817C41688177D14503052
:10070000FE001730F1000230F200C21D7F21C21539
:100710001B30F1000230F200451E7F214516FD1509
:100720001E30BA00BD250730FB000830FA00C5179F
:10073000891400007D1180242608AA002708AD0036
:100740002808AE002908AF0008003B190800031470
:10075000BB0D3B1DBE2B40100710C0108710481565
:100760001A30F1000330F2007F21C8151B30F10070
:100770000330F2007F212830BC000800BB1CC52BD1
:1007800040140714401507150800C014871408000A
:100790003B1C08000310BB0CBB1CDF2B40140714D0
:1007A000C014871448111A30F1000330F200A6215A
:1007B000C8111B30F1000330F200A62108003B1CD9
:1007C000E62B40100710401107110800C0108710D9
:1007D0000800FD1E08001830F1000330F200C418B4
:1007E000A621C41044120813C41288131930F10052
:1007F0000230F2004419A62144111630F1000230F3
:10080000F2004219A62142111730F1000230F20025
:10081000C219A621C2111A30F1000230F200C51926
:10082000A621C5111B30F1000230F200451AA621A5
:1008300045121930F1000330F200421AA62142128B
:10084000FD120800A101A201441A2114C41A2214A5
:100850002108A20522184412221808132218C412D3
:1008600022188813221C4416221C0817221CC416A6
:10087000221C88170800FC180800C21087111730C6
:10088000F1000230F200C219A621C2111B30F100A2
:100890000230F200451AA62145121630F10002304E
:1008A000F2004219A62142111A30F1000230F20082
:1008B000C519A621C5111930F1000230F200441902
:1008C000A62144111830F1000330F200C418A6210B
:1008D000C410C4118812C5100712C2128810451125
:1008E000871208007014C7121530F1000330F200AF
:1008F000A62147171630F1000330F2007F210800CF
:100900007010C7161530F1000330F2007F21471731
:100910001630F1000330F200A621080000000800A4
:1009200041161F30F1000330F2007F217D160830A0
:10093000BD000800C11687177D160830BD000800ED
:10094000481A0800411706157D160830BD0008003A
:10095000481A0800C11786157D160830BD0008002A
:10096000C11506167D160830BD0008004414861611
:100970007D160830BD000800421406177D160830A9
:10098000BD0008000000080000000800000008008A
:10099000C3141030F1000230F2007F21080043152B
:1009A0001130F1000230F2007F210800C31512302F
:1009B000F1000230F2007F21080043161330F100ED
:1009C0000230F2007F210800C3161430F10002301B
:1009D000F2007F21080043171530F1000230F200C9
:1009E0007F2108004508A400241D8716241D4515F5
:1009F000241987122419451108000000080000007E
:100A00000800000008002A08A400F030A407031C16
:100A100008002408AA0008002D08A400F030A4074C
:100A2000031C08002408AD000800481A08002E081E
:100A3000A400F030A407031C08002408AE0008003E
:100A4000481A08002F08A400F030A407031C08006F
:100A50002408AF0008002A08A4001030A4070318D7
:100A600008002408AA0008002D08A4001030A407DC
:100A7000031808002408AD000800481A08002E08D2
:100A8000A4001030A407031808002408AE000800D2
:100A9000481E512D48121C30F1000330F200A621EF
:100AA000080048161C30F1000330F2007F210800D6
:100AB00000000800000008001630F1000230F200CB
:100AC0004208A400241D7F21241D42152419A621BB
:100AD0002419421108001730F1000230F2004208D8
:100AE000A400A41D7F21A41DC215A419A621A41928
:100AF000C21108004408A400A41D8816A41DC41532
:100B0000A4198812A419C41108004208A400A41C46
:100B10008715A41CC214A4188711A418C2100800B9
:100B20004508A400A41C0716A41CC514A418071289
:100B3000A418C5100800441608170800C416881722
:100B400008004208A400A41E8814A41EC216A41AF9
:100B50008810A41AC2120800000008000000080053
:100B600042161930F1000330F2007F210800C2174D
:100B7000881508004217081508001830F1000330E6
:100B8000F2004408A400A41C7F21A41CC414A418CF
:100B9000A621A418C41008001930F1000230F20098
:100BA0004408A400241D7F21241D44152419A621D6
:100BB0002419441108004314081608001830F100E5
:100BC0000330F200C41C7F21C41444160817C41655
:100BD00088171930F1000230F200441D7F214415BE
:100BE0001630F1000230F200421D7F2142151B3009
:100BF000F1000230F200451E7F214516FD161E3021
:100C0000BF00080000000800000008000000080005
:100C1000481A08002F08A4001030A4070318080081
:100C20002408AF0008001A30F1000230F200450835
:100C3000A400A41D7F21A41DC515A419A621A419D3
:100C4000C51108001B30F1000230F2004508A40075
:100C5000241E7F21241E4516241AA621241A45127B
:100C60000800C4171E30F1000230F2007F217D160B
:100C70000830BD00080044171C30F1000230F200BB
:100C80007F217D160830BD000800C5161D30F1001B
:100C90000230F2007F217D160830BD0008004514A7
:100CA0001F30F1000230F2007F217D160830BD00B8
:100CB0000800000008000000080000000800000014
:100CC00008000530A300A30B632E08005030A300DA
:100CD000A30B682E08001E30A300A30B6D2E080086
:100CE0001930F1000330F2004208A400241E7F21D5
:100CF000241E4216241AA621241A42120800163075
:100D0000F1000330F2004708A400241F7F21241FB4
:0C0D10004717241BA621241B47130800D2
:101000008A117C184B208A1561218A1105309F00B6
:101010008A151F1909281E08A0005909A0071E08D3
:10102000A00FD90020088A11031DCD210D309F008B
:101030008A151F1919281E08A0005D09A0071E089F
:10104000A00FDD0020088A11031D1A2215309F0011
:101050008A151F1929281E08A0005109A0071E087B
:10106000A00FD10020088A11031D67221D309F00A8
:101070008A151F1939281E08A0005A09A0071E0842
:10108000A00FDA0020088A11031D692225309F0075
:101090008A151F1949281E08A0005B09A0071E0811
:1010A000A00FDB0020088A11031D6B222D309F004A
:1010B0008A151F1959281E08A0005C09A0071E08E0
:1010C000A00FDC0020088A11031D6D220230B90038
:1010D000D7203108A0005209A0073108A00FD20084
:1010E0002008031D73223208A0005309A00732080C
:1010F000A00FD3002008031D75223308A000540957
:10110000A0073308A00FD4002008031D772234085D
:10111000A0005509A0073408A00FD5002008031D22
:1011200079223508A0005609A0073508A00FD6007F
:101130002008031D7B223608A0005709A0073608A7
:10114000A00FD7002008031D7D223708A0005809F2
:10115000A0073708A00FD8002008031D7F223808F9
:10116000A0005009A0073808A00FD0002008031DD8
:101170006F220330B900D7203108A0005E09A00714
:101180003108A00FDE002008031D71223208A000E4
:101190005F09A0073208A00FDF002008031D81228D
:1011A0003308A0006009A0073308A00FE000200862
:1011B000031D83223408A0006109A0073408A00F92
:1011C000E1002008031D85223508A0006209A00760
:1011D0003508A00FE2002008031D87223608A00072
:1011E0006309A0073608A00FE3002008031D892229
:1011F0003708A0006409A0073708A00FE400200802
:10120000031D8B223808A0006509A0073808A00F2D
:10121000E5002008031D8D220430B900D7203108D5
:10122000A0006609A0073108A00FE6002008031DF2
:101230008F223208A0006709A0073208A00FE7003C
:101240002008031D91223308A0006809A007330875
:10125000A00FE8002008031D93223408A0006909AC
:10126000A0073408A00FE9002008031D95223508C7
:10127000A0006A09A0073508A00FEA002008031D96
:1012800097223608A0004909A0073608A00FC90018
:101290002008031DE4223708A0004909A0073708E9
:1012A000A00FC9002008031DE4223808A000490946
:1012B000A0073808A00FC9002008031DE4228A15E2
:1012C00000286508F039A000A0092A08F039A00715
:1012D0000308A2002219D02122197229221CA6215A
:1012E0002218BB216608F039A000A0092D08F039AA
:1012F000A0070308A20022190F2222198329221C09
:10130000E5212218FA216708F039A000A0092E086B
:10131000F039A0070308A20022194E2222199429AD
:10132000221C2422221839226808F039A000A009C2
:101330002F08F039A0070308A20022198D222219D4
:101340000800221C6322221878220800C019B02944
:101350001D30F1000330F2008A117F218A15C0157B
:10136000C01F08000C30F1000230F2008A11A621E3
:101370008A15C0130800C01DC5291D30F1000330B7
:10138000F2008A11A6218A15C011C01B08000C307A
:10139000F1000230F2008A117F218A15C01708007F
:1013A000C01DDA291D30F1000330F2008A11A62198
:1013B0008A15C011C01F08000C30F1000230F20085
:1013C0008A11A6218A15C0130800401AEF29183087
:1013D000F1000230F2008A117F218A154016411C6B
:1013E00008000D30F1000230F2008A11A6218A15A2
:1013F00041100800401E042A1830F1000230F200AB
:101400008A11A6218A154012411808000D30F100FA
:101410000230F2008A117F218A1541140800401E13
:10142000192A1830F1000230F2008A11A6218A151B
:101430004012411C08000D30F1000230F2008A1108
:10144000A6218A1541100800C01A2E2A0A30F10080
:101450000230F2008A117F218A15C016C11C0800D3
:101460000E30F1000230F2008A11A6218A15C11057
:101470000800C01E432A0A30F1000230F2008A112F
:10148000A6218A15C012C11808000E30F1000230E2
:10149000F2008A117F218A15C1140800C01E582A43
:1014A0000A30F1000230F2008A11A6218A15C0121A
:1014B000C11C08000E30F1000230F2008A11A62192
:1014C0008A15C1100800401B6D2A0B30F100023054
:1014D000F2008A117F218A154017411D08000F3044
:1014E000F1000230F2008A11A6218A15411108008C
:1014F000401F822A0B30F1000230F2008A11A6212F
:101500008A154013411908000F30F1000230F20033
:101510008A117F218A1541150800401F972A0B3038
:10152000F1000230F2008A11A6218A154013411DF4
:1015300008000F30F1000230F2008A11A6218A154E
:04154000411108004D
:00000001FF
