:020000040000FA
:020000001228C4
:08000800A6000A0EA800030E79
:10001000A70083018A113F20270E8300280E8A0043
:10002000260E080085018601870188018901831653
:1000300003308E0049309F002F308500013086004C
:10004000003087000030880001308900C73081000F
:100050008312463092002E208A1500288B100B1632
:100060000B118B168C1083168C1483120B178B17A5
:1000700008000B128B1283168C1083120800392093
:100080008B1851200B1959148C1848202E20080069
:1000900059150800591191010800591D4D288C2649
:1000A000080000000800581865206E186E20DA1845
:1000B00091205A19A220DA19A9205A1ABF20DA1A57
:1000C000EE206719BA2059100800D703031D080055
:1000D0000310D80CE6250330D7000800DB03031D0E
:1000E0000800EE0C031CEE130318EE17A101A20189
:1000F0002D1A2114AD1A22142108A20522182D123E
:10010000221808132218AD1222188813221C2D164B
:10011000221C0817221CAD16221C88170830DB0091
:100120000800DC03031D08002B111630D20002303A
:10013000D300D921AE111A30D2000230D300D92118
:10014000DA100800DD03031D0800A5260F30DD00CE
:100150000800E603031D0800AB111730D20002307F
:10016000D300D9212E121B30D2000230D300D92166
:10017000DA110800E803031D0800F5230800E9036D
:10018000031D08002A121F30D2000330D300D921EA
:10019000AA1287132A130611AA138611AA1106128E
:1001A0002D1086122B100613AD131E30D200023014
:1001B000D300D9212D131C30D2000230D300D92115
:1001C000AE121D30D2000230D300D9212E101F30C4
:1001D000D2000230D300D9215A120800EA03031DCD
:1001E0000800852594253926482696261430EA00ED
:1001F000080086148C2686108C267808A00004300F
:10020000A100A0198614A01D86108C26A00DA10B9C
:1002100001290030A0000730A100201B8614201FF8
:1002200086108C26A00DA10B0D2986148C268C26F9
:100230008C26861091268316861483125919AE29AE
:10024000861C1E295919AE298618222991268C262A
:10025000F0010830A100F00D86187014861C701093
:100260008C26A10B2B295919AE29861833299126E2
:100270008C26F1010830A100F10D86187114861C3E
:1002800071108C26A10B3C295919AE2986184429D6
:1002900091268C26F2010830A100F20D8618721406
:1002A000861C72108C26A10B4D295919AE2986186F
:1002B000552991268C26F3010830A100F30D8618EC
:1002C0007314861C73108C26A10B5E295919AE2954
:1002D0008618662991268C26F4010830A100F40DB9
:1002E00086187414861C74108C26A10B6F2959195A
:1002F000AE298618772991268C26F5010830A100B1
:10030000F50D86187514861C75108C26A10B802996
:100310005919AE298618882991268C26F6010830AD
:10032000A100F60D86187614861C76108C26A10B7B
:1003300091295919AE298618992991268C26F701F9
:100340000830A100F70D86187714861C77108C26CC
:10035000A10BA2295919AE298618AA29831686103D
:100360008312080086148C2686108C265308A00061
:100370000430A100A0198614A01D86108C26A00DA3
:10038000A10BBA2986148C265208A0000530A100C2
:10039000201A8614201E86108C26A00DA10BC829B9
:1003A00086148C2686148C268C268C2686108C2609
:1003B000080086148C2686108C265308A000043072
:1003C000A100A0198614A01D86108C26A00DA10BDB
:1003D000E12986148C265208A0000530A100201ABD
:1003E0008614201E86108C26A00DA10BEF298610E6
:1003F0008C2686148C268C268C2686108C2608004B
:10040000AC1B080003103F0CA0000310A00C03104D
:10041000A00CE030A0042008A3005408A306031990
:1004200008002008D400A00A03196424A00A0319B4
:10043000D223A00A0319F523A00A03194C24A00A09
:100440000319AE25A00A0319A325A00A03199B24AA
:10045000A00A0319A924A00A0319D924A00A031980
:10046000DF24A00A03197125A00A0319B924A00AE0
:100470000319C924A00A03192C25A00A031954251D
:10048000A00A03193E25A00A0319662503103F0C94
:10049000A0002008031919230800AC1B0800031052
:1004A000430CA0000310A00C0310A00CE030A0042B
:1004B0002008A3005508A306031908002008D5004A
:1004C000A00A03191624A00A03190726A00A031973
:1004D000E524A00A03191B25A00A0319B925A00ABF
:1004E0000319C324A00A0319D124A00A0319F5256E
:1004F000A00A03199425A00A03194826A00A031983
:100500008525A00A03193926A00A03193525A00A52
:1005100003195D25A00A0319E625A00A0319492538
:10052000A00A03192E260310430CA000200803196B
:100530001B2308000000080000000800000008005D
:10054000000008000000080000000800000008008B
:10055000000008000000080000000800000008007B
:10056000000008000000080000000800000008006B
:10057000000008000000080000000800000008005B
:10058000000008000000080000000800000008004B
:1005900000000800AC1B00000310500CA00003106A
:1005A000A00C0310A00CE030A0042008A300560803
:1005B000A306031908002008D600A00A0319CA25BB
:1005C000A00A03195B23A00A0319A423A00A031994
:1005D0008526A00A03198526A00A03198526A00AE4
:1005E00003198526A00A03198526A00A0319852662
:1005F000A00A03198526A00A03198526A00A031953
:100600008526A00A03198526A00A03198526A00AB3
:1006100003198526A00A03198526A00A0319852631
:100620000310500CA000200803191D23080000002F
:10063000080000000800000008000000080010305A
:10064000D2000230D300AC18D921AC101130D20046
:100650000230D3002C19D9212C111230D2000230D3
:10066000D300AC19D921AC111330D2000230D30021
:100670002C1AD9212C121430D2000230D300AC1A1B
:10068000D921AC121530D2000230D3002C1BD92155
:100690002C132D120813AD1288131930D200033019
:1006A000D3002B1AD9212B12AB1388112B1308114D
:1006B0002C1008120800581808003C08450446048D
:1006C0004704480449044A04A500A51B0000A51BD3
:1006D000E625A51B1F30A51BD800A51B0330A51BB5
:1006E000D7006424AC1786174C241F30EE00083066
:1006F000DB001630D2000230D3002B1DB2212B15A7
:100700001A30D2000230D300AE1DB221AE15DA1479
:100710001E30DC00E6250130D8000830D700AE13CB
:10072000891000009B245A150F30DD004B08DE00B5
:100730004C08DF004D08E0004E08E1000030E20008
:10074000E300E400E500080058180800AC13861325
:1007500016244C240730EE000830DB001730D2009E
:100760000230D300AB1DB221AB151B30D2000230DA
:10077000D3002E1EB2212E16DA151E30E600E62515
:100780000730D8000830D700AE17891400005A117E
:10079000A9245E08E2005F08E3006008E400610845
:1007A000E5000800671908000314E70D671DEB2B2F
:1007B00029100710A910871031151A30D200033004
:1007C000D300B221B1151B30D2000330D300B221C7
:1007D0001430E8000800E71CF22B2914071429152F
:1007E00007150800A91487140800671C08000310E7
:1007F000E70CE71C0C2C29140714A91487143111D9
:100800001A30D2000330D300D921B1111B30D200ED
:100810000330D300D9210800671C132C29100710BE
:10082000291107110800A91087100800DA1E080016
:100830001830D2000330D300AD18D921AD104C24AC
:100840001930D2000230D3002D19D9212D111630C4
:10085000D2000230D3002B19D9212B111730D2002E
:100860000230D300AB19D921AB111A30D2000230BB
:10087000D300AE19D921AE111B30D2000230D30003
:100880002E1AD9212E121930D2000330D3002B1A80
:10089000D9212B12DA1208006E182D126E180813C7
:1008A0006E18AD126E1888136E1C2D166E1C08176C
:1008B0006E1CAD166E1C88176E1800306E1CFF3053
:1008C000EE000830DB000800D9180800AB108711D3
:1008D0001730D2000230D300AB19D921AB111B3035
:1008E000D2000230D3002E1AD9212E121630D20097
:1008F0000230D3002B19D9212B111A30D20002302B
:10090000D300AE19D921AE111930D2000230D30074
:100910002D19D9212D111830D2000330D300AD1874
:10092000D921AD10AD118812AE100712AB1288108C
:100930002E11871208005114B0121530D200033066
:10094000D300D92130171630D2000330D300B221A2
:1009500008005110B0161530D2000330D300B22178
:1009600030171630D2000330D300D9210800000020
:1009700008002A161F30D2000330D300B2215A16C5
:100980000830E9000800AA1687175A160830E9004F
:100990000800311A08002A1706155A160830E9000F
:1009A0000800311A0800AA1786155A160830E900FF
:1009B0000800AA1506165A160830E90008002D147A
:1009C00086165A160830E90008002B1406175A1626
:1009D0000830E900080000000800000008000000DE
:1009E0000800AC141030D2000230D300B22108004D
:1009F0002C151130D2000230D300B2210800AC1502
:100A00001230D2000230D300B22108002C1613306D
:100A1000D2000230D300B2210800AC161430D2004C
:100A20000230D300B22108002C171530D20002305A
:100A3000D300B22108002E08A400241D8716241D0F
:100A40002E152419871224192E1108000000080001
:100A500000000800000008006208A400F030A407AD
:100A6000031C08002408E20008006308A400F0301A
:100A7000A407031C08002408E3000800311A08003A
:100A80006408A400F030A407031C08002408E40054
:100A90000800311A08006508A400F030A407031C00
:100AA00008002408E50008006208A4001030A4072C
:100AB000031808002408E20008006308A4001030AE
:100AC000A407031808002408E3000800311A0800EE
:100AD0006408A4001030A407031808002408E400E8
:100AE0000800311E7A2D31121C30D2000330D300A1
:100AF000D921080031161C30D2000330D300B221B6
:100B0000080000000800000008001630D200023083
:100B1000D3002B08A400241DB221241D2B15241959
:100B2000D92124192B1108001730D2000230D3002C
:100B30002B08A400A41DB221A41DAB15A419D92112
:100B4000A419AB1108002D08A400A41D8816A41D2B
:100B5000AD15A4198812A419AD1108002B08A40022
:100B6000A41C8715A41CAB14A4188711A418AB10DF
:100B700008002E08A400A41C0716A41CAE14A41878
:100B80000712A418AE1008002D1608170800AD169D
:100B9000881708002B08A400A41E8814A41EAB16F6
:100BA000A41A8810A41AAB12080000000800000064
:100BB00008002B161930D2000330D300B2210800F0
:100BC000AB17881508002B17081508001830D2003D
:100BD0000330D3002D08A400A41CB221A41CAD1422
:100BE000A418D921A418AD1008001930D200023081
:100BF000D3002D08A400241DB221241D2D15241975
:100C0000D92124192D1108002C14081608001830B9
:100C1000D2000330D300AD1CB221AD144C241930E6
:100C2000D2000230D3002D1DB2212D151630D20076
:100C30000230D3002B1DB2212B151B30D200023005
:100C4000D3002E1EB2212E16DA161E30EA0008003E
:100C5000000008000000080000000800311A080029
:100C60006508A4001030A407031808002408E50054
:100C700008001A30D2000230D3002E08A400A41DB0
:100C8000B221A41DAE15A419D921A419AE110800D2
:100C90001B30D2000230D3002E08A400241EB22143
:100CA000241E2E16241AD921241A2E120800AD173C
:100CB0001E30D2000230D300B2215A160830E900AB
:100CC00008002D171C30D2000230D300B2215A1672
:100CD0000830E9000800AE161D30D2000230D30003
:100CE000B2215A160830E90008002E141F30D20035
:100CF0000230D300B2215A160830E9000800000083
:100D0000080000000800000008000000080005308E
:100D1000A300A30B892E08005030A300A30B8E2E36
:100D200008001E30A300A30B932E08001930D20038
:100D30000330D3002B08A400241EB221241E2B163E
:100D4000241AD921241A2B1208001630D20003309D
:100D5000D3003008A400241FB221241F3017241B05
:080D6000D921241B3013080007
:101000008A114A204D204A204D204A204D204A2056
:101010004D20591853208A158A110030F6008A1580
:10102000AF228A117608A0003F09A0071E08A00F72
:10103000BF0020088A11031D00220130F6008A1526
:10104000AF228A117608A0004309A0071E08A00F4E
:10105000C30020088A11031D4D220230F6008A15B4
:10106000AF228A117608A0003709A0071E08A00F3A
:10107000B70020088A11031D9A220330F6008A1552
:10108000AF228A117608A0004009A0071E08A00F11
:10109000C00020088A11031D9C220430F6008A1526
:1010A000AF228A117608A0004109A0071E08A00FF0
:1010B000C10020088A11031D9E220530F6008A1502
:1010C000AF228A117608A0004209A0071E08A00FCF
:1010D000C20020088A11031DA0224A200230F80015
:1010E000F9204D207008A0003809A0077008A00F53
:1010F000B8002008031DA6227108A0003909A00726
:101100007108A00FB9002008031DA8227208A000D2
:101110003A09A0077208A00FBA002008031DAA22EE
:101120007308A0003B09A0077308A00FBB002008AC
:10113000031DAC227408A0003C09A0077408A00F8E
:10114000BC002008031DAE227508A0003D09A007C1
:101150007508A00FBD002008031DB0227608A0006E
:101160003E09A0077608A00FBE002008031DB2228A
:101170007708A0003609A0077708A00FB60020085E
:10118000031DA2224A200330F800F9204D207008E8
:10119000A0004409A0077008A00FC4002008031D88
:1011A000A4227108A0004509A0077108A00FC5007E
:1011B0002008031DB4227208A0004609A007720887
:1011C000A00FC6002008031DB6227308A00047091F
:1011D000A0077308A00FC7002008031DB8227408D9
:1011E000A0004809A0077408A00FC8002008031D2C
:1011F000BA227508A0004909A0077508A00FC90008
:101200002008031DBC227608A0004A09A007760822
:10121000A00FCA002008031DBE227708A0004B09BA
:10122000A0077708A00FCB002008031DC0224A208A
:101230000430F800F9204D207008A0004C09A007E8
:101240007008A00FCC002008031DC2227108A00066
:101250004D09A0077108A00FCD002008031DC4226E
:101260007208A0004E09A0077208A00FCE00200847
:10127000031DC6227308A0004F09A0077308A00F22
:10128000CF002008031DC8227408A0005009A00741
:101290007408A00FD0002008031DCA227508A00002
:1012A0003509A0077508A00FB5002008031D1723F6
:1012B0007608A0003509A0077608A00FB500200821
:1012C000031D17237708A0003509A0077708A00F92
:1012D000B5002008031D17238A1500284B08F03994
:1012E000A000A0096208F039A0070308A200221993
:1012F000DD2122197F29221CB3212218C8214C0884
:10130000F039A000A0096308F039A0070308A20083
:1013100022191C2222199029221CF22122180722AC
:101320004D08F039A000A0096408F039A0070308AF
:10133000A20022195B222219A129221C3122221883
:1013400046224E08F039A000A0096508F039A00730
:101350000308A20022199A2222190800221C7022D6
:10136000221885220800A919BD291D30D20003309A
:10137000D3008A11B2218A15A915A91F08000C30C3
:10138000D2000230D3008A11D9218A15A91308008E
:10139000A91DD2291D30D2000330D3008A11D921D2
:1013A0008A15A911A91B08000C30D2000230D30005
:1013B0008A11B2218A15A9170800A91DE7291D3035
:1013C000D2000330D3008A11D9218A15A911A91F8F
:1013D00008000C30D2000230D3008A11D9218A15BE
:1013E000A9130800291AFC291830D2000230D300B2
:1013F0008A11B2218A1529162A1C08000D30D20044
:101400000230D3008A11D9218A152A100800291E1A
:10141000112A1830D2000230D3008A11D9218A153E
:1014200029122A1808000D30D2000230D3008A1188
:10143000B2218A152A140800291E262A1830D20043
:101440000230D3008A11D9218A1529122A1C0800DA
:101450000D30D2000230D3008A11D9218A152A100A
:101460000800A91A3B2A0A30D2000230D3008A11A0
:10147000B2218A15A916AA1C08000E30D20002302B
:10148000D3008A11D9218A15AA100800A91E502A52
:101490000A30D2000230D3008A11D9218A15A9124C
:1014A000AA1808000E30D2000230D3008A11B221EF
:1014B0008A15AA140800A91E652A0A30D200023033
:1014C000D3008A11D9218A15A912AA1C08000E304E
:1014D000D2000230D3008A11D9218A15AA1008003F
:1014E000291B7A2A0B30D2000230D3008A11B22194
:1014F0008A1529172A1D08000F30D2000230D300A8
:101500008A11D9218A152A110800291F8F2A0B3028
:10151000D2000230D3008A11D9218A1529132A1941
:1015200008000F30D2000230D3008A11B2218A1590
:101530002A150800291FA42A0B30D2000230D3003C
:101540008A11D9218A1529132A1D08000F30D200CB
:101550000230D3008A11D9218A152A1108003230AD
:10156000F700FA007608F800F201F3017808F600B7
:10157000D722F1017608F00070087207F4007108B4
:101580000318013E7307F5007408F2007508F300B4
:10159000F70BB62A7208F0007308F100F2017A081E
:1015A000F300F401F501E6227608F60008000310C6
:1015B000F60DF60DF60DF6137617761576147608F9
:1015C0009F001F19E12A1E08F6000800F3080319FE
:1015D000F4080319F508031908007008F9007108E8
:1015E000FA007208FB00F001F101F2011830FC0072
:1015F00003100B23031C012BF2007708F10076087F
:10160000F000FC0BF92A790DF6007A0DF7007B0D3E
:10161000F80003110800F90DFA0DFB0DF00DF10DA6
:10162000F20D73087002F6000301031C0130740709
:10163000F801031878147102F7007808031C0130D0
:101640007507F80103187814720278180310F8006F
:02165000080090
:00000001FF
