:020000040000FA
:020000000528D1
:0800080030280330B00085012F
:100010008601870188018901831603308E004030F4
:100020009F002F30850001308600003087000030AF
:10003000880007308900C03081008312463092006A
:100040000B162820002A0B1283168C10831208002E
:100050008B108C1083168C1483120B178B170800CF
:100060002320AB00030E8301AC008C183F208B18BB
:1000700050202C0E8300AB0E2B0E282008007C1580
:100080008B100B1608007C118B108C1083168C14AF
:1000900083120B178B17910108007C1D4D28080057
:1000A00043207C199F28061851282E222922A401BA
:1000B0000430A100A40D06182414061C24102922C3
:1000C000A10B5A2806182714061C27102922A5015F
:1000D0000230A100A50D06182514061C25102922A2
:1000E000A10B6A28A6010330A100A60D061826144C
:1000F000061C26102922A10B75280618A714061C19
:10010000A71029227C199F2806188228271C9A28C4
:1001100030092407A000A00F9A282508A000031981
:10012000A120A0030319AF20A0030319EA20A00314
:1001300003192C2127183F20271808006E210000E2
:1001400008002608A100A103A103A103A10303192C
:10015000AA280800A71C0512A718051608002608DB
:10016000A100A1030319C728A1030319CC28A103E7
:100170000319D128A1030319D628A1030319DB28E9
:10018000A1030319E028A1030319E5280800A71C0F
:100190008610A71886140800A71C0611A7180615B4
:1001A0000800A71C8611A71886150800A71C0612B0
:1001B000A71806160800A71C8612A718861608009E
:1001C000A71C0613A71806170800A71C8613A71854
:1001D000861708002608A10003190429A1030319A2
:1001E0000929A10303190E29A10303191329A10346
:1001F00003191829A10303191D29A1030319222991
:10020000A103031927290800A71C0710A718071422
:100210000800A71C8710A71887140800A71C07113F
:10022000A71807150800A71C8711A718871508002D
:10023000A71C0712A71807160800A71C8712A718E3
:1002400087160800A71C0713A71807170800A71C84
:100250008713A718871708002608A1000319462945
:10026000A10303194B29A10303195029A103031961
:100270005529A10303195A29A10303195F29A103D1
:1002800003196429A103031969290800A71C081090
:10029000A71808140800A71C8810A71888140800BD
:1002A000A71C0811A71808150800A71C8811A71873
:1002B00088150800A71C0812A71808160800A71C14
:1002C0008812A71888160800A71C0813A718081773
:1002D0000800A71C8813A7188817080030092407EE
:1002E000A000A00F0800831606108312061429220E
:1002F000061029223108A0000830A100A01B061416
:10030000A01F06102922A00DA10B7E290614292268
:10031000061029223208A0000830A100A01B0614F4
:10032000A01F06102922A00DA10B8E290614292238
:10033000061029223308A0000830A100A01B0614D3
:10034000A01F06102922A00DA10B9E290614292208
:10035000061029223408A0000830A100A01B0614B2
:10036000A01F06102922A00DA10BAE2906142922D8
:10037000061029223508A0000830A100A01B061491
:10038000A01F06102922A00DA10BBE2906142922A8
:10039000061029223608A0000830A100A01B061470
:1003A000A01F06102922A00DA10BCE290614292278
:1003B000061029223708A0000830A100A01B06144F
:1003C000A01F06102922A00DA10BDE290614292248
:1003D000061029223808A0000830A100A01B06142E
:1003E000A01F06102922A00DA10BEE290614292218
:1003F0002922292206102E228316061483120800B1
:100400000030BD0033223D08B1000130BD00332271
:100410003D08B2000230BD0033223D08B300033076
:10042000BD0033223D08B4000430BD0033223D0836
:10043000B5000530BD0033223D08B6000630BD00D2
:1004400033223D08B7000730BD0033223D08B80015
:10045000002A5030A300A30B2B2A08001E30A30053
:10046000A30B302A08003230BE00D0003D08BF0088
:10047000BB01BC013F08BD005B22BA013D08B900C9
:1004800039083B07D1003A080318013E3C07D20067
:100490005108BB005208BC00BE0B3A2A3B08C10001
:1004A0003C08C200C3015008C400C501C6016A224D
:1004B0004708BD0008000310BD0DBD0DBD0DBD13E7
:1004C0003D173D153D143D089F001F19652A1E0864
:1004D000BD000800C4080319C5080319C60803199C
:1004E00008004108CA004208CB004308CC00C10103
:1004F000C201C3011830CD0003108F22031C852ACE
:10050000C3004808C2004708C100CD0B7D2A4A0D30
:10051000C7004B0DC8004C0DC90003110800CA0DDF
:10052000CB0DCC0DC10DC20DC30D44084102C70057
:100530000301031C01304507C90103184914420295
:10054000C8004908031C01304607C90103184914B3
:0A055000430249180310C900080017
:00000001FF
