:020000040000FA
:020000000528D1
:0800080036280230B00085012A
:100010008601870188018901831640309F002F30B7
:1000200085000130860000308700003088000730EE
:100030008900C03081000E088E148312A000FC11CC
:10004000A018FC15463092000B162E20FC19062A2B
:100050000A2A0B1283168C10831208008B108C1046
:1000600083168C1483120B178B1708002920AB0002
:10007000030E8301AC008C1845208B1856202C0EE3
:100080008300AB0E2B0E2E2008007C158B100B1658
:1000900008007C118B108C1083168C1483120B17A4
:1000A0008B17910108007C1D5328080049207C19FA
:1000B000A528061857283D223822A4010430A100A3
:1000C000A40D06182414061C24103822A10B602845
:1000D00006182714061C27103822A5010230A1009B
:1000E000A50D06182514061C25103822A10B702812
:1000F000A6010330A100A60D06182614061C261022
:100100003822A10B7B280618A714061CA71038223A
:100110007C19A52806188828271CA0283009240740
:10012000A000A00FA0282508A0000319A720A00365
:100130000319B520A0030319F020A00303193221ED
:1001400027184520271808007421000008002608F9
:10015000A100A103A103A103A1030319B028080072
:10016000A71C0512A718051608002608A100A10360
:100170000319CD28A1030319D228A1030319D728F5
:10018000A1030319DC28A1030319E128A103031922
:10019000E628A1030319EB280800A71C8610A7185E
:1001A00086140800A71C0611A71806150800A71C2E
:1001B0008611A71886150800A71C0612A718061690
:1001C0000800A71C8612A71886160800A71C06138D
:1001D000A71806170800A71C8613A718861708007B
:1001E0002608A10003190A29A10303190F29A10355
:1001F00003191429A10303191929A10303191E299D
:10020000A10303192329A10303192829A103031911
:100210002D290800A71C0710A71807140800A71C01
:100220008710A71887140800A71C0711A71807151F
:100230000800A71C8711A71887150800A71C07121C
:10024000A71807160800A71C8712A718871608000A
:10025000A71C0713A71807170800A71C8713A718C0
:10026000871708002608A10003194C29A1030319C8
:100270005129A10303195629A10303195B29A103DD
:1002800003196029A10303196529A10303196A2928
:10029000A10303196F290800A71C0810A718081448
:1002A0000800A71C8810A71888140800A71C0811AC
:1002B000A71808150800A71C8811A718881508009A
:1002C000A71C0812A71808160800A71C8812A71850
:1002D00088160800A71C0813A71808170800A71CF1
:1002E0008813A7188817080030092407A000A00F5A
:1002F00008008316061083120614382206103822CE
:100300003108A0000830A100A01B0614A01F061091
:100310003822A00DA10B8429061438220610382299
:100320003208A0000830A100A01B0614A01F061070
:100330003822A00DA10B9429061438220610382269
:100340003308A0000830A100A01B0614A01F06104F
:100350003822A00DA10BA429061438220610382239
:100360003408A0000830A100A01B0614A01F06102E
:100370003822A00DA10BB429061438220610382209
:100380003508A0000830A100A01B0614A01F06100D
:100390003822A00DA10BC4290614382206103822D9
:1003A0003608A0000830A100A01B0614A01F0610EC
:1003B0003822A00DA10BD4290614382206103822A9
:1003C0003708A0000830A100A01B0614A01F0610CB
:1003D0003822A00DA10BE429061438220610382279
:1003E0003808A0000830A100A01B0614A01F0610AA
:1003F0003822A00DA10BF429061438223822382205
:1004000006103D22831606148312080000005308CC
:1004100086000F2A00000C308600D3000F2A00301F
:10042000BD0042223D08B1000130BD0042223D081E
:10043000B2000230BD0042223D08B3000330BD00CF
:1004400042223D08B4000430BD0042223D08B50000
:100450000530BD0042223D08B6000630BD004222F4
:100460003D08B7000730BD0042223D08B8000F2A02
:100470005030A300A30B3A2A08001E30A300A30BA0
:100480003F2A08003230BE00D0003D08BF00BB014B
:10049000BC013F08BD006A22BA013D08B900390815
:1004A0003B07D1003A080318013E3C07D20051082F
:1004B000BB005208BC00BE0B492A3B08C1003C08E7
:1004C000C200C3015008C400C501C6017922470813
:1004D000BD0008000310BD0DBD0DBD0DBD133D17C2
:1004E0003D153D143D089F001F19742A1E08BD00CC
:1004F0000800C4080319C5080319C6080319080031
:100500004108CA004208CB004308CC00C101C20127
:10051000C3011830CD0003109E22031C942AC3008F
:100520004808C2004708C100CD0B8C2A4A0DC700FD
:100530004B0DC8004C0DC90003110800CA0DCB0DAE
:10054000CC0DC10DC20DC30D44084102C70003010B
:10055000031C01304507C901031849144202C800B1
:100560004908031C01304607C90103184914430216
:0805700049180310C90008003E
:00000001FF
