:020000040000FA
:020000000528D1
:080008004C280000850186016F
:10001000870188018901831640309F002F308500B9
:1000200001308600003087000030880007308900EA
:10003000C030810083120000A5309F001F191E28C8
:100040001E08A400241C081024180814A41C8810DE
:10005000A4188814241D081124190815A41D88113A
:10006000A4198815241E0812241A0816A41E881222
:10007000A41A8816241F0813241B0817A41F88130A
:10008000A41B88170530A100C830A2004D20A20B88
:100090004628A10B46281B2800005030A300A30BC4
:0400A0004F280800DD
:00000001FF
