:020000040000FA
:020000000528D1
:080008001E280430B000850140
:100010008601870188018901831600309F002F30F7
:1000200085000130860000308700003088000730EE
:100030008900C03081008312DA21E029DE21AB0083
:10004000030E8301AC008B182B202C0E8300AB0E0B
:100050002B0EDA21080006182B2816221122A401E3
:100060000430A100A40D06182414061C241011222B
:10007000A10B322806182714061C27101122A501EF
:100080000230A100A50D06182514061C251011220A
:10009000A10B4228A6010330A100A60D06182614C4
:1000A000061C26101122A10B4D280618A714061CA9
:1000B000A7101122271C6E2830092407A000A00FCA
:1000C0006E282508A00003197320A00303198120BE
:1000D000A0030319BC20A0030319FE2006186E28F4
:1000E000271C402108002608A100A103A103A103A9
:1000F000A10303197C280800A71C0512A7180516E0
:1001000008002608A100A10303199928A1030319D7
:100110009E28A1030319A328A1030319A828A1035A
:100120000319AD28A1030319B228A1030319B728A5
:100130000800A71C8610A71886140800A71C061123
:10014000A71806150800A71C8611A7188615080011
:10015000A71C0612A71806160800A71C8612A718C7
:1001600086160800A71C0613A71806170800A71C68
:100170008613A718861708002608A1000319D62899
:10018000A1030319DB28A1030319E028A103031924
:10019000E528A1030319EA28A1030319EF28A10305
:1001A0000319F428A1030319F9280800A71C071054
:1001B000A71807140800A71C8710A71887140800A1
:1001C000A71C0711A71807150800A71C8711A71857
:1001D00087150800A71C0712A71807160800A71CF8
:1001E0008712A71887160800A71C0713A718071758
:1001F0000800A71C8713A718871708002608A10066
:1002000003191829A10303191D29A1030319222980
:10021000A10303192729A10303192C29A1030319F9
:100220003129A10303193629A10303193B29080029
:10023000A71C0810A71808140800A71C8810A718E6
:1002400088140800A71C0811A71808150800A71C87
:100250008811A71888150800A71C0812A7180816E7
:100260000800A71C8812A71888160800A71C0813E6
:10027000A71808170800A71C8813A71888170800D4
:1002800030092407A000A00FD1298316061083127D
:1002900006141122061011223108A0000830A10016
:1002A000A01B0614A01F06101122A00DA10B50299F
:1002B00006141122061011223208A0000830A100F5
:1002C000A01B0614A01F06101122A00DA10B60296F
:1002D00006141122061011223308A0000830A100D4
:1002E000A01B0614A01F06101122A00DA10B70293F
:1002F00006141122061011223408A0000830A100B3
:10030000A01B0614A01F06101122A00DA10B80290E
:1003100006141122061011223508A0000830A10091
:10032000A01B0614A01F06101122A00DA10B9029DE
:1003300006141122061011223608A0000830A10070
:10034000A01B0614A01F06101122A00DA10BA029AE
:1003500006141122061011223708A0000830A1004F
:10036000A01B0614A01F06101122A00DA10BB0297E
:1003700006141122061011223808A0000830A1002E
:10038000A01B0614A01F06101122A00DA10BC0294E
:10039000061411221122112206108316061483124C
:1003A000080016225130A2001122A20BD4290618EF
:1003B000D72908008B100B168B1708000B120800AA
:1003C00005309F001F19E2291E08B1000D309F0063
:1003D0001F19E8291E08B20015309F001F19EE29C9
:1003E0001E08B3001D309F001F19F4291E08B40019
:1003F00025309F001F19FA291E08B5002D309F00D7
:100400001F19002A1E08B60035309F001F19062A42
:100410001E08B7003D309F001F190C2A1E08B800A7
:10042000E0295030A300A30B132A08001E30A300BC
:06043000A30B182A0800CE
:00000001FF
