:020000040000FA
:020000001628C0
:08000800A6000308A7000A0886
:10001000A80083018A114E2028088A00270883003F
:100020002608271D03112719031508008A110A1233
:1000300085018601870188018901831649309F0067
:100040002F308500013086000030870000308800A6
:10005000013089006400CC3081000E088E148312B8
:10006000A000D911A018D915213090004630920077
:100070003D208A15D919002827288B100B160C1043
:100080008C1083160C148C1483120B178B1708001A
:100090000B1283160C108C108312080048208B184A
:1000A00060200C1859168C1857203D20080059154F
:1000B0000800591191010800591D5C28CF2608003D
:1000C000000008005818A5206B18AE20DA18D920B7
:1000D0005A19EA20DA19F1205A1A0721DA1A4021AE
:1000E00064190221EC03031977205912080000005B
:1000F0002F08A4000C30D2000330D300A41A03222E
:10010000A41A2F16A41E2A22A41E2F122F08A40000
:100110000D30D2000330D300241E0322241EAF165C
:10012000241A2A22241AAF120E30D2000330D30030
:100130002F1B2A222F130F30D2000330D300AF1B06
:100140002A22AF130930EC000800D703031D080072
:100150000310D80C2F260330D7000800DB03031D43
:100160000800EB0C031CEB130318EB17A101A20111
:100170002D1A2114AD1A22142108A20522182D12BD
:1001800022186113221808132218AD122218E11345
:1001900022188813221C2D16221C6117221C0817F6
:1001A000221CAD16221CE117221C88170830DB0028
:1001B0000800DC03031D08002B111630D2000230AA
:1001C000D3002A22AE111A30D2000230D3002A22E4
:1001D000DA100800DD03031D0800E8260F30DD00FB
:1001E0000800E303031D0800AB111730D2000230F2
:1001F000D3002A222E121B30D2000230D3002A2232
:10020000DA110800E503031D08001D240800E603B9
:10021000031D08002A121F30D2000330D3002A2207
:10022000AA12E01387132A135F110611AA13DF1114
:100230008611AA115F1206122D10DF1286122B10E2
:100240005F130613AD131E30D2000230D3002A22F2
:100250002D131C30D2000230D3002A22AE121D30E2
:10026000D2000230D3002A222E101F30D2000230DA
:10027000D3002A228A15282267228A115A120800DE
:10028000E703031D0800BA25C9257C26D9261430AA
:10029000E70008008614CF268610CF267808A00035
:1002A0000430A100A0198614A01D8610CF26A00D31
:1002B000A10B52290030A0000730A100201B86149A
:1002C000201F8610CF26A00DA10B5E298614CF26F5
:1002D000CF26CF268610D42683168614831259196A
:1002E000FF29861C6F295919FF2986187329D426DE
:1002F000CF26F0010830A100F00D86187014861C7E
:100300007010CF26A10B7C295919FF298618842942
:10031000D426CF26F1010830A100F10D8618711402
:10032000861C7110CF26A10B8D295919FF2986181B
:100330009529D426CF26F2010830A100F20D8618A7
:100340007214861C7210CF26A10B9E295919FF2901
:100350008618A629D426CF26F3010830A100F30D74
:1003600086187314861C7310CF26A10BAF29591958
:10037000FF298618B729D426CF26F4010830A1001A
:10038000F40D86187414861C7410CF26A10BC02996
:100390005919FF298618C829D426CF26F501083017
:1003A000A100F50D86187514861C7510CF26A10BBB
:1003B000D1295919FF298618D929D426CF26F60123
:1003C0000830A100F60D86187614861C7610CF260C
:1003D000A10BE2295919FF298618EA29D426CF262C
:1003E000F7010830A100F70D86187714861C7710E6
:1003F000CF26A10BF3295919FF298618FB2983164B
:100400008610831208008614CF268610CF26530844
:10041000A0000430A100A0198614A01D8610CF26CC
:10042000A00DA10B0B2A8614CF265208A000053080
:10043000A100201A8614201E8610CF26A00DA10B25
:10044000192A8614CF268614CF26CF26CF268610CB
:10045000CF2608008614CF268610CF265308A0008A
:100460000430A100A0198614A01D8610CF26A00D6F
:10047000A10B322A8614CF265208A0000530A10015
:10048000201A8614201E8610CF26A00DA10B402A0C
:100490008610CF268614CF26CF26CF268610CF26CD
:1004A0000800AC1B080003103F0CA0000310A00CB8
:1004B0000310A00CE030A0042008A3005408A306F9
:1004C000031908002008D400A00A03199224A00AE6
:1004D0000319F523A00A03191D24A00A0319722485
:1004E000A00A0319E725A00A0319D825A00A0319B1
:1004F000CE24A00A0319DC24A00A03190F25A00AA0
:1005000003191625A00A0319A625A00A0319EC242D
:10051000A00A0319FD24A00A03196925A00A0319DA
:100520008D25A00A03197725A00A03199B2503101E
:100530003F0CA000200803196A230800AC1B080028
:100540000310430CA0000310A00C0310A00CE0301B
:10055000A0042008A3005508A306031908002008DA
:10056000D500A00A03194324A00A03195126A00AA2
:1005700003191D25A00A03195425A00A0319F625FD
:10058000A00A0319F624A00A03190625A00A0319D4
:100590003E26A00A0319C925A00A03198B26A00A22
:1005A0000319BA25A00A03197C26A00A031970258D
:1005B000A00A03199425A00A03192F26A00A0319DB
:1005C0008225A00A031971260310430CA0002008FD
:1005D00003196C2308000000080000000800000058
:1005E00008000000080000000800000008000000EB
:1005F00008000000080000000800000008000000DB
:1006000008000000080000000800000008000000CA
:1006100008000000080000000800000008000000BA
:1006200008000000080000000800000008000000AA
:10063000080000000800AC1B00000310500CA000D4
:100640000310A00C0310A00CE030A0042008A300AD
:100650005608A306031908002008D600A00A0319AB
:100660000D26A00A03190000A00A0319D423A00A2A
:100670000319C826A00A0319C826A00A0319C82608
:10068000A00A0319C826A00A0319C826A00A03193C
:10069000C826A00A0319C826A00A0319C826A00A5A
:1006A0000319C826A00A0319C826A00A0319C826D8
:1006B000A00A0319C826A00A0319C826A00A03190C
:1006C000C8260310500CA000200803196E23080050
:1006D00000000800000008000000080000000800FA
:1006E0001030D2000230D300AC182A22AC101130E6
:1006F000D2000230D3002C192A222C111230D20041
:100700000230D300AC192A22AC111330D2000230CF
:10071000D3002C1A2A222C121430D2000230D3001B
:10072000AC1A2A22AC121530D2000230D3002C1B96
:100730002A222C132D1261130813AD12E113881312
:100740001930D2000330D3002B1A2A222B12AB13FC
:10075000E11188112B13611108112C10611208127C
:100760000800AC1B08009224AC17DF178617722410
:100770001F30EB000830DB001630D2000230D3000F
:100780002B1D03222B15DA141430DC002F26013028
:10079000D8000830D700AE13E21089100000CE2434
:1007A0005A150F30DD000800AC1F0800AC13DF1332
:1007B0008613432472240730EB000830DB00173027
:1007C000D2000230D300AB1D0322AB15DA15143072
:1007D000E3002F260730D8000830D700AE17E21408
:1007E000891400005A11DC2408006419080003145D
:1007F000E40D641D102C291060100710A910E010E2
:10080000871031151A30D2000330D3000322B115FE
:100810001B30D2000330D30003220F30E500080064
:10082000E41C192C291460140714291560150715E8
:100830000800A914E01487140800641C08000310C1
:10084000E40CE41C362C291460140714A914E014D9
:10085000871431111A30D2000330D3002A22B1118B
:100860001B30D2000330D3002A220800641C3F2C26
:100870002910601007102911601107110800A91034
:10088000E01087100800DA1E08001830D20003308C
:10089000D300AD182A22AD1072241930D2000230D4
:1008A000D3002D192A222D111630D2000230D30088
:1008B0002B192A222B111730D2000230D300AB198A
:1008C0002A22AB111A30D2000230D300AE192A22EC
:1008D000AE111930D2000330D3002B1A2A222B126A
:1008E000DA1208006B182D126B1861136B180813BD
:1008F0006B18AD126B18E1136B1888136B1C2D1657
:100900006B1C61176B1C08176B1CAD166B1CE11779
:100910006B1C88176B1800306B1CFF30EB00083025
:10092000DB000800D9180800AB10E0118711173060
:10093000D2000230D300AB192A22AB111B30D200F7
:100940000230D3002E1A2A222E121630D200023084
:10095000D3002B192A222B111A30D2000230D300D7
:10096000AE192A22AE111930D2000230D3002D194F
:100970002A222D111830D2000330D300AD182A22BC
:10098000AD10AD11E1128812AE1060120712AB1259
:10099000E11088102E11E012871208005114B012D5
:1009A0001530D2000330D3002A2230171630D2007F
:1009B0000330D300032208005110B0161530D200C6
:1009C0000330D300032230171630D2000330D30097
:1009D0002A220800000008002A161F30D200033027
:1009E000D30003225A160830E6000800AA16E017C2
:1009F00087175A160830E6000800311A08002A172F
:100A00005F1506155A160830E6000800311A08006E
:100A1000AA17DF1586155A160830E6000800AA1531
:100A20005F1606165A160830E60008002D14DF1669
:100A300086165A160830E60008002B145F170617B2
:100A40005A160830E6000800000008000000080000
:100A500000000800AC141030D2000230D300032292
:100A600008002C151130D2000230D30003220800F8
:100A7000AC151230D2000230D300032208002C162D
:100A80001330D2000230D30003220800AC16143019
:100A9000D2000230D300032208002C171530D200F8
:100AA0000230D300032208002E08A400241DE01603
:100AB000241D8716241D2E152419E01224198712CF
:100AC00024192E1108000000080000000800000092
:100AD00008008A15FE218A115A161030E600080017
:100AE0008A153D228A115A161030E60008000800C7
:100AF00008002608A400F030A407031C08002408FE
:100B0000A6000800080008002708A400F030A40789
:100B1000031C08002408A70008008A1513228A1164
:100B20005A161030E60008008A1552228A115A1609
:100B30001030E6000800080008002608A400103065
:100B4000A407031808002408A6000800311EAF2DD2
:100B500031121C30D2000330D3002A220800311693
:100B60001C30D2000330D30003220800000008002C
:100B7000000008001630D2000230D3002B08A40079
:100B8000241D0322241D2B1524192A2224192B117C
:100B900008001730D2000230D3002B08A400A41D97
:100BA0000322A41DAB15A4192A22A419AB11080015
:100BB0002D08A400A41DE116A41D8816A41DAD15C2
:100BC000A419E112A4198812A419AD1108002B0868
:100BD000A400A41CE015A41C8715A41CAB14A41825
:100BE000E011A4188711A418AB1008002E08A40067
:100BF000A41C6016A41C0716A41CAE14A418601232
:100C0000A4180712A418AE1008002D1661170817B3
:100C10000800AD16E117881708002B08A400A41ED1
:100C2000E114A41E8814A41EAB16A41AE110A41A81
:100C30008810A41AAB120800000008000000080089
:100C40002B161930D2000330D30003220800AB1753
:100C5000E115881508002B176115081508001830D4
:100C6000D2000330D3002D08A400A41C0322A41C2E
:100C7000AD14A4182A22A418AD1008001930D2000F
:100C80000230D3002D08A400241D0322241D2D159D
:100C900024192A2224192D1108002C146116081673
:100CA00008001830D2000330D300AD1C0322AD146D
:100CB00072241930D2000230D3002D1D03222D15CD
:100CC0001630D2000230D3002B1D03222B15DA166A
:100CD0001E30E700080000000800000008000000C7
:100CE0000800080008002708A4001030A407031813
:100CF00008002408A70008001A30D2000230D300F0
:100D00002E08A400A41D0322A41DAE15A4192A2296
:100D1000A419AE1108001B30D2000230D3002E08F7
:100D2000A400241E0322241E2E16241A2A22241A6A
:100D30002E120800AD171E30D2000230D30003225D
:100D40005A160830E60008002D171C30D200023079
:100D5000D30003225A160830E6000800AE161D30F4
:100D6000D2000230D30003225A160830E6000800F1
:100D70002E141F30D2000230D30003225A1608303E
:100D8000E60008000000080000000800000008005D
:100D9000000008000530A300A30BCC2E0800503043
:100DA000A300A30BD12E08001E30A300A30BD62E48
:100DB00008001930D2000330D3002B08A400241EF1
:100DC0000322241E2B16241A2A22241A2B1208006E
:100DD0001630D2000330D3003008A400241F0322B1
:0E0DE000241F3017241B2A22241B3013080066
:101000008A115E0885005F08860060088700610815
:101010008800620889000E30D2000330D30003221A
:101020002F170F30D2000330D3000322AF170C303C
:10103000D2000330D3002A222F120D30D200033009
:10104000D3002A22AF121E30EC008A154A288A11DA
:10105000DE01DF01E001E101E201CF260C30D20028
:101060000330D30003222F160D30D2000330D300FB
:101070000322AF160E30D2000330D3002A222F13E2
:101080000F30D2000330D3002A22AF131E30EC0001
:101090008A154A288A11640059205C2059205C2056
:1010A00059205C2059205C20591A62208A158A1127
:1010B0000030F6008A15FA228A117608A0003F094E
:1010C000A0071E08A00FBF0020088A11031D51228F
:1010D0000130F6008A15FA228A117608A000430929
:1010E000A0071E08A00FC30020088A11031D9E221E
:1010F0000230F6008A15FA228A117608A000370914
:10110000A0071E08A00FB70020088A11031DEB22BC
:101110000330F6008A15FA228A117608A0004009E9
:10112000A0071E08A00FC00020088A11031DED2291
:101130000430F6008A15FA228A117608A0004109C7
:10114000A0071E08A00FC10020088A11031DEF226E
:101150000530F6008A15FA228A117608A0004209A5
:10116000A0071E08A00FC20020088A11031DF1224B
:1011700059200230F8004A215C207008A00038098C
:10118000A0077008A00FB8002008031DF7227108FF
:10119000A0003909A0077108A00FB9002008031D9D
:1011A000F9227208A0003A09A0077208A00FBA003D
:1011B0002008031DFB227308A0003B09A007730849
:1011C000A00FBB002008031DFD227408A0003C09ED
:1011D000A0077408A00FBC002008031DFF2275089B
:1011E000A0003D09A0077508A00FBD002008031D41
:1011F00001237608A0003E09A0077608A00FBE00D4
:101200002008031D03237708A0003609A0077708EC
:10121000A00FB6002008031DF32259200330F80068
:101220004A215C207008A0004409A0077008A00FA4
:10123000C4002008031DF5227108A0004509A0077D
:101240007108A00FC5002008031D05237208A00027
:101250004609A0077208A00FC6002008031D072337
:101260007308A0004709A0077308A00FC700200853
:10127000031D09237408A0004809A0077408A00FE3
:10128000C8002008031D0B237508A0004909A0070A
:101290007508A00FC9002008031D0D237608A000C3
:1012A0004A09A0077608A00FCA002008031D0F23D3
:1012B0007708A0004B09A0077708A00FCB002008F3
:1012C000031D112359200430F8004A215C207008C6
:1012D000A0004C09A0077008A00FCC002008031D37
:1012E00013237108A0004D09A0077108A00FCD00BD
:1012F0002008031D15237208A0004E09A0077208DC
:10130000A00FCE002008031D17237308A0004F096B
:10131000A0077308A00FCF002008031D192374082D
:10132000A0005009A0077408A00FD0002008031DDA
:101330001B237508A0003509A0077508A00FB5008C
:101340002008031D68237608A0003509A007760849
:10135000A00FB5002008031D68237708A0003509F9
:10136000A0077708A00FB5002008031D68238A1581
:101370004A284B08F039A000A0092408F039A0073A
:101380000308A200221928222219CA29221CFE21A0
:10139000221813224C08F039A000A0092508F039C2
:1013A000A0070308A200221967222219DB29221CA8
:1013B0003D22221852224D08F039A000A00926082B
:1013C000F039A0070308A2002219A6222219EC294D
:1013D000221C7C22221891224E08F039A000A0097C
:1013E0002708F039A0070308A2002219E5222219D4
:1013F0000800221CBB222218D0220800A919082AA2
:101400001D30D2000330D3008A1103228A15A9159A
:10141000A91F08000C30D2000230D3008A112A2202
:101420008A15A9130800A91D1D2A1D30D2000330FA
:10143000D3008A112A228A15A911A91B08000C3091
:10144000D2000230D3008A1103228A15A91708009E
:10145000A91D322A1D30D2000330D3008A112A225E
:101460008A15A911A91F08000C30D2000230D30040
:101470008A112A228A15A9130800291A472A183026
:10148000D2000230D3008A1103228A1529162A1CA1
:1014900008000D30D2000230D3008A112A228A15AA
:1014A0002A100800291E5C2A1830D2000230D3000E
:1014B0008A112A228A1529122A1808000D30D20012
:1014C0000230D3008A1103228A152A140800291E2B
:1014D000712A1830D2000230D3008A112A228A15CC
:1014E00029122A1C08000D30D2000230D3008A11C4
:1014F0002A228A152A100800A91A862A0A30D20040
:101500000230D3008A1103228A15A916AA1C0800EA
:101510000E30D2000230D3008A112A228A15AA1076
:101520000800A91E9B2A0A30D2000230D3008A117B
:101530002A228A15A912AA1808000E30D2000230F9
:10154000D3008A1103228A15AA140800A91EB02A02
:101550000A30D2000230D3008A112A228A15A91239
:10156000AA1C08000E30D2000230D3008A112A22B1
:101570008A15AA100800291BC52A0B30D200023098
:10158000D3008A1103228A1529172A1D08000F305B
:10159000D2000230D3008A112A228A152A110800AB
:1015A000291FDA2A0B30D2000230D3008A112A22F6
:1015B0008A1529132A1908000F30D2000230D300EF
:1015C0008A1103228A152A150800291FEF2A0B30D9
:1015D000D2000230D3008A112A228A1529132A1D2B
:1015E00008000F30D2000230D3008A112A228A1557
:1015F0002A1108003230F700FA007608F800F201EC
:10160000F3017808F6002223F1017608F000700853
:101610007207F40071080318013E7307F50074089F
:10162000F2007508F300F70B012B7208F000730845
:10163000F100F2017A08F300F401F5013123760894
:10164000F60008000310F60DF60DF60DF6137617EA
:101650007615761476089F001F192C2B1E08F600AD
:101660000800F3080319F4080319F5080319080022
:101670007008F9007108FA007208FB00F001F1012E
:10168000F2011830FC0003105623031C4C2BF2000F
:101690007708F1007608F000FC0B442B790DF6007A
:1016A0007A0DF7007B0DF80003110800F90DFA0D13
:1016B000FB0DF00DF10DF20D73087002F600030141
:1016C000031C01307407F801031878147102F70045
:1016D0007808031C01307507F801031878147202AA
:0816E00078180310F80008005F
:00000001FF
