:020000040000FA
:020000001628C0
:08000800A8000308A9000A0882
:10001000CD0083018A1148204D088A0029088300F9
:100020002808291D03112919031508000330AA0007
:1000300085018601870188018901831640309F0070
:100040002F308500013086000030870000308800A6
:10005000073089006400CC3081000E088E148312B2
:10006000A000CE11A018CE15463092000B164020ED
:10007000CE19702A7B2A0B1283168C10831208006B
:100080008B108C1083168C1483120B178B1708009F
:100090003B208C184F208B186020402008004E1504
:1000A0008B100B1608004E118B108C1083168C14BD
:1000B00083120B178B17910108004E1D5D28080055
:1000C00053204E19AF2806186128B022AB22A40194
:1000D0000430A100A40D06182414061C2410AB2221
:1000E000A10B6A2806182714061C2710AB22A501AD
:1000F0000230A100A50D06182514061C2510AB2200
:10010000A10B7A28A6010330A100A60D061826141B
:10011000061C2610AB22A10B85280618A714061C66
:10012000A710AB224E19AF2806189228271CAA2820
:100130002A092407A000A00FAA282508A000031957
:10014000B120A0030319C320A00303191A21A0039F
:1001500003197C2127184F2027180800DE210000F2
:1001600008002608A100A103A103A103A10303190C
:10017000BA280800A71C6512A7186516A71C051247
:10018000A718051608002608A100A1030319DB28FB
:10019000A1030319E428A1030319ED28A1030319FE
:1001A000F628A1030319FF28A10303190829A103B5
:1001B000031911290800A71CE610A718E614A71CAC
:1001C0008610A71886140800A71C6611A7186615C4
:1001D000A71C0611A71806150800A71CE611A718EA
:1001E000E615A71C8611A71886150800A71C66121D
:1001F000A7186616A71C0612A71806160800A71C43
:10020000E612A718E616A71C8612A718861608007D
:10021000A71C6613A7186617A71C0613A7180617AE
:100220000800A71CE613A718E617A71C8613A71833
:10023000861708002608A10003193429A103031911
:100240003D29A10303194629A10303194F29A1033D
:1002500003195829A10303196129A10303196A2964
:10026000A103031973290800A71C6710A7186714B6
:10027000A71C0710A71807140800A71CE710A71849
:10028000E714A71C8710A71887140800A71C67117C
:10029000A7186715A71C0711A71807150800A71CA2
:1002A000E711A718E715A71C8711A71887150800DD
:1002B000A71C6712A7186716A71C0712A71807160E
:1002C0000800A71CE712A718E716A71C8712A71893
:1002D00087160800A71C6713A7186717A71C071322
:1002E000A71807170800A71CE713A718E717A71CEC
:1002F0008713A718871708002608A1000319962955
:10030000A10303199F29A1030319A829A103031914
:10031000B129A1030319BA29A1030319C329A10310
:100320000319CC29A1030319D5290800A71C6810BB
:10033000A7186814A71C0810A71808140800A71C01
:10034000E810A718E814A71C8810A718881408003C
:10035000A71C6811A7186815A71C0811A71808156D
:100360000800A71CE811A718E815A71C8811A718F2
:1003700088150800A71C6812A7186816A71C081281
:10038000A71808160800A71CE812A718E816A71C4B
:100390008812A71888160800A71C6813A7186817E2
:1003A000A71C0813A71808170800A71CE813A7180C
:1003B000E817A71C8813A718881708002A0924071C
:1003C000A000A00F08008316061083120614AB22AB
:1003D0000610AB222B08A0000830A100A01B0614B9
:1003E000A01F0610AB22A00DA10BEE290614AB2214
:1003F0000610AB222C08A0000830A100A01B061498
:10040000A01F0610AB22A00DA10BFE290614AB22E3
:100410000610AB222D08A0000830A100A01B061476
:10042000A01F0610AB22A00DA10B0E2A0614AB22B2
:100430000610AB222E08A0000830A100A01B061455
:10044000A01F0610AB22A00DA10B1E2A0614AB2282
:100450000610AB222F08A0000830A100A01B061434
:10046000A01F0610AB22A00DA10B2E2A0614AB2252
:100470000610AB223008A0000830A100A01B061413
:10048000A01F0610AB22A00DA10B3E2A0614AB2222
:100490000610AB223108A0000830A100A01B0614F2
:1004A000A01F0610AB22A00DA10B4E2A0614AB22F2
:1004B0000610AB223208A0000830A100A01B0614D1
:1004C000A01F0610AB22A00DA10B5E2A0614AB22C2
:1004D000AB22AB220610B02283160614831208004A
:1004E0006508850066088600670887006808880038
:1004F00069088900812AE501E601E701E801E901CF
:10050000812A64000030B700B5223708AB00013003
:10051000B700B5223708AC000230B700B522370863
:10052000AD000330B700B5223708AE000430B70085
:10053000B5223708AF000530B700B5223708B00044
:100540000630B700B5223708B1000730B700B52232
:100550003708B200812A5030A300A30BAD2A08004F
:100560001E30A300A30BB22A08003230B800CA0024
:100570003708B900B501B6013908B700DD22B4016A
:100580003708B30033083507CB0034080318013EA1
:100590003607CC004B08B5004C08B600B80BBC2A97
:1005A0003508BB003608BC00BD014A08BE00BF01CB
:1005B000C001EC224108B70008000310B70DB70DC9
:1005C000B70DB71337173715371437089F001F19A2
:1005D000E72A1E08B7000800BE080319BF08031960
:1005E000C008031908003B08C4003C08C5003D08CA
:1005F000C600BB01BC01BD011830C70003101123A8
:10060000031C072BBD004208BC004108BB00C70B00
:10061000FF2A440DC100450DC200460DC300031161
:100620000800C40DC50DC60DBB0DBC0DBD0D3E08AB
:100630003B02C1000301031C01303F07C301031843
:1006400043143C02C2004308031C01304007C301AD
:0E065000031843143D0243180310C3000800B2
:00000001FF
