:020000040000FA
:020000001628C0
:08000800A6000308A7000A0886
:10001000A80083018A114E2028088A00270883003F
:100020002608271D03112719031508008A110A1233
:1000300085018601870188018901831649309F0067
:100040002F308500013086000030870000308800A6
:10005000013089006400CC3081000E088E148312B8
:10006000A000D911A018D915213090004630920077
:100070003D208A15D919002827288B100B160C1043
:100080008C1083160C148C1483120B178B1708001A
:100090000B1283160C108C108312080048208B184A
:1000A00060200C1859168C1857203D20080059154F
:1000B0000800591191010800591D5C28E02608002C
:1000C000000008005818A5206B18AE20DA18D920B7
:1000D0005A19EA20DA19F1205A1A0721DA1A3C21B2
:1000E00064190221EC03031977205912080000005B
:1000F0002F08A4000C30D2000330D300A41A002231
:10010000A41A2F16A41E2722A41E2F122F08A40003
:100110000D30D2000330D300241E0022241EAF165F
:10012000241A2722241AAF120E30D2000330D30033
:100130002F1B27222F130F30D2000330D300AF1B09
:100140002722AF130930EC000800D703031D080075
:100150000310D80C39260330D7000800DB03031D39
:100160000800EB0C031CEB130318EB17A101A20111
:100170002D1A2114AD1A22142108A20522182D12BD
:1001800022186113221808132218AD122218E11345
:1001900022188813221C2D16221C6117221C0817F6
:1001A000221CAD16221CE117221C88170830DB0028
:1001B0000800DC03031D08002B111630D2000230AA
:1001C000D3002722AE111A30D2000230D3002722EA
:1001D000DA100800DD03031D0800F9260F30DD00EA
:1001E0000800E303031D0800AB111730D2000230F2
:1001F000D30027222E121B30D2000230D300272238
:10020000DA110800E503031D080018240800E603BE
:10021000031D08002A121F30D2000330D30027220A
:10022000AA12E01387132A135F110611AA13DF1114
:100230008611AA115F1206122D10DF1286122B10E2
:100240005F130613AD131E30D2000230D3002722F5
:100250002D131C30D2000230D3002722AE121D30E5
:10026000D2000230D30027222E101F30D2000230DD
:10027000D30027225A120800E703031D0800C425F3
:10028000D3258D269C26EA261430E7000800861424
:10029000E0268610E0267808A0000430A100A0190E
:1002A0008614A01D8610E026A00DA10B4F2900305A
:1002B000A0000730A100201B8614201F8610E02616
:1002C000A00DA10B5B298614E026E026E02686100F
:1002D000E5268316861483125919FC29861C6C297D
:1002E0005919FC2986187029E526E026F001083006
:1002F000A100F00D86187014861C7010E026A10B6A
:1003000079295919FC2986188129E526E026F10169
:100310000830A100F10D86187114861C7110E026BA
:10032000A10B8A295919FC2986189229E526E0266D
:10033000F2010830A100F20D86187214861C7210AA
:10034000E026A10B9B295919FC298618A329E5262B
:10035000E026F3010830A100F30D86187314861C03
:100360007310E026A10BAC295919FC298618B42971
:10037000E526E026F4010830A100F40D8618741477
:10038000861C7410E026A10BBD295919FC2986187A
:10039000C529E526E026F5010830A100F50D8618EF
:1003A0007514861C7510E026A10BCE295919FC295D
:1003B0008618D629E526E026F6010830A100F60DBC
:1003C00086187614861C7610E026A10BDF295919B1
:1003D000FC298618E729E526E026F7010830A10068
:1003E000F70D86187714861C7710E026A10BF029EC
:1003F0005919FC298618F8298316861083120800DB
:100400008614E0268610E0265308A0000430A100E0
:10041000A0198614A01D8610E026A00DA10B082AA5
:100420008614E0265208A0000530A100201A861488
:10043000201E8610E026A00DA10B162A8614E026A9
:100440008614E026E026E0268610E02608008614C2
:10045000E0268610E0265308A0000430A100A01971
:100460008614A01D8610E026A00DA10B2F2A86144D
:10047000E0265208A0000530A100201A8614201E94
:100480008610E026A00DA10B3D2A8610E0268614DA
:10049000E026E026E0268610E0260800AC1B0800D7
:1004A00003103F0CA0000310A00C0310A00CE030C0
:1004B000A0042008A3005408A3060319080020087C
:1004C000D400A00A03199424A00A0319F023A00A57
:1004D00003191824A00A03197424A00A0319F1258A
:1004E000A00A0319E225A00A0319D024A00A0319BF
:1004F000DE24A00A03191125A00A03191825A00A51
:100500000319B025A00A0319EE24A00A0319FF2439
:10051000A00A03196B25A00A03199325A00A031941
:100520007D25A00A0319A52503103F0CA000200873
:10053000031967230800AC1B08000310430CA0003C
:100540000310A00C0310A00CE030A0042008A300AE
:100550005508A306031908002008D500A00A0319AE
:100560003E24A00A03195B26A00A03191F25A00A2E
:1005700003195625A00A03190026A00A0319F82416
:10058000A00A03190825A00A03194826A00A03197E
:10059000D325A00A03199C26A00A0319C425A00A82
:1005A00003198D26A00A03197425A00A03199C2596
:1005B000A00A03193926A00A03198825A00A0319DD
:1005C00082260310430CA0002008031969230800A9
:1005D00000000800000008000000080000000800FB
:1005E00000000800000008000000080000000800EB
:1005F00000000800000008000000080000000800DB
:1006000000000800000008000000080000000800CA
:1006100000000800000008000000080000000800BA
:1006200000000800000008000000080000000800AA
:10063000AC1B00000310500CA0000310A00C031012
:10064000A00CE030A0042008A3005608A30603195C
:1006500008002008D600A00A03191726A00A0319CB
:10066000AE23A00A0319D023A00A0319D926A00A91
:100670000319D926A00A0319D926A00A0319D926D5
:10068000A00A0319D926A00A0319D926A00A03191A
:10069000D926A00A0319D926A00A0319D926A00A27
:1006A0000319D926A00A0319D926A00A0319D926A5
:1006B000A00A0319D926A00A0319D9260310500C41
:1006C000A000200803196B230800000008000000A8
:1006D000080000000800000008001030D2000230BE
:1006E000D300AC182722AC101130D2000230D30056
:1006F0002C1927222C111230D2000230D300AC1951
:100700002722AC111330D2000230D3002C1A27223A
:100710002C121430D2000230D300AC1A2722AC12B3
:100720001530D2000230D3002C1B27222C132D129F
:1007300061130813AD12E11388131930D20003308E
:10074000D3002B1A27222B12AB13E11188112B1384
:10075000611108112C106112081208000000942485
:10076000AC17DF17861774241F30EB000830DB004E
:100770001630D2000230D3002B1D00222B15DA14C4
:100780001430DC0039260130D8000830D700AE1311
:10079000E21089100000D0245A150F30DD00080047
:1007A0000000AC13DF1386133E2474240730EB00E3
:1007B0000830DB001730D2000230D300AB1D00221E
:1007C000AB15DA151430E30039260730D8000830AD
:1007D000D700AE17E214891400005A11DE24080075
:1007E000641908000314E40D641D0B2C291060101B
:1007F0000710A910E010871031151A30D20003300D
:10080000D3000022B1151B30D2000330D3000022E8
:100810000F30E5000800E41C142C291460140714A0
:100820002915601507150800A914E014871408009D
:10083000641C08000310E40CE41C312C291460141F
:100840000714A914E014871431111A30D2000330B0
:10085000D3002722B1111B30D2000330D30027224E
:100860000800641C3A2C291060100710291160112F
:1008700007110800A910E01087100800DA1E080010
:100880001830D2000330D300AD182722AD107424E5
:100890001930D2000230D3002D1927222D11163025
:1008A000D2000230D3002B1927222B111730D2008F
:1008B0000230D300AB192722AB111A30D20002301C
:1008C000D300AE192722AE111B30D2000230D30064
:1008D0002E1A27222E121930D2000330D3002B1AE1
:1008E00027222B12DA1208006B182D126B186113D5
:1008F0006B1808136B18AD126B18E1136B18881383
:100900006B1C2D166B1C61176B1C08176B1CAD162E
:100910006B1CE1176B1C88176B1800306B1CFF30C9
:10092000EB000830DB000800D9180800AB10E0111C
:1009300087111730D2000230D300AB192722AB1138
:100940001B30D2000230D3002E1A27222E1216306E
:10095000D2000230D3002B1927222B111A30D200DB
:100960000230D300AE192722AE111930D200023066
:10097000D3002D1927222D111830D2000330D300B7
:10098000AD182722AD10AD11E1128812AE10601221
:100990000712AB12E11088102E11E0128712080026
:1009A0005114B0121530D2000330D3002722301773
:1009B0001630D2000330D300002208005110B016C8
:1009C0001530D2000330D300002230171630D20089
:1009D0000330D30027220800000008002A161F3029
:1009E000D2000330D30000225A160830E600080077
:1009F000AA16E01787175A160830E6000800311AC1
:100A000008002A175F1506155A160830E600080078
:100A1000311A0800AA17DF1586155A160830E600A5
:100A20000800AA155F1606165A160830E6000800D8
:100A30002D14DF1686165A160830E60008002B140F
:100A40005F1706175A160830E60008000000080075
:100A50000000080000000800AC141030D200023082
:100A6000D300002208002C151130D2000230D30030
:100A700000220800AC151230D2000230D300002250
:100A800008002C161330D2000230D30000220800D8
:100A9000AC161430D2000230D300002208002C170C
:100AA0001530D2000230D300002208002E08A40026
:100AB000241DE016241D8716241D2E152419E0126E
:100AC0002419871224192E110800000008000000C4
:100AD0000800000008000800A400F030A407031C70
:100AE00008002408A40008000800A400F030A407AF
:100AF000031C08002408A5000800080008002608B8
:100B0000A400F030A407031C08002408A600080075
:100B1000080008002708A400F030A407031C080000
:100B20002408A70008000800A4001030A407031838
:100B300008002408A40008000800A4001030A4073E
:100B4000031808002408A50008000800080026086B
:100B5000A4001030A407031808002408A600080009
:100B6000311EB92D31121C30D2000330D3002722A0
:100B7000080031161C30D2000330D30000220800D8
:100B800000000800000008001630D2000230D30038
:100B90002B08A400241D0022241D2B152419272214
:100BA00024192B1108001730D2000230D3002B0873
:100BB000A400A41D0022A41DAB15A4192722A4196A
:100BC000AB1108002D08A400A41DE116A41D881671
:100BD000A41DAD15A419E112A4198812A419AD1110
:100BE00008002B08A400A41CE015A41C8715A41C55
:100BF000AB14A418E011A4188711A418AB100800B6
:100C00002E08A400A41C6016A41C0716A41CAE1475
:100C1000A4186012A4180712A418AE1008002D160C
:100C2000611708170800AD16E117881708002B0890
:100C3000A400A41EE114A41E8814A41EAB16A41ABA
:100C4000E110A41A8810A41AAB12080000000800D2
:100C5000000008002B161930D2000330D300002208
:100C60000800AB17E115881508002B17611508154A
:100C700008001830D2000330D3002D08A400A41CB3
:100C80000022A41CAD14A4182722A418AD1008003B
:100C90001930D2000230D3002D08A400241D0022F8
:100CA000241D2D152419272224192D1108002C1478
:100CB0006116081608001830D2000330D300AD1CAE
:100CC0000022AD1474241930D2000230D3002D1D3F
:100CD00000222D151630D2000230D3002B1D002229
:100CE0002B151B30D2000230D3002E1E00222E16F0
:100CF000DA161E30E70008000000080000000800B7
:100D000000000800080008002708A4001030A4070D
:100D1000031808002408A70008001A30D200023087
:100D2000D3002E08A400A41D0022A41DAE15A419F2
:100D30002722A419AE1108001B30D2000230D300C4
:100D40002E08A400241E0022241E2E16241A272258
:100D5000241A2E120800AD171E30D2000230D30024
:100D600000225A160830E60008002D171C30D20069
:100D70000230D30000225A160830E6000800AE16F2
:100D80001D30D2000230D30000225A160830E6008F
:100D900008002E141F30D2000230D30000225A1651
:100DA0000830E6000800000008000000080000000D
:100DB0000800000008000530A300A30BDD2E08008A
:100DC0005030A300A30BE22E08001E30A300A30B9B
:100DD000E72E08001930D2000330D3002B08A400FE
:100DE000241E0022241E2B16241A2722241A2B121A
:100DF00008001630D2000330D3003008A400241FAE
:100E00000022241F3017241B2722241B3013080024
:101000008A115E0885005F08860060088700610815
:101010008800620889000E30D2000330D30000221D
:101020002F170F30D2000330D3000022AF170C303F
:10103000D2000330D30027222F120D30D20003300C
:10104000D3002722AF121E30EC008A154B288A11DC
:10105000DE01DF01E001E101E201E026AE230C3018
:10106000D2000330D30000222F160D30D2000330FF
:10107000D3000022AF160E30D2000330D300272257
:101080002F130F30D2000330D3002722AF131E30AE
:10109000EC008A154B288A11640059205C205920E5
:1010A0005C2059205C2059205C20591A62208A1546
:1010B0008A110030F6008A15FB228A117608A000FA
:1010C0003F09A0071E08A00FBF0020088A11031DBA
:1010D0004E220130F6008A15FB228A117608A00004
:1010E0004309A0071E08A00FC30020088A11031D92
:1010F0009B220230F6008A15FB228A117608A00096
:101100003709A0071E08A00FB70020088A11031D89
:10111000E8220330F6008A15FB228A117608A00027
:101120004009A0071E08A00FC00020088A11031D57
:10113000EA220430F6008A15FB228A117608A00004
:101140004109A0071E08A00FC10020088A11031D35
:10115000EC220530F6008A15FB228A117608A000E1
:101160004209A0071E08A00FC20020088A11031D13
:10117000EE2259200230F80047215C207008A000C0
:101180003809A0077008A00FB8002008031DF4223A
:101190007108A0003909A0077108A00FB900200844
:1011A000031DF6227208A0003A09A0077208A00FDA
:1011B000BA002008031DF8227308A0003B09A0070D
:1011C0007308A00FBB002008031DFA227408A000BA
:1011D0003C09A0077408A00FBC002008031DFC22D6
:1011E0007508A0003D09A0077508A00FBD002008E4
:1011F000031DFE227608A0003E09A0077608A00F76
:10120000BE002008031D00237708A0003609A007B0
:101210007708A00FB6002008031DF02259200330E4
:10122000F80047215C207008A0004409A00770085E
:10123000A00FC4002008031DF2227108A000450978
:10124000A0077108A00FC5002008031D0223720823
:10125000A0004609A0077208A00FC6002008031DC1
:1012600004237308A0004709A0077308A00FC70054
:101270002008031D06237408A0004809A00774086D
:10128000A00FC8002008031D08237508A000490905
:10129000A0077508A00FC9002008031D0A237608BF
:1012A000A0004A09A0077608A00FCA002008031D65
:1012B0000C237708A0004B09A0077708A00FCB00EC
:1012C0002008031D0E2359200430F80047215C201C
:1012D0007008A0004C09A0077008A00FCC002008DF
:1012E000031D10237108A0004D09A0077108A00F6D
:1012F000CD002008031D12237208A0004E09A0078C
:101300007208A00FCE002008031D14237308A0004C
:101310004F09A0077308A00FCF002008031D162354
:101320007408A0005009A0077408A00FD00020087E
:10133000031D18237508A0003509A0077508A00F24
:10134000B5002008031D65237608A0003509A00715
:101350007608A00FB5002008031D65237708A000BC
:101360003509A0077708A00FB5002008031D6523E5
:101370008A154B284B08F039A000A0092408F03941
:10138000A0070308A200221929222219CB29221C16
:10139000FF21221814224C08F039A000A0092508CA
:1013A000F039A0070308A200221968222219DC29BB
:1013B000221C3E22221853224D08F039A000A00919
:1013C0002608F039A0070308A2002219A722221933
:1013D000ED29221C7D22221892224E08F039A0000D
:1013E000A0092708F039A0070308A2002219E62265
:1013F00022190800221CBC222218D1220800A91997
:10140000092A1D30D2000330D3008A1100228A1528
:10141000A915A91F08000C30D2000230D3008A1190
:1014200027228A15A9130800A91D1E2A1D30D200E3
:101430000330D3008A1127228A15A911A91B08009D
:101440000C30D2000230D3008A1100228A15A9176D
:101450000800A91D332A1D30D2000330D3008A11A1
:1014600027228A15A911A91F08000C30D2000230CA
:10147000D3008A1127228A15A9130800291A482A9D
:101480001830D2000230D3008A1100228A152916A2
:101490002A1C08000D30D2000230D3008A11272206
:1014A0008A152A100800291E5D2A1830D200023041
:1014B000D3008A1127228A1529122A1808000D3014
:1014C000D2000230D3008A1100228A152A140800A3
:1014D000291E722A1830D2000230D3008A11272226
:1014E0008A1529122A1C08000D30D2000230D300C0
:1014F0008A1127228A152A100800A91A872A0A3079
:10150000D2000230D3008A1100228A15A916AA1C23
:1015100008000E30D2000230D3008A1127228A152B
:10152000AA100800A91E9C2A0A30D2000230D3005B
:101530008A1127228A15A912AA1808000E30D20093
:101540000230D3008A1100228A15AA140800A91EAD
:10155000B12A0A30D2000230D3008A1127228A151C
:10156000A912AA1C08000E30D2000230D3008A1142
:1015700027228A15AA100800291BC62A0B30D20080
:101580000230D3008A1100228A1529172A1D08006B
:101590000F30D2000230D3008A1127228A152A1177
:1015A0000800291FDB2A0B30D2000230D3008A1139
:1015B00027228A1529132A1908000F30D200023079
:1015C000D3008A1100228A152A150800291FF02A43
:1015D0000B30D2000230D3008A1127228A1529133A
:1015E0002A1D08000F30D2000230D3008A112722B2
:1015F0008A152A1108003230F700FA007608F80040
:10160000F201F3017808F6002323F1017608F000D7
:1016100070087207F40071080318013E7307F500A3
:101620007408F2007508F300F70B022B7208F00043
:101630007308F100F2017A08F300F401F501322396
:101640007608F60008000310F60DF60DF60DF613F9
:1016500076177615761476089F001F192D2B1E0815
:10166000F6000800F3080319F4080319F508031934
:1016700008007008F9007108FA007208FB00F00118
:10168000F101F2011830FC0003105723031C4D2B0D
:10169000F2007708F1007608F000FC0B452B790D7D
:1016A000F6007A0DF7007B0DF80003110800F90D24
:1016B000FA0DFB0DF00DF10DF20D73087002F6003E
:1016C0000301031C01307407F80103187814710238
:1016D000F7007808031C01307507F8010318781427
:0A16E000720278180310F8000800E9
:00000001FF
