:020000040000FA
:020000001628C0
:08000800AB000308AC000A087C
:10001000D30083018A11472053088A002C088300EB
:100020002B082C1D03112C19031508000430B000F7
:1000300085018601870188018901831640309F0070
:100040002F308500013086000030870000308800A6
:1000500007308900C03081000E088E148312A00082
:10006000FC11A018FC15463092000B163F20FC191D
:100070006F2A7A2A0B1283168C10831208008B10B9
:100080008C1083168C1483120B178B1708003A20E0
:100090008C184E208B185F203F2008007C158B1099
:1000A0000B1608007C118B108C1083168C14831295
:1000B0000B178B17910108007C1D5C28080052204B
:1000C0007C19AE2806186028AE22A922A4010430AB
:1000D000A100A40D06182414061C2410A922A10BAB
:1000E000692806182714061C2710A922A50102302A
:1000F000A100A50D06182514061C2510A922A10B88
:100100007928A6010330A100A60D06182614061CA6
:100110002610A922A10B84280618A714061CA710D4
:10012000A9227C19AE2806189128271CA928300975
:100130002407A000A00FA9282508A0000319B020BB
:10014000A0030319C220A00303191921A003031956
:100150007B2127184E2027180800DD210000080009
:100160002608A100A103A103A103A1030319B92833
:100170000800A71C6512A7186516A71C0512A7186A
:10018000051608002608A100A1030319DA28A10317
:100190000319E328A1030319EC28A1030319F52887
:1001A000A1030319FE28A10303190729A1030319B9
:1001B00010290800A71CE610A718E614A71C861033
:1001C000A71886140800A71C6611A7186615A71C97
:1001D0000611A71806150800A71CE611A718E615B2
:1001E000A71C8611A71886150800A71C6612A71859
:1001F0006616A71C0612A71806160800A71CE6120A
:10020000A718E616A71C8612A71886160800A71CB2
:100210006613A7186617A71C0613A7180617080069
:10022000A71CE613A718E617A71C8613A71886179E
:1002300008002608A10003193329A10303193C294A
:10024000A10303194529A10303194E29A103031989
:100250005729A10303196029A10303196929A103DF
:10026000031972290800A71C6710A7186714A71C98
:100270000710A71807140800A71CE710A718E71411
:10028000A71C8710A71887140800A71C6711A718B8
:100290006715A71C0711A71807150800A71CE71169
:1002A000A718E715A71C8711A71887150800A71C12
:1002B0006712A7186716A71C0712A71807160800C9
:1002C000A71CE712A718E716A71C8712A7188716FE
:1002D0000800A71C6713A7186717A71C0713A71800
:1002E00007170800A71CE713A718E717A71C871311
:1002F000A718871708002608A10003199529A1034C
:1003000003199E29A1030319A729A1030319B029E1
:10031000A1030319B929A1030319C229A1030319D0
:10032000CB29A1030319D4290800A71C6810A7181A
:100330006814A71C0810A71808140800A71CE810C8
:10034000A718E814A71C8810A71888140800A71C71
:100350006811A7186815A71C0811A7180815080028
:10036000A71CE811A718E815A71C8811A71888155D
:100370000800A71C6812A7186816A71C0812A7185F
:1003800008160800A71CE812A718E816A71C881270
:10039000A71888160800A71C6813A7186817A71CB9
:1003A0000813A71808170800A71CE813A718E817D0
:1003B000A71C8813A7188817080030092407A00075
:1003C000A00F08008316061083120614A922061037
:1003D000A9223108A0000830A100A01B0614A01F0C
:1003E0000610A922A00DA10BED290614A9220610C2
:1003F000A9223208A0000830A100A01B0614A01FEB
:100400000610A922A00DA10BFD290614A922061091
:10041000A9223308A0000830A100A01B0614A01FC9
:100420000610A922A00DA10B0D2A0614A922061060
:10043000A9223408A0000830A100A01B0614A01FA8
:100440000610A922A00DA10B1D2A0614A922061030
:10045000A9223508A0000830A100A01B0614A01F87
:100460000610A922A00DA10B2D2A0614A922061000
:10047000A9223608A0000830A100A01B0614A01F66
:100480000610A922A00DA10B3D2A0614A9220610D0
:10049000A9223708A0000830A100A01B0614A01F45
:1004A0000610A922A00DA10B4D2A0614A9220610A0
:1004B000A9223808A0000830A100A01B0614A01F24
:1004C0000610A922A00DA10B5D2A0614A922A922BB
:1004D000A9220610AE2283160614831208006508AE
:1004E0008500660886006708870068088800690834
:1004F0008900802AE501E601E701E801E901802A97
:100500000030BD00B3223D08B1000130BD00B32270
:100510003D08B2000230BD00B3223D08B3000330F5
:10052000BD00B3223D08B4000430BD00B3223D0835
:10053000B5000530BD00B3223D08B6000630BD0051
:10054000B3223D08B7000730BD00B3223D08B80014
:10055000802A5030A300A30BAB2A08001E30A30052
:10056000A30BB02A08003230BE00D0003D08BF0007
:10057000BB01BC013F08BD00DB22BA013D08B90048
:1005800039083B07D1003A080318013E3C07D20066
:100590005108BB005208BC00BE0BBA2A3B08C10080
:1005A0003C08C200C3015008C400C501C601EA22CC
:1005B0004708BD0008000310BD0DBD0DBD0DBD13E6
:1005C0003D173D153D143D089F001F19E52A1E08E3
:1005D000BD000800C4080319C5080319C60803199B
:1005E00008004108CA004208CB004308CC00C10102
:1005F000C201C3011830CD0003100F23031C052BCB
:10060000C3004808C2004708C100CD0BFD2A4A0DAF
:10061000C7004B0DC8004C0DC90003110800CA0DDE
:10062000CB0DCC0DC10DC20DC30D44084102C70056
:100630000301031C01304507C90103184914420294
:10064000C8004908031C01304607C90103184914B2
:0A065000430249180310C900080016
:00000001FF
