:020000040000FA
:020000001628C0
:08000800A6000308A7000A0886
:10001000A80083018A114E2028088A00270883003F
:100020002608271D03112719031508008A110A1233
:1000300085018601870188018901831649309F0067
:100040002F308500013086000030870000308800A6
:10005000013089006400CC3081000E088E148312B8
:10006000A000D911A018D915213090004630920077
:100070003D208A15D919002827288B100B160C1043
:100080008C1083160C148C1483120B178B1708001A
:100090000B1283160C108C108312080048208B184A
:1000A00060200C1859168C1857203D20080059154F
:1000B0000800591191010800591D5C28D326080039
:1000C000000008005818A5206B18AE20DA18D920B7
:1000D0005A19EA20DA19F1205A1A0721DA1A3C21B2
:1000E00064190221EC03031977205912080000005B
:1000F0002F08A4000C30D2000330D300A41AFF2133
:10010000A41A2F16A41E2622A41E2F122F08A40004
:100110000D30D2000330D300241EFF21241EAF1661
:10012000241A2622241AAF120E30D2000330D30034
:100130002F1B26222F130F30D2000330D300AF1B0A
:100140002622AF130930EC000800D703031D080076
:100150000310D80C33260330D7000800DB03031D3F
:100160000800EB0C031CEB130318EB17A101A20111
:100170002D1A2114AD1A22142108A20522182D12BD
:1001800022186113221808132218AD122218E11345
:1001900022188813221C2D16221C6117221C0817F6
:1001A000221CAD16221CE117221C88170830DB0028
:1001B0000800DC03031D08002B111630D2000230AA
:1001C000D3002622AE111A30D2000230D3002622EC
:1001D000DA100800DD03031D0800EC260F30DD00F7
:1001E0000800E303031D0800AB111730D2000230F2
:1001F000D30026222E121B30D2000230D30026223A
:10020000DA110800E503031D080019240800E603BD
:10021000031D08002A121F30D2000330D30026220B
:10022000AA12E01387132A135F110611AA13DF1114
:100230008611AA115F1206122D10DF1286122B10E2
:100240005F130613AD131E30D2000230D3002622F6
:100250002D131C30D2000230D3002622AE121D30E6
:10026000D2000230D30026222E101F30D2000230DE
:10027000D30026225A120800E703031D0800BE25FA
:10028000CD258026DD261430E70008008614D3260D
:100290008610D3267808A0000430A100A019861487
:1002A000A01D8610D326A00DA10B4E290030A00062
:1002B0000730A100201B8614201F8610D326A00D16
:1002C000A10B5A298614D326D326D3268610D826E6
:1002D0008316861483125919FB29861C6B29591918
:1002E000FB2986186F29D826D326F0010830A100F3
:1002F000F00D86187014861C7010D326A10B782977
:100300005919FB2986188029D826D326F1010830EF
:10031000A100F10D86187114861C7110D326A10B53
:1003200089295919FB2986189129D826D326F20143
:100330000830A100F20D86187214861C7210D326A4
:10034000A10B9A295919FB298618A229D826D32648
:10035000F3010830A100F30D86187314861C731086
:10036000D326A10BAB295919FB298618B329D82606
:10037000D326F4010830A100F40D86187414861CED
:100380007410D326A10BBC295919FB298618C4293E
:10039000D826D326F5010830A100F50D861875146E
:1003A000861C7510D326A10BCD295919FB29861857
:1003B000D529D826D326F6010830A100F60D8618D7
:1003C0007614861C7610D326A10BDE295919FB2939
:1003D0008618E629D826D326F7010830A100F70DA4
:1003E00086187714861C7710D326A10BEF2959198C
:1003F000FB298618F72983168610831208008614B5
:10040000D3268610D3265308A0000430A100A019DB
:100410008614A01D8610D326A00DA10B072A8614D2
:10042000D3265208A0000530A100201A8614201EF1
:100430008610D326A00DA10B152A8614D326861468
:10044000D326D326D3268610D32608008614D32697
:100450008610D3265308A0000430A100A0198614EA
:10046000A01D8610D326A00DA10B2E2A8614D326FC
:100470005208A0000530A100201A8614201E861004
:10048000D326A00DA10B3C2A8610D3268614D32692
:10049000D326D3268610D3260800AC1B08000310F1
:1004A0003F0CA0000310A00C0310A00CE030A0042F
:1004B0002008A3005408A306031908002008D4004C
:1004C000A00A03198E24A00A0319F123A00A031914
:1004D0001924A00A03196E24A00A0319EB25A00A07
:1004E0000319DC25A00A0319CA24A00A0319D82479
:1004F000A00A03190B25A00A03191225A00A031943
:10050000AA25A00A0319E824A00A0319F924A00ABD
:1005100003196525A00A03198D25A00A031977255B
:10052000A00A03199F2503103F0CA00020080319FF
:1005300066230800AC1B08000310430CA000031046
:10054000A00C0310A00CE030A0042008A300550864
:10055000A306031908002008D500A00A03193F24A8
:10056000A00A03195526A00A03191925A00A031980
:100570005025A00A0319FA25A00A0319F224A00A9B
:1005800003190225A00A03194226A00A0319CD2542
:10059000A00A03198F26A00A0319BE25A00A031971
:1005A0008026A00A03196E25A00A03199625A00A21
:1005B00003193326A00A03198225A00A03197526F8
:1005C0000310430CA0002008031968230800000052
:1005D00008000000080000000800000008000000FB
:1005E00008000000080000000800000008000000EB
:1005F00008000000080000000800000008000000DB
:1006000008000000080000000800000008000000CA
:1006100008000000080000000800000008000000BA
:100620000800000008000000080000000800AC1BE3
:1006300000000310500CA0000310A00C0310A00C2D
:10064000E030A0042008A3005608A3060319080000
:100650002008D600A00A03191126A00A0319AD2309
:10066000A00A0319D023A00A0319CC26A00A031953
:10067000CC26A00A0319CC26A00A0319CC26A00A6E
:100680000319CC26A00A0319CC26A00A0319CC26EC
:10069000A00A0319CC26A00A0319CC26A00A031924
:1006A000CC26A00A0319CC26A00A0319CC26A00A3E
:1006B0000319CC26A00A0319CC260310500CA00065
:1006C000200803196A230800000008000000080041
:1006D00000000800000008001030D2000230D300F3
:1006E000AC182622AC101130D2000230D3002C19E5
:1006F00026222C111230D2000230D300AC1926224F
:10070000AC111330D2000230D3002C1A26222C1246
:100710001430D2000230D300AC1A2622AC121530AD
:10072000D2000230D3002C1B26222C132D12611371
:100730000813AD12E11388131930D2000330D3002F
:100740002B1A26222B12AB13E11188112B136111E6
:1007500008112C10611208120800AC1B08008E242E
:10076000AC17DF1786176E241F30EB000830DB0054
:100770001630D2000230D3002B1DFF212B15DA14C6
:100780001430DC0033260130D8000830D700AE1317
:10079000E21089100000CA245A150F30DD0008004D
:1007A000AC1F0800AC13DF1386133F246E24073000
:1007B000EB000830DB001730D2000230D300AB1D55
:1007C000FF21AB15DA151430E30033260730D800CB
:1007D0000830D700AE17E214891400005A11D8244B
:1007E0000800641908000314E40D641D0C2C291082
:1007F00060100710A910E010871031151A30D200D0
:100800000330D300FF21B1151B30D2000330D300D9
:10081000FF210F30E5000800E41C152C291460149A
:1008200007142915601507150800A914E01487148A
:100830000800641C08000310E40CE41C322C29148A
:1008400060140714A914E014871431111A30D2006F
:100850000330D3002622B1111B30D2000330D30065
:1008600026220800641C3B2C291060100710291157
:10087000601107110800A910E01087100800DA1EA7
:1008800008001830D2000330D300AD182622AD1076
:100890006E241930D2000230D3002D1926222D11DA
:1008A0001630D2000230D3002B1926222B1117301C
:1008B000D2000230D300AB192622AB111A30D2007D
:1008C0000230D300AE192622AE111930D200033007
:1008D000D3002B1A26222B12DA1208006B182D12C5
:1008E0006B1861136B1808136B18AD126B18E113BA
:1008F0006B1888136B1C2D166B1C61176B1C08176B
:100900006B1CAD166B1CE1176B1C88176B18003045
:100910006B1CFF30EB000830DB000800D918080022
:10092000AB10E01187111730D2000230D300AB19A1
:100930002622AB111B30D2000230D3002E1A262201
:100940002E121630D2000230D3002B1926222B1182
:100950001A30D2000230D300AE192622AE1119305F
:10096000D2000230D3002D1926222D111830D200CA
:100970000330D300AD182622AD10AD11E11288125C
:10098000AE1060120712AB12E11088102E11E012A7
:10099000871208005114B0121530D2000330D30072
:1009A000262230171630D2000330D300FF21080072
:1009B0005110B0161530D2000330D300FF2130178C
:1009C0001630D2000330D3002622080000000800B1
:1009D0002A161F30D2000330D300FF215A160830E8
:1009E000E6000800AA16E01787175A160830E60036
:1009F0000800311A08002A175F1506155A16083024
:100A0000E6000800311A0800AA17DF1586155A16E5
:100A10000830E6000800AA155F1606165A160830B8
:100A2000E60008002D14DF1686165A160830E60078
:100A300008002B145F1706175A160830E600080046
:100A4000000008000000080000000800AC1410308E
:100A5000D2000230D300FF2108002C151130D20043
:100A60000230D300FF210800AC151230D200023052
:100A7000D300FF2108002C161330D2000230D3001F
:100A8000FF210800AC161430D2000230D300FF2141
:100A900008002C171530D2000230D300FF210800C7
:100AA0002E08A400241DE016241D8716241D2E15D3
:100AB0002419E0122419871224192E1108000000AD
:100AC000080000000800000008000800A400F03042
:100AD000A407031C08002408A40008000800A400C0
:100AE000F030A407031C08002408A5000800080033
:100AF00008002608A400F030A407031C08002408FE
:100B0000A6000800080008002708A400F030A40789
:100B1000031C08002408A70008000800A4001030E7
:100B2000A407031808002408A40008000800A40073
:100B30001030A407031808002408A50008000800C6
:100B400008002608A4001030A40703180800240891
:100B5000A6000800311EB32D31121C30D200033024
:100B6000D3002622080031161C30D2000330D300F7
:100B7000FF21080000000800000008001630D20025
:100B80000230D3002B08A400241DFF21241D2B15A7
:100B90002419262224192B1108001730D200023004
:100BA000D3002B08A400A41DFF21A41DAB15A4197C
:100BB0002622A419AB1108002D08A400A41DE116DB
:100BC000A41D8816A41DAD15A419E112A41988123C
:100BD000A419AD1108002B08A400A41CE015A41C46
:100BE0008715A41CAB14A418E011A4188711A4182D
:100BF000AB1008002E08A400A41C6016A41C071645
:100C0000A41CAE14A4186012A4180712A418AE10E5
:100C100008002D16611708170800AD16E117881790
:100C200008002B08A400A41EE114A41E8814A41E0E
:100C3000AB16A41AE110A41A8810A41AAB1208006B
:100C400000000800000008002B161930D200033005
:100C5000D300FF210800AB17E115881508002B17FA
:100C60006115081508001830D2000330D3002D0894
:100C7000A400A41CFF21A41CAD14A4182622A418AF
:100C8000AD1008001930D2000230D3002D08A400A6
:100C9000241DFF21241D2D152419262224192D1170
:100CA00008002C146116081608001830D200033012
:100CB000D300AD1CFF21AD146E241930D2000230D8
:100CC000D3002D1DFF212D151630D2000230D30088
:100CD0002B1DFF212B15DA161E30E700080000003F
:100CE00008000000080000000800080008002708AD
:100CF000A4001030A407031808002408A700080067
:100D00001A30D2000230D3002E08A400A41DFF2107
:100D1000A41DAE15A4192622A419AE1108001B307B
:100D2000D2000230D3002E08A400241EFF21241E6E
:100D30002E16241A2622241A2E120800AD171E3051
:100D4000D2000230D300FF215A160830E600080016
:100D50002D171C30D2000230D300FF215A16083064
:100D6000E6000800AE161D30D2000230D300FF218D
:100D70005A160830E60008002E141F30D200023048
:100D8000D300FF215A160830E600080000000800D2
:100D90000000080000000800000008000530A30063
:100DA000A30BD02E08005030A300A30BD52E0800B3
:100DB0001E30A300A30BDA2E08001930D200033036
:100DC000D3002B08A400241EFF21241E2B16241A56
:100DD0002622241A2B1208001630D2000330D3002A
:100DE0003008A400241FFF21241F3017241B2622B3
:060DF000241B3013080073
:101000008A115E0885005F08860060088700610815
:101010008800620889000E30D2000330D300FF211F
:101020002F170F30D2000330D300FF21AF170C3041
:10103000D2000330D30026222F120D30D20003300D
:10104000D3002622AF121E30EC008A154B288A11DD
:10105000DE01DF01E001E101E201D326AD230C3026
:10106000D2000330D300FF212F160D30D200033001
:10107000D300FF21AF160E30D2000330D30026225A
:101080002F130F30D2000330D3002622AF131E30AF
:10109000EC008A154B288A11640059205C205920E5
:1010A0005C2059205C2059205C20591A62208A1546
:1010B0008A110030F6008A15FB228A117608A000FA
:1010C0003F09A0071E08A00FBF0020088A11031DBA
:1010D0004D220130F6008A15FB228A117608A00005
:1010E0004309A0071E08A00FC30020088A11031D92
:1010F0009A220230F6008A15FB228A117608A00097
:101100003709A0071E08A00FB70020088A11031D89
:10111000E7220330F6008A15FB228A117608A00028
:101120004009A0071E08A00FC00020088A11031D57
:10113000E9220430F6008A15FB228A117608A00005
:101140004109A0071E08A00FC10020088A11031D35
:10115000EB220530F6008A15FB228A117608A000E2
:101160004209A0071E08A00FC20020088A11031D13
:10117000ED2259200230F80046215C207008A000C2
:101180003809A0077008A00FB8002008031DF3223B
:101190007108A0003909A0077108A00FB900200844
:1011A000031DF5227208A0003A09A0077208A00FDB
:1011B000BA002008031DF7227308A0003B09A0070E
:1011C0007308A00FBB002008031DF9227408A000BB
:1011D0003C09A0077408A00FBC002008031DFB22D7
:1011E0007508A0003D09A0077508A00FBD002008E4
:1011F000031DFD227608A0003E09A0077608A00F77
:10120000BE002008031DFF227708A0003609A007B2
:101210007708A00FB6002008031DEF2259200330E5
:10122000F80046215C207008A0004409A00770085F
:10123000A00FC4002008031DF1227108A000450979
:10124000A0077108A00FC5002008031D0123720824
:10125000A0004609A0077208A00FC6002008031DC1
:1012600003237308A0004709A0077308A00FC70055
:101270002008031D05237408A0004809A00774086E
:10128000A00FC8002008031D07237508A000490906
:10129000A0077508A00FC9002008031D09237608C0
:1012A000A0004A09A0077608A00FCA002008031D65
:1012B0000B237708A0004B09A0077708A00FCB00ED
:1012C0002008031D0D2359200430F80046215C201E
:1012D0007008A0004C09A0077008A00FCC002008DF
:1012E000031D0F237108A0004D09A0077108A00F6E
:1012F000CD002008031D11237208A0004E09A0078D
:101300007208A00FCE002008031D13237308A0004D
:101310004F09A0077308A00FCF002008031D152355
:101320007408A0005009A0077408A00FD00020087E
:10133000031D17237508A0003509A0077508A00F25
:10134000B5002008031D64237608A0003509A00716
:101350007608A00FB5002008031D64237708A000BD
:101360003509A0077708A00FB5002008031D6423E6
:101370008A154B284B08F039A000A0092408F03941
:10138000A0070308A200221929222219CB29221C16
:10139000FF21221814224C08F039A000A0092508CA
:1013A000F039A0070308A200221968222219DC29BB
:1013B000221C3E22221853224D08F039A000A00919
:1013C0002608F039A0070308A2002219A722221933
:1013D000ED29221C7D22221892224E08F039A0000D
:1013E000A0092708F039A0070308A2002219E62265
:1013F00022190800221CBC222218D1220800A91997
:10140000092A1D30D2000330D3008A11FF218A152A
:10141000A915A91F08000C30D2000230D3008A1190
:1014200026228A15A9130800A91D1E2A1D30D200E4
:101430000330D3008A1126228A15A911A91B08009E
:101440000C30D2000230D3008A11FF218A15A9176F
:101450000800A91D332A1D30D2000330D3008A11A1
:1014600026228A15A911A91F08000C30D2000230CB
:10147000D3008A1126228A15A9130800291A482A9E
:101480001830D2000230D3008A11FF218A152916A4
:101490002A1C08000D30D2000230D3008A11262207
:1014A0008A152A100800291E5D2A1830D200023041
:1014B000D3008A1126228A1529122A1808000D3015
:1014C000D2000230D3008A11FF218A152A140800A5
:1014D000291E722A1830D2000230D3008A11262227
:1014E0008A1529122A1C08000D30D2000230D300C0
:1014F0008A1126228A152A100800A91A872A0A307A
:10150000D2000230D3008A11FF218A15A916AA1C25
:1015100008000E30D2000230D3008A1126228A152C
:10152000AA100800A91E9C2A0A30D2000230D3005B
:101530008A1126228A15A912AA1808000E30D20094
:101540000230D3008A11FF218A15AA140800A91EAF
:10155000B12A0A30D2000230D3008A1126228A151D
:10156000A912AA1C08000E30D2000230D3008A1142
:1015700026228A15AA100800291BC62A0B30D20081
:101580000230D3008A11FF218A1529172A1D08006D
:101590000F30D2000230D3008A1126228A152A1178
:1015A0000800291FDB2A0B30D2000230D3008A1139
:1015B00026228A1529132A1908000F30D20002307A
:1015C000D3008A11FF218A152A150800291FF02A45
:1015D0000B30D2000230D3008A1126228A1529133B
:1015E0002A1D08000F30D2000230D3008A112622B3
:1015F0008A152A1108003230F700FA007608F80040
:10160000F201F3017808F6002323F1017608F000D7
:1016100070087207F40071080318013E7307F500A3
:101620007408F2007508F300F70B022B7208F00043
:101630007308F100F2017A08F300F401F501322396
:101640007608F60008000310F60DF60DF60DF613F9
:1016500076177615761476089F001F192D2B1E0815
:10166000F6000800F3080319F4080319F508031934
:1016700008007008F9007108FA007208FB00F00118
:10168000F101F2011830FC0003105723031C4D2B0D
:10169000F2007708F1007608F000FC0B452B790D7D
:1016A000F6007A0DF7007B0DF80003110800F90D24
:1016B000FA0DFB0DF00DF10DF20D73087002F6003E
:1016C0000301031C01307407F80103187814710238
:1016D000F7007808031C01307507F8010318781427
:0A16E000720278180310F8000800E9
:00000001FF
