:020000040000FA
:020000001228C4
:08000800A6000A0EA800030E79
:10001000A70083018A113A20270E8300280E8A0048
:10002000260E0800831603308E0049309F002F30C3
:1000300085000130860000308700003088000130E4
:100040008900C730810083124630920029208A152A
:1000500000288B100B160B118B168C1083168C142A
:1000600083120B178B1708000B128B1283168C1040
:100070008312080034208B184C200B1959148C184B
:100080004320292008005915080059119101080042
:10009000591D4828872608000000080058186020CD
:1000A0006E186920DA188C205A199D20DA19A420BC
:1000B0005A1ABA20DA1AE9206719B520591008002F
:1000C000D703031D08000310D80CE1250330D70027
:1000D0000800DB03031D0800EE0C031CEE130318DD
:1000E000EE17A101A2012D1A2114AD1A2214210824
:1000F000A20522182D12221808132218AD12221858
:100100008813221C2D16221C0817221CAD16221C37
:1001100088170830DB000800DC03031D08002B11E2
:100120001630D2000230D300D421AE111A30D200E2
:100130000230D300D421DA100800DD03031D0800CB
:10014000A0260F30DD000800E603031D0800AB11F8
:100150001730D2000230D300D4212E121B30D2002F
:100160000230D300D421DA110800E803031D08008F
:10017000F0230800E903031D08002A121F30D200F3
:100180000330D300D421AA1287132A130611AA130D
:100190008611AA1106122D1086122B100613AD130C
:1001A0001E30D2000230D300D4212D131C30D200D7
:1001B0000230D300D421AE121D30D2000230D30061
:1001C000D4212E101F30D2000230D300D4215A1275
:1001D0000800EA03031D080080258F2534264326E6
:1001E00091261430EA000800861487268610872698
:1001F0007808A0000430A100A0198614A01D861064
:100200008726A00DA10BFC280030A0000730A1001C
:10021000201B8614201F86108726A00DA10B0829FD
:10022000861487268726872686108C2683168614B2
:1002300083125919A929861C19295919A92986181F
:100240001D298C268726F0010830A100F00D8618A4
:100250007014861C70108726A10B26295919A9290C
:1002600086182E298C268726F1010830A100F10D71
:1002700086187114861C71108726A10B372959190D
:10028000A92986183F298C268726F2010830A1006B
:10029000F20D86187214861C72108726A10B48294D
:1002A0005919A929861850298C268726F301083068
:1002B000A100F30D86187314861C73108726A10BFA
:1002C00059295919A929861861298C268726F401EC
:1002D0000830A100F40D86187414861C741087264B
:1002E000A10B6A295919A929861872298C268726F3
:1002F000F5010830A100F50D86187514861C7510DF
:100300008726A10B7B295919A929861883298C26B0
:100310008726F6010830A100F60D86187614861C93
:1003200076108726A10B8C295919A929861894299A
:100330008C268726F7010830A100F70D8618771460
:10034000861C77108726A10B9D295919A929861883
:10035000A529831686108312080086148726861026
:1003600087265308A0000430A100A0198614A01D00
:1003700086108726A00DA10BB52986148726520862
:10038000A0000530A100201A8614201E86108726A2
:10039000A00DA10BC32986148726861487268726DD
:1003A00087268610872608008614872686108726CB
:1003B0005308A0000430A100A0198614A01D8610C7
:1003C0008726A00DA10BDC29861487265208A000E1
:1003D0000530A100201A8614201E86108726A00D45
:1003E000A10BEA298610872686148726872687266A
:1003F000861087260800AC1B080003103F0CA000E5
:100400000310A00C0310A00CE030A0042008A300EF
:100410005408A306031908002008D400A00A0319F1
:100420005F24A00A0319CD23A00A0319F023A00A10
:1004300003194724A00A0319A925A00A03199E2518
:10044000A00A03199624A00A0319A424A00A0319D8
:10045000D424A00A0319DA24A00A03196C25A00ADF
:100460000319B424A00A0319C424A00A03192725D8
:10047000A00A03194F25A00A03193925A00A031958
:10048000612503103F0CA000200803191423080065
:10049000AC1B08000310430CA0000310A00C0310B9
:1004A000A00CE030A0042008A3005508A3060319FF
:1004B00008002008D500A00A03191124A00A031976
:1004C0000226A00A0319E024A00A03191625A00A8F
:1004D0000319B425A00A0319BE24A00A0319CC24C9
:1004E000A00A0319F025A00A03198F25A00A0319F1
:1004F0004326A00A03198025A00A03193426A00A5E
:1005000003193025A00A03195825A00A0319E1256B
:10051000A00A03194425A00A031929260310430C35
:10052000A00020080319162308000000080000009E
:10053000080000000800000008000000080000009B
:10054000080000000800000008000000080000008B
:10055000080000000800000008000000080000007B
:10056000080000000800000008000000080000006B
:10057000080000000800000008000000080000005B
:1005800008000000080000000800AC1B0000031079
:10059000500CA0000310A00C0310A00CE030A0042D
:1005A0002008A3005608A306031908002008D60057
:1005B000A00A0319C525A00A03195623A00A031986
:1005C0009F23A00A03198026A00A03198026A00AE7
:1005D00003198026A00A03198026A00A0319802681
:1005E000A00A03198026A00A03198026A00A03196D
:1005F0008026A00A03198026A00A03198026A00AD3
:1006000003198026A00A03198026A00A0319802650
:10061000A00A031980260310500CA000200803191B
:10062000182308000000080000000800000008006F
:10063000000008001030D2000230D300AC18D421E2
:10064000AC101130D2000230D3002C19D4212C115F
:100650001230D2000230D300AC19D421AC111330C7
:10066000D2000230D3002C1AD4212C121430D20024
:100670000230D300AC1AD421AC121530D2000230B3
:10068000D3002C1BD4212C132D120813AD12881368
:100690001930D2000330D3002B1AD4212B12AB1304
:1006A00088112B1308112C10081208005818080084
:1006B0003C08450446044704480449044A04A5008C
:1006C000A51B0000A51BE125A51B1F30A51BD800FD
:1006D000A51B0330A51BD7005F24AC178617472442
:1006E0001F30EE000830DB001630D2000230D3009D
:1006F0002B1DAD212B151A30D2000230D300AE1DB8
:10070000AD21AE15DA141E30DC00E1250130D80031
:100710000830D700AE138910000096245A150F3008
:10072000DD004B08DE004C08DF004D08E0004E08FD
:10073000E1000030E200E300E400E50008005818A2
:100740000800AC138613112447240730EE0008304C
:10075000DB001730D2000230D300AB1DAD21AB154A
:100760001B30D2000230D3002E1EAD212E16DA151A
:100770001E30E600E1250730D8000830D700AE175C
:10078000891400005A11A4245E08E2005F08E30007
:100790006008E4006108E500080067190800031418
:1007A000E70D671DE62B29100710A91087103115DA
:1007B0001A30D2000330D300AD21B1151B30D20066
:1007C0000330D300AD211430E8000800E71CED2B06
:1007D00029140714291507150800A91487140800FF
:1007E000671C08000310E70CE71C072C29140714EA
:1007F000A914871431111A30D2000330D300D42148
:10080000B1111B30D2000330D300D4210800671C83
:100810000E2C29100710291107110800A9108710A4
:100820000800DA1E08001830D2000330D300AD18DB
:10083000D421AD1047241930D2000230D3002D1935
:10084000D4212D111630D2000230D3002B19D4211F
:100850002B111730D2000230D300AB19D421AB11C9
:100860001A30D2000230D300AE19D421AE111B30A1
:10087000D2000230D3002E1AD4212E121930D20009
:100880000330D3002B1AD4212B12DA1208006E1871
:100890002D126E1808136E18AD126E1888136E1C88
:1008A0002D166E1C08176E1CAD166E1C88176E1860
:1008B00000306E1CFF30EE000830DB000800D91855
:1008C0000800AB1087111730D2000230D300AB19EB
:1008D000D421AB111B30D2000230D3002E1AD42108
:1008E0002E121630D2000230D3002B19D4212B1136
:1008F0001A30D2000230D300AE19D421AE11193013
:10090000D2000230D3002D19D4212D111830D2007D
:100910000330D300AD18D421AD10AD118812AE1044
:100920000712AB1288102E11871208005114B01252
:100930001530D2000330D300D42130171630D20046
:100940000330D300AD2108005110B0161530D2008D
:100950000330D300AD2130171630D2000330D3005E
:10096000D4210800000008002A161F30D2000330EE
:10097000D300AD215A160830E9000800AA168717DF
:100980005A160830E9000800311A08002A1706151F
:100990005A160830E9000800311A0800AA1786150F
:1009A0005A160830E9000800AA1506165A1608302B
:1009B000E90008002D1486165A160830E9000800D0
:1009C0002B1406175A160830E9000800000008002A
:1009D0000000080000000800AC141030D200023003
:1009E000D300AD2108002C151130D2000230D30005
:1009F000AD210800AC151230D2000230D300AD2179
:100A000008002C161330D2000230D300AD210800AC
:100A1000AC161430D2000230D300AD2108002C17E0
:100A20001530D2000230D300AD2108002E08A400FA
:100A3000241D8716241D2E152419871224192E1102
:100A4000080000000800000008000000080062081C
:100A5000A400F030A407031C08002408E2000800EA
:100A60006308A400F030A407031C08002408E30076
:100A70000800311A08006408A400F030A407031C21
:100A800008002408E4000800311A08006508A400E2
:100A9000F030A407031C08002408E50008006208E1
:100AA000A4001030A407031808002408E20008007E
:100AB0006308A4001030A407031808002408E3000A
:100AC0000800311A08006408A4001030A4070318B5
:100AD00008002408E4000800311E752D31121C3076
:100AE000D2000330D300D421080031161C30D200CC
:100AF0000330D300AD21080000000800000008000A
:100B00001630D2000230D3002B08A400241DAD21E2
:100B1000241D2B152419D42124192B11080017305A
:100B2000D2000230D3002B08A400A41DAD21A41DC7
:100B3000AB15A419D421A419AB1108002D08A400E9
:100B4000A41D8816A41DAD15A4198812A419AD11F1
:100B500008002B08A400A41C8715A41CAB14A4181F
:100B60008711A418AB1008002E08A400A41C0716B7
:100B7000A41CAE14A4180712A418AE1008002D1659
:100B800008170800AD16881708002B08A400A41E3B
:100B90008814A41EAB16A41A8810A41AAB1208005D
:100BA00000000800000008002B161930D2000330A6
:100BB000D300AD210800AB17881508002B170815C6
:100BC00008001830D2000330D3002D08A400A41C64
:100BD000AD21A41CAD14A418D421A418AD10080094
:100BE0001930D2000230D3002D08A400241DAD21FD
:100BF000241D2D152419D42124192D1108002C147D
:100C0000081608001830D2000330D300AD1CAD2107
:100C1000AD1447241930D2000230D3002D1DAD2170
:100C20002D151630D2000230D3002B1DAD212B150F
:100C30001B30D2000230D3002E1EAD212E16DA1644
:100C40001E30EA0008000000080000000800000054
:100C50000800311A08006508A4001030A407031822
:100C600008002408E50008001A30D2000230D30042
:100C70002E08A400A41DAD21A41DAE15A419D421D5
:100C8000A419AE1108001B30D2000230D3002E0888
:100C9000A400241EAD21241E2E16241AD421241AA9
:100CA0002E120800AD171E30D2000230D300AD2145
:100CB0005A160830E90008002D171C30D200023007
:100CC000D300AD215A160830E9000800AE161D30D9
:100CD000D2000230D300AD215A160830E9000800D6
:100CE0002E141F30D2000230D300AD215A16083026
:100CF000E9000800000008000000080000000800EB
:100D0000000008000530A300A30B842E080050301B
:100D1000A300A30B892E08001E30A300A30B8E2E68
:100D200008001930D2000330D3002B08A400241E81
:100D3000AD21241E2B16241AD421241A2B120800AC
:100D40001630D2000330D3003008A400241FAD2198
:0E0D5000241F3017241BD421241B301308004D
:101000008A11452048204520482045204820452079
:10101000482059184E208A158A110030F6008A158A
:10102000AF228A117608A0003F09A0071E08A00F72
:10103000BF0020088A11031DFB210130F6008A152C
:10104000AF228A117608A0004309A0071E08A00F4E
:10105000C30020088A11031D48220230F6008A15B9
:10106000AF228A117608A0003709A0071E08A00F3A
:10107000B70020088A11031D95220330F6008A1557
:10108000AF228A117608A0004009A0071E08A00F11
:10109000C00020088A11031D97220430F6008A152B
:1010A000AF228A117608A0004109A0071E08A00FF0
:1010B000C10020088A11031D99220530F6008A1507
:1010C000AF228A117608A0004209A0071E08A00FCF
:1010D000C20020088A11031D9B2245200230F8001F
:1010E000F42048207008A0003809A0077008A00F5D
:1010F000B8002008031DA1227108A0003909A0072B
:101100007108A00FB9002008031DA3227208A000D7
:101110003A09A0077208A00FBA002008031DA522F3
:101120007308A0003B09A0077308A00FBB002008AC
:10113000031DA7227408A0003C09A0077408A00F93
:10114000BC002008031DA9227508A0003D09A007C6
:101150007508A00FBD002008031DAB227608A00073
:101160003E09A0077608A00FBE002008031DAD228F
:101170007708A0003609A0077708A00FB60020085E
:10118000031D9D2245200330F800F42048207008FC
:10119000A0004409A0077008A00FC4002008031D88
:1011A0009F227108A0004509A0077108A00FC50083
:1011B0002008031DAF227208A0004609A00772088C
:1011C000A00FC6002008031DB1227308A000470924
:1011D000A0077308A00FC7002008031DB3227408DE
:1011E000A0004809A0077408A00FC8002008031D2C
:1011F000B5227508A0004909A0077508A00FC9000D
:101200002008031DB7227608A0004A09A007760827
:10121000A00FCA002008031DB9227708A0004B09BF
:10122000A0077708A00FCB002008031DBB22452094
:101230000430F800F42048207008A0004C09A007F2
:101240007008A00FCC002008031DBD227108A0006B
:101250004D09A0077108A00FCD002008031DBF2273
:101260007208A0004E09A0077208A00FCE00200847
:10127000031DC1227308A0004F09A0077308A00F27
:10128000CF002008031DC3227408A0005009A00746
:101290007408A00FD0002008031DC5227508A00007
:1012A0003509A0077508A00FB5002008031D1223FB
:1012B0007608A0003509A0077608A00FB500200821
:1012C000031D12237708A0003509A0077708A00F97
:1012D000B5002008031D12238A1500284B08F03999
:1012E000A000A0096208F039A0070308A200221993
:1012F000DD2122197F29221CB3212218C8214C0884
:10130000F039A000A0096308F039A0070308A20083
:1013100022191C2222199029221CF22122180722AC
:101320004D08F039A000A0096408F039A0070308AF
:10133000A20022195B222219A129221C3122221883
:1013400046224E08F039A000A0096508F039A00730
:101350000308A20022199A2222190800221C7022D6
:10136000221885220800A919BD291D30D20003309A
:10137000D3008A11AD218A15A915A91F08000C30C8
:10138000D2000230D3008A11D4218A15A913080093
:10139000A91DD2291D30D2000330D3008A11D421D7
:1013A0008A15A911A91B08000C30D2000230D30005
:1013B0008A11AD218A15A9170800A91DE7291D303A
:1013C000D2000330D3008A11D4218A15A911A91F94
:1013D00008000C30D2000230D3008A11D4218A15C3
:1013E000A9130800291AFC291830D2000230D300B2
:1013F0008A11AD218A1529162A1C08000D30D20049
:101400000230D3008A11D4218A152A100800291E1F
:10141000112A1830D2000230D3008A11D4218A1543
:1014200029122A1808000D30D2000230D3008A1188
:10143000AD218A152A140800291E262A1830D20048
:101440000230D3008A11D4218A1529122A1C0800DF
:101450000D30D2000230D3008A11D4218A152A100F
:101460000800A91A3B2A0A30D2000230D3008A11A0
:10147000AD218A15A916AA1C08000E30D200023030
:10148000D3008A11D4218A15AA100800A91E502A57
:101490000A30D2000230D3008A11D4218A15A91251
:1014A000AA1808000E30D2000230D3008A11AD21F4
:1014B0008A15AA140800A91E652A0A30D200023033
:1014C000D3008A11D4218A15A912AA1C08000E3053
:1014D000D2000230D3008A11D4218A15AA10080044
:1014E000291B7A2A0B30D2000230D3008A11AD2199
:1014F0008A1529172A1D08000F30D2000230D300A8
:101500008A11D4218A152A110800291F8F2A0B302D
:10151000D2000230D3008A11D4218A1529132A1946
:1015200008000F30D2000230D3008A11AD218A1595
:101530002A150800291FA42A0B30D2000230D3003C
:101540008A11D4218A1529132A1D08000F30D200D0
:101550000230D3008A11D4218A152A1108003230B2
:10156000F700FA007608F800F201F3017808F600B7
:10157000D722F1017608F00070087207F4007108B4
:101580000318013E7307F5007408F2007508F300B4
:10159000F70BB62A7208F0007308F100F2017A081E
:1015A000F300F401F501E6227608F60008000310C6
:1015B000F60DF60DF60DF6137617761576147608F9
:1015C0009F001F19E12A1E08F6000800F3080319FE
:1015D000F4080319F508031908007008F9007108E8
:1015E000FA007208FB00F001F101F2011830FC0072
:1015F00003100B23031C012BF2007708F10076087F
:10160000F000FC0BF92A790DF6007A0DF7007B0D3E
:10161000F80003110800F90DFA0DFB0DF00DF10DA6
:10162000F20D73087002F6000301031C0130740709
:10163000F801031878147102F7007808031C0130D0
:101640007507F80103187814720278180310F8006F
:02165000080090
:00000001FF
