:020000040000FA
:020000001628C0
:08000800A6000308A7000A0886
:10001000A80083018A11512028088A00270883003C
:100020002608271D03112719031508008A110A1233
:1000300085018601870188018901831649309F0067
:100040002F308500013086000030870000308800A6
:10005000013089006400CC3081000E088E148312B8
:10006000A000D911A018D915213090004630920077
:100070003D208A15D919002819288B100B160B1151
:100080008B160C108C1083160C148C1483120B1707
:100090008B1708000B128B1283160C108C10831216
:1000A00008004A208B1865200B1959140C18591692
:1000B0008C185C203D200800591508005911910149
:1000C0000800591D6128DB26080000000800000018
:1000D0005910080058187C206B188520DA18B020B9
:1000E0005A19C120DA19C8205A1ADE20DA1A132147
:1000F0006419D92059120800D703031D0800031002
:10010000D80C34260330D7000800DB03031D080099
:10011000EB0C031CEB130318EB17A101A2012D1A22
:100120002114AD1A22142108A20522182D1222181A
:100130006113221808132218AD122218E113221895
:100140008813221C2D16221C6117221C0817221C42
:10015000AD16221CE117221C88170830DB000800AE
:10016000DC03031D08002B111630D2000230D3002F
:10017000FE21AE111A30D2000230D300FE21DA1077
:100180000800DD03031D0800F4260F30DD00080021
:10019000E303031D0800AB111730D2000230D30077
:1001A000FE212E121B30D2000230D300FE21DA11C4
:1001B0000800E503031D080013240800E603031DDF
:1001C00008002A121F30D2000330D300FE21AA12E9
:1001D000E01387132A135F110611AA13DF1186118A
:1001E000AA115F1206122D10DF1286122B105F1358
:1001F0000613AD131E30D2000230D300FE212D13A2
:100200001C30D2000230D300FE21AE121D30D200CD
:100210000230D300FE212E101F30D2000230D30056
:10022000FE215A120800E703031D0800BF25CE2552
:1002300088269726E5261430E70008008614DB267A
:100240008610DB267808A0000430A100A0198614CF
:10025000A01D8610DB26A00DA10B26290030A000D2
:100260000730A100201B8614201F8610DB26A00D5E
:10027000A10B32298614DB26DB26DB268610E0263E
:100280008316861483125919D329861C43295919B8
:10029000D32986184729E026DB26F0010830A10083
:1002A000F00D86187014861C7010DB26A10B5029E7
:1002B0005919D32986185829E026DB26F101083080
:1002C000A100F10D86187114861C7110DB26A10B9C
:1002D00061295919D32986186929E026DB26F201FC
:1002E0000830A100F20D86187214861C7210DB26ED
:1002F000A10B72295919D32986187A29E026DB2601
:10030000F3010830A100F30D86187314861C7310D6
:10031000DB26A10B83295919D32986188B29E026BE
:10032000DB26F4010830A100F40D86187414861C35
:100330007410DB26A10B94295919D32986189C29FE
:10034000E026DB26F5010830A100F50D86187514AE
:10035000861C7510DB26A10BA5295919D3298618EF
:10036000AD29E026DB26F6010830A100F60D86183F
:100370007614861C7610DB26A10BB6295919D329D1
:100380008618BE29E026DB26F7010830A100F70D0C
:1003900086187714861C7710DB26A10BC7295919FC
:1003A000D3298618CF298316861083120800861455
:1003B000DB268610DB265308A0000430A100A0191C
:1003C0008614A01D8610DB26A00DA10BDF29861444
:1003D000DB265208A0000530A100201A8614201E3A
:1003E0008610DB26A00DA10BED298614DB268614D2
:1003F000DB26DB26DB268610DB2608008614DB26C0
:100400008610DB265308A0000430A100A019861432
:10041000A01D8610DB26A00DA10B062A8614DB2664
:100420005208A0000530A100201A8614201E861054
:10043000DB26A00DA10B142A8610DB268614DB26F2
:10044000DB26DB268610DB260800AC1B0800031029
:100450003F0CA0000310A00C0310A00CE030A0047F
:100460002008A3005408A306031908002008D4009C
:10047000A00A03198F24A00A0319EB23A00A031969
:100480001324A00A03196F24A00A0319EC25A00A5B
:100490000319DD25A00A0319CB24A00A0319D924C6
:1004A000A00A03190C25A00A03191325A00A031991
:1004B000AB25A00A0319E924A00A0319FA24A00A0B
:1004C00003196625A00A03198E25A00A03197825A9
:1004D000A00A0319A02503103F0CA000200803194F
:1004E0003E230800AC1B08000310430CA0000310BF
:1004F000A00C0310A00CE030A0042008A3005508B5
:10050000A306031908002008D500A00A03193924FE
:10051000A00A03195626A00A03191A25A00A0319CE
:100520005125A00A0319FB25A00A0319F324A00AE8
:1005300003190325A00A03194326A00A0319CE258F
:10054000A00A03199726A00A0319BF25A00A0319B8
:100550008826A00A03196F25A00A03199725A00A67
:1005600003193426A00A03198325A00A03197D263E
:100570000310430CA00020080319402308000000CA
:10058000080000000800000008000000080000004B
:10059000080000000800000008000000080000003B
:1005A000080000000800000008000000080000002B
:1005B000080000000800000008000000080000001B
:1005C000080000000800000008000000080000000B
:1005D0000800000008000000080000000800AC1B34
:1005E00000000310500CA0000310A00C0310A00C7E
:1005F000E030A0042008A3005608A3060319080051
:100600002008D600A00A03191226A00A0319852380
:10061000A00A0319C323A00A0319D426A00A0319A8
:10062000D426A00A0319D426A00A0319D426A00AA6
:100630000319D426A00A0319D426A00A0319D42624
:10064000A00A0319D426A00A0319D426A00A031964
:10065000D426A00A0319D426A00A0319D426A00A76
:100660000319D426A00A0319D4260310500CA000A5
:1006700020080319422308000000080000000800B9
:1006800000000800000008001030D2000230D30043
:10069000AC18FE21AC101130D2000230D3002C195E
:1006A000FE212C111230D2000230D300AC19FE21F1
:1006B000AC111330D2000230D3002C1AFE212C12C0
:1006C0001430D2000230D300AC1AFE21AC12153027
:1006D000D2000230D3002C1BFE212C132D126113EB
:1006E0000813AD12E11388131930D2000330D30080
:1006F0002B1AFE212B12AB13E11188112B13611160
:1007000008112C10611208120800581808003C0843
:10071000450446044704480449044A04A500A51BAF
:100720000000A51B3426A51B1F30A51BD800A51B48
:100730000330A51BD7008F24AC17DF1786176F2453
:100740001F30EB000830DB001630D2000230D3003F
:100750002B1DD7212B151A30D2000230D300AE1D2D
:10076000D721AE15DA141E30DC0034260130D80053
:100770000830D700AE13E21089100000CB245A15C0
:100780000F30DD00080058180800AC13DF13861383
:1007900039246F240730EB000830DB001730D2001B
:1007A0000230D300AB1DD721AB151B30D200023075
:1007B000D3002E1ED7212E16DA151E30E300342664
:1007C0000730D8000830D700AE17E21489140000B3
:1007D0005A11D9240800641908000314E40D641D9B
:1007E000062C291060100710A910E0108710311591
:1007F0001A30D2000330D300D721B1151B30D200FC
:100800000330D300D7211430E5000800E41C0F2C7E
:100810002914601407142915601507150800A91478
:10082000E01487140800641C08000310E40CE41CA6
:100830002C2C291460140714A914E0148714311106
:100840001A30D2000330D300FE21B1111B30D20088
:100850000330D300FE210800641C352C29106010E1
:1008600007102911601107110800A910E010871066
:100870000800DA1E08001830D2000330D300AD188B
:10088000FE21AD106F241930D2000230D3002D1993
:10089000FE212D111630D2000230D3002B19FE217B
:1008A0002B111730D2000230D300AB19FE21AB114F
:1008B0001A30D2000230D300AE19FE21AE111B3027
:1008C000D2000230D3002E1AFE212E121930D2008F
:1008D0000330D3002B1AFE212B12DA1208006B18FA
:1008E0002D126B1861136B1808136B18AD126B186F
:1008F000E1136B1888136B1C2D166B1C61176B1C96
:1009000008176B1CAD166B1CE1176B1C88176B1856
:1009100000306B1CFF30EB000830DB000800D918FA
:100920000800AB10E01187111730D2000230D3005D
:10093000AB19FE21AB111B30D2000230D3002E1AAE
:10094000FE212E121630D2000230D3002B19FE21C8
:100950002B111A30D2000230D300AE19FE21AE1195
:100960001930D2000230D3002D19FE212D1118307C
:10097000D2000330D300AD18FE21AD10AD11E1124D
:100980008812AE1060120712AB12E11088102E11FF
:10099000E012871208005114B0121530D200033053
:1009A000D300FE2130171630D2000330D300D721F8
:1009B00008005110B0161530D2000330D300D721F3
:1009C00030171630D2000330D300FE21080000009B
:1009D00008002A161F30D2000330D300D7215A1640
:1009E0000830E6000800AA16E01787175A160830E4
:1009F000E6000800311A08002A175F1506155A1676
:100A00000830E6000800311A0800AA17DF1586151D
:100A10005A160830E6000800AA155F1606165A1680
:100A20000830E60008002D14DF1686165A16083026
:100A3000E60008002B145F1706175A160830E60068
:100A40000800000008000000080000000800AC14C6
:100A50001030D2000230D300D72108002C151130FD
:100A6000D2000230D300D7210800AC151230D200DA
:100A70000230D300D72108002C161330D2000230E8
:100A8000D300D7210800AC161430D2000230D300B6
:100A9000D72108002C171530D2000230D300D721FF
:100AA00008002E08A400241DE016241D8716241D0E
:100AB0002E152419E0122419871224192E1108006A
:100AC0000000080000000800000008000800A40062
:100AD000F030A407031C08002408A4000800080044
:100AE000A400F030A407031C08002408A500080097
:100AF000080008002608A400F030A407031C080022
:100B00002408A6000800080008002708A400F03008
:100B1000A407031C08002408A70008000800A4007C
:100B20001030A407031808002408A40008000800D7
:100B3000A4001030A407031808002408A50008002A
:100B4000080008002608A4001030A40703180800B5
:100B50002408A6000800311EB42D31121C30D2002A
:100B60000330D300FE21080031161C30D2000330C0
:100B7000D300D7210800000008000000080016304C
:100B8000D2000230D3002B08A400241DD721241D3D
:100B90002B152419FE2124192B1108001730D2001F
:100BA0000230D3002B08A400A41DD721A41DAB152F
:100BB000A419FE21A419AB1108002D08A400A41D3E
:100BC000E116A41D8816A41DAD15A419E112A419DF
:100BD0008812A419AD1108002B08A400A41CE0156C
:100BE000A41C8715A41CAB14A418E011A418871129
:100BF000A418AB1008002E08A400A41C6016A41CA6
:100C00000716A41CAE14A4186012A4180712A41886
:100C1000AE1008002D16611708170800AD16E11771
:100C2000881708002B08A400A41EE114A41E881431
:100C3000A41EAB16A41AE110A41A8810A41AAB12B1
:100C4000080000000800000008002B161930D20030
:100C50000330D300D7210800AB17E1158815080031
:100C60002B176115081508001830D2000330D30087
:100C70002D08A400A41CD721A41CAD14A418FE2187
:100C8000A418AD1008001930D2000230D3002D088E
:100C9000A400241DD721241D2D152419FE2124195B
:100CA0002D1108002C146116081608001830D20007
:100CB0000330D300AD1CD721AD146F241930D200FE
:100CC0000230D3002D1DD7212D151630D200023051
:100CD000D3002B1DD7212B151B30D2000230D3009F
:100CE0002E1ED7212E16DA161E30E700080000004F
:100CF000080000000800000008000800080027089D
:100D0000A4001030A407031808002408A700080056
:100D10001A30D2000230D3002E08A400A41DD7211F
:100D2000A41DAE15A419FE21A419AE1108001B3094
:100D3000D2000230D3002E08A400241ED721241E86
:100D40002E16241AFE21241A2E120800AD171E306A
:100D5000D2000230D300D7215A160830E60008002E
:100D60002D171C30D2000230D300D7215A1608307C
:100D7000E6000800AE161D30D2000230D300D721A5
:100D80005A160830E60008002E141F30D200023038
:100D9000D300D7215A160830E600080000000800EA
:100DA0000000080000000800000008000530A30053
:100DB000A30BD82E08005030A300A30BDD2E080093
:100DC0001E30A300A30BE22E08001930D20003301E
:100DD000D3002B08A400241ED721241E2B16241A6E
:100DE000FE21241A2B1208001630D2000330D30043
:100DF0003008A400241FD721241F3017241BFE21F4
:060E0000241B3013080062
:101000008A115E0885005F08860060088700610815
:101010008800620889000E30D2000330D300D72147
:101020002F170F30D2000330D300D721AF178A1506
:101030002E288A11DE01DF01E001E101E2018523B2
:101040000C30D2000330D300D7212F160D30D20040
:101050000330D300D721AF168A152E288A116400D9
:101060005E2061205E2061205E2061205E20612084
:10107000591A6A208A158A110030F6008A15DE2274
:101080008A117608A0003F09A0071E08A00FBF0024
:1010900020088A11031D25220130F6008A15DE2260
:1010A0008A117608A0004309A0071E08A00FC300FC
:1010B00020088A11031D72220230F6008A15DE22F2
:1010C0008A117608A0003709A0071E08A00FB700F4
:1010D00020088A11031DBF220330F6008A15DE2284
:1010E0008A117608A0004009A0071E08A00FC000C2
:1010F00020088A11031DC1220430F6008A15DE2261
:101100008A117608A0004109A0071E08A00FC1009F
:1011100020088A11031DC3220530F6008A15DE223D
:101120008A117608A0004209A0071E08A00FC2007D
:1011300020088A11031DC5225E200230F8001E21FE
:1011400061207008A0003809A0077008A00FB8003F
:101150002008031DCB227108A0003909A0077108DF
:10116000A00FB9002008031DCD227208A0003A0983
:10117000A0077208A00FBA002008031DCF22730831
:10118000A0003B09A0077308A00FBB002008031DA7
:10119000D1227408A0003C09A0077408A00FBC006D
:1011A0002008031DD3227508A0003D09A00775087B
:1011B000A00FBD002008031DD5227608A0003E091F
:1011C000A0077608A00FBE002008031DD7227708CD
:1011D000A0003609A0077708A00FB6002008031D5D
:1011E000C7225E200330F8001E2161207008A00095
:1011F0004409A0077008A00FC4002008031DC922DD
:101200007108A0004509A0077108A00FC5002008BB
:10121000031DD9227208A0004609A0077208A00F7A
:10122000C6002008031DDB227308A0004709A007A1
:101230007308A00FC7002008031DDD227408A0005A
:101240004809A0077408A00FC8002008031DDF226A
:101250007508A0004909A0077508A00FC90020085B
:10126000031DE1227608A0004A09A0077608A00F16
:10127000CA002008031DE3227708A0004B09A0073D
:101280007708A00FCB002008031DE5225E20043064
:10129000F8001E2161207008A0004C09A00770080A
:1012A000A00FCC002008031DE7227108A0004D0903
:1012B000A0077108A00FCD002008031DE9227208C5
:1012C000A0004E09A0077208A00FCE002008031D41
:1012D000EB227308A0004F09A0077308A00FCF00EE
:1012E0002008031DED227408A0005009A00774080F
:1012F000A00FD0002008031DEF227508A0003509BB
:10130000A0077508A00FB5002008031D3C23760830
:10131000A0003509A0077608A00FB5002008031D1E
:101320003C237708A0003509A0077708A00FB50077
:101330002008031D3C238A152E284B08F039A000F5
:10134000A0092408F039A0070308A20022190C22E2
:101350002219AE29221CE2212218F7214C08F0396B
:10136000A000A0092508F039A0070308A20022194F
:101370004B222219BF29221C2122221836224D0875
:10138000F039A000A0092608F039A0070308A20040
:1013900022198A222219D029221C602222187522A1
:1013A0004E08F039A000A0092708F039A00703086B
:1013B000A2002219C92222190800221C9F222218E9
:1013C000B4220800A919EC291D30D2000330D30043
:1013D0008A11D7218A15A915A91F08000C30D2003F
:1013E0000230D3008A11FE218A15A9130800A91D15
:1013F000012A1D30D2000330D3008A11FE218A1544
:10140000A911A91B08000C30D2000230D3008A11A8
:10141000D7218A15A9170800A91D162A1D30D20048
:101420000330D3008A11FE218A15A911A91F0800D3
:101430000C30D2000230D3008A11FE218A15A91384
:101440000800291A2B2A1830D2000230D3008A1142
:10145000D7218A1529162A1C08000D30D200023027
:10146000D3008A11FE218A152A100800291E402A5D
:101470001830D2000230D3008A11FE218A152912B9
:101480002A1808000D30D2000230D3008A11D7216B
:101490008A152A140800291E552A1830D200023055
:1014A000D3008A11FE218A1529122A1C08000D304A
:1014B000D2000230D3008A11FE218A152A100800BA
:1014C000A91A6A2A0A30D2000230D3008A11D72121
:1014D0008A15A916AA1C08000E30D2000230D300CB
:1014E0008A11FE218A15AA100800A91E7F2A0A3037
:1014F000D2000230D3008A11FE218A15A912AA183F
:1015000008000E30D2000230D3008A11D7218A158C
:10151000AA140800A91E942A0A30D2000230D3006F
:101520008A11FE218A15A912AA1C08000E30D200C9
:101530000230D3008A11FE218A15AA100800291B47
:10154000A92A0B30D2000230D3008A11D7218A1584
:1015500029172A1D08000F30D2000230D3008A114B
:10156000FE218A152A110800291FBE2A0B30D2003D
:101570000230D3008A11FE218A1529132A19080086
:101580000F30D2000230D3008A11D7218A152A15D4
:101590000800291FD32A0B30D2000230D3008A1151
:1015A000FE218A1529132A1D08000F30D2000230AF
:1015B000D3008A11FE218A152A1108003230F70063
:1015C000FA007608F800F201F3017808F600062325
:1015D000F1017608F00070087207F4007108031832
:1015E000013E7307F5007408F2007508F300F70B6D
:1015F000E52A7208F0007308F100F2017A08F3009E
:10160000F401F50115237608F60008000310F60D25
:10161000F60DF60DF61376177615761476089F00FC
:101620001F19102B1E08F6000800F3080319F40810
:101630000319F508031908007008F9007108FA0089
:101640007208FB00F001F101F2011830FC000310F8
:101650003A23031C302BF2007708F1007608F000E3
:10166000FC0B282B790DF6007A0DF7007B0DF800A6
:1016700003110800F90DFA0DFB0DF00DF10DF20D3F
:1016800073087002F6000301031C01307407F801AF
:10169000031878147102F7007808031C01307507ED
:1016A000F80103187814720278180310F800080083
:00000001FF
