:020000040000FA
:020000001628C0
:08000800A6000308A7000A0886
:10001000A80083018A114E2028088A00270883003F
:100020002608271D03112719031508008A110A1233
:1000300085018601870188018901831649309F0067
:100040002F308500013086000030870000308800A6
:10005000013089006400CC3081000E088E148312B8
:10006000A000D911A018D915213090004630920077
:100070003D208A15D919002825288B100B160C1045
:100080008C1083160C148C1483120B178B1708001A
:100090000B1283160C108C108312080048208B184A
:1000A00060200C1859168C1857203D20080059154F
:1000B0000800591191010800591D5C28D22608003A
:1000C00000000800581897206B18A020DA18CB20E1
:1000D0005A19DC20DA19E3205A1AF920DA1A2E21EB
:1000E0006419F420EC03031977205912080000006A
:1000F0002F08A4000C30D2000330D300A41AF22140
:10010000A41A2F16A41E1922A41E2F122F08A40011
:100110000D30D2000330D300241EF221241EAF166E
:10012000241A1922241AAF120930EC000800D70350
:10013000031D08000310D80C2B260330D70008003D
:10014000DB03031D0800EB0C031CEB130318EB1778
:10015000A101A2012D1A2114AD1A22142108A20511
:1001600022182D1222186113221808132218AD121A
:100170002218E11322188813221C2D16221C611745
:10018000221C0817221CAD16221CE117221C8817FE
:100190000830DB000800DC03031D08002B111630BB
:1001A000D2000230D3001922AE111A30D200023030
:1001B000D3001922DA100800DD03031D0800EB2626
:1001C0000F30DD000800E303031D0800AB111730FA
:1001D000D2000230D30019222E121B30D20002307E
:1001E000D3001922DA110800E503031D08000A24D0
:1001F0000800E603031D08002A121F30D200033056
:10020000D3001922AA12E01387132A135F110611D3
:10021000AA13DF118611AA115F1206122D10DF1228
:1002200086122B105F130613AD131E30D20002305E
:10023000D30019222D131C30D2000230D300192212
:10024000AE121D30D2000230D30019222E101F3002
:10025000D2000230D30019225A120800E703031D0E
:100260000800B625C5257F268E26DC261430E7003B
:1002700008008614D2268610D2267808A000043002
:10028000A100A0198614A01D8610D226A00DA10BD6
:1002900041290030A0000730A100201B8614201F38
:1002A0008610D226A00DA10B4D298614D226D22667
:1002B000D2268610D7268316861483125919EE2962
:1002C000861C5E295919EE2986186229D726D2265E
:1002D000F0010830A100F00D86187014861C701013
:1002E000D226A10B6B295919EE2986187329D72616
:1002F000D226F1010830A100F10D86187114861C78
:100300007110D226A10B7C295919EE29861884294F
:10031000D726D226F2010830A100F20D86187214F9
:10032000861C7210D226A10B8D295919EE29861828
:100330009529D726D226F3010830A100F30D86189F
:100340007314861C7310D226A10B9E295919EE290D
:100350008618A629D726D226F4010830A100F40D6C
:1003600086187414861C7410D226A10BAF29591953
:10037000EE298618B729D726D226F5010830A10024
:10038000F50D86187514861C7510D226A10BC02990
:100390005919EE298618C829D726D226F601083021
:1003A000A100F60D86187614861C7610D226A10BB5
:1003B000D1295919EE298618D929D726D226F7012D
:1003C0000830A100F70D86187714861C7710D22606
:1003D000A10BE2295919EE298618EA2983168610FD
:1003E000831208008614D2268610D2265308A00055
:1003F0000430A100A0198614A01D8610D226A00DDD
:10040000A10BFA298614D2265208A0000530A100BB
:10041000201A8614201E8610D226A00DA10B082AB1
:100420008614D2268614D226D226D2268610D2262A
:1004300008008614D2268610D2265308A000043065
:10044000A100A0198614A01D8610D226A00DA10B14
:10045000212A8614D2265208A0000530A100201AB5
:100460008614201E8610D226A00DA10B2F2A8610DE
:10047000D2268614D226D226D2268610D22608006C
:10048000AC1B080003103F0CA0000310A00C0310CD
:10049000A00CE030A0042008A3005408A306031910
:1004A00008002008D400A00A03198624A00A031912
:1004B000E223A00A03190A24A00A03196624A00A49
:1004C0000319E325A00A0319D425A00A0319C2249D
:1004D000A00A0319D024A00A03190325A00A0319AE
:1004E0000A25A00A0319A225A00A0319E024A00ADC
:1004F0000319F124A00A03195D25A00A0319852513
:10050000A00A03196F25A00A0319972503103F0CB1
:10051000A0002008031959230800AC1B0800031091
:10052000430CA0000310A00C0310A00CE030A004AA
:100530002008A3005508A306031908002008D500C9
:10054000A00A03193024A00A03194D26A00A031992
:100550001125A00A03194825A00A0319F225A00AAB
:100560000319EA24A00A0319FA24A00A03193A2657
:10057000A00A0319C525A00A03198E26A00A03198B
:10058000B625A00A03197F26A00A03196625A00A2A
:1005900003198E25A00A03192B26A00A03197A2510
:1005A000A00A031974260310430CA00020080319A5
:1005B0005B2308000000080000000800000008009D
:1005C000000008000000080000000800000008000B
:1005D00000000800000008000000080000000800FB
:1005E00000000800000008000000080000000800EB
:1005F00000000800000008000000080000000800DB
:1006000000000800000008000000080000000800CA
:1006100000000800AC1B00000310500CA0000310E9
:10062000A00C0310A00CE030A0042008A300560882
:10063000A306031908002008D600A00A03190926FA
:10064000A00A0319A023A00A0319C223A00A0319B0
:10065000CB26A00A0319CB26A00A0319CB26A00A91
:100660000319CB26A00A0319CB26A00A0319CB260F
:10067000A00A0319CB26A00A0319CB26A00A031946
:10068000CB26A00A0319CB26A00A0319CB26A00A61
:100690000319CB26A00A0319CB26A00A0319CB26DF
:1006A0000310500CA000200803195D23080000006F
:1006B00008000000080000000800000008001030DA
:1006C000D2000230D300AC181922AC101130D20085
:1006D0000230D3002C1919222C111230D200023012
:1006E000D300AC191922AC111330D2000230D30060
:1006F0002C1A19222C121430D2000230D300AC1A5A
:100700001922AC121530D2000230D3002C1B192252
:100710002C132D1261130813AD12E1138813193035
:10072000D2000330D3002B1A19222B12AB13E11184
:1007300088112B13611108112C1061120812080086
:1007400000008624AC17DF17861766241F30EB00E5
:100750000830DB001630D2000230D3002B1DF2210E
:100760002B15DA141430DC002B260130D8000830A9
:10077000D700AE13E21089100000C2245A150F30C2
:10078000DD0008000000AC13DF138613302466245C
:100790000730EB000830DB001730D2000230D30006
:1007A000AB1DF221AB15DA151430E3002B26073010
:1007B000D8000830D700AE17E214891400005A118F
:1007C000D0240800641908000314E40D641DFD2BF7
:1007D000291060100710A910E010871031151A3089
:1007E000D2000330D300F221B1151B30D200033008
:1007F000D300F2210F30E5000800E41C062C291478
:10080000601407142915601507150800A914E014D1
:1008100087140800641C08000310E40CE41C232C5B
:10082000291460140714A914E014871431111A3024
:10083000D2000330D3001922B1111B30D200033093
:10084000D30019220800641C2C2C291060100710FA
:100850002911601107110800A910E0108710080085
:10086000DA1E08001830D2000330D300AD18192268
:10087000AD1066241930D2000230D3002D19192290
:100880002D111630D2000230D3002B1919222B1152
:100890001730D2000230D300AB191922AB111A3035
:1008A000D2000230D300AE191922AE111B30D20093
:1008B0000230D3002E1A19222E121930D200033022
:1008C000D3002B1A19222B12DA1208006B182D12E2
:1008D0006B1861136B1808136B18AD126B18E113CA
:1008E0006B1888136B1C2D166B1C61176B1C08177B
:1008F0006B1CAD166B1CE1176B1C88176B18003056
:100900006B1CFF30EB000830DB000800D918080032
:10091000AB10E01187111730D2000230D300AB19B1
:100920001922AB111B30D2000230D3002E1A19222B
:100930002E121630D2000230D3002B1919222B119F
:100940001A30D2000230D300AE191922AE1119307C
:10095000D2000230D3002D1919222D111830D200E7
:100960000330D300AD181922AD10AD11E112881279
:10097000AE1060120712AB12E11088102E11E012B7
:10098000871208005114B0121530D2000330D30082
:10099000192230171630D2000330D300F22108009C
:1009A0005110B0161530D2000330D300F2213017A9
:1009B0001630D2000330D3001922080000000800CE
:1009C0002A161F30D2000330D300F2215A16083005
:1009D000E6000800AA16E01787175A160830E60046
:1009E0000800311A08002A175F1506155A16083034
:1009F000E6000800311A0800AA17DF1586155A16F6
:100A00000830E6000800AA155F1606165A160830C8
:100A1000E60008002D14DF1686165A160830E60088
:100A200008002B145F1706175A160830E600080056
:100A3000000008000000080000000800AC1410309E
:100A4000D2000230D300F22108002C151130D20060
:100A50000230D300F2210800AC151230D20002306F
:100A6000D300F22108002C161330D2000230D3003C
:100A7000F2210800AC161430D2000230D300F2216B
:100A800008002C171530D2000230D300F2210800E4
:100A90002E08A400241DE016241D8716241D2E15E3
:100AA0002419E0122419871224192E1108000000BD
:100AB000080000000800000008000800A400F03052
:100AC000A407031C08002408A40008000800A400D0
:100AD000F030A407031C08002408A5000800080043
:100AE00008002608A400F030A407031C080024080E
:100AF000A6000800080008002708A400F030A4079A
:100B0000031C08002408A70008000800A4001030F7
:100B1000A407031808002408A40008000800A40083
:100B20001030A407031808002408A50008000800D6
:100B300008002608A4001030A407031808002408A1
:100B4000A6000800311EAB2D31121C30D20003303C
:100B5000D3001922080031161C30D2000330D30014
:100B6000F221080000000800000008001630D20042
:100B70000230D3002B08A400241DF221241D2B15C4
:100B80002419192224192B1108001730D200023021
:100B9000D3002B08A400A41DF221A41DAB15A41999
:100BA0001922A419AB1108002D08A400A41DE116F8
:100BB000A41D8816A41DAD15A419E112A41988124C
:100BC000A419AD1108002B08A400A41CE015A41C56
:100BD0008715A41CAB14A418E011A4188711A4183D
:100BE000AB1008002E08A400A41C6016A41C071655
:100BF000A41CAE14A4186012A4180712A418AE10F6
:100C000008002D16611708170800AD16E1178817A0
:100C100008002B08A400A41EE114A41E8814A41E1E
:100C2000AB16A41AE110A41A8810A41AAB1208007B
:100C300000000800000008002B161930D200033015
:100C4000D300F2210800AB17E115881508002B1717
:100C50006115081508001830D2000330D3002D08A4
:100C6000A400A41CF221A41CAD14A4181922A418D9
:100C7000AD1008001930D2000230D3002D08A400B6
:100C8000241DF221241D2D152419192224192D119A
:100C900008002C146116081608001830D200033022
:100CA000D300AD1CF221AD1466241930D2000230FD
:100CB000D3002D1DF2212D151630D2000230D300A5
:100CC0002B1DF2212B151B30D2000230D3002E1E1B
:100CD000F2212E16DA161E30E70008000000080088
:100CE0000000080000000800080008002708A40011
:100CF0001030A407031808002408A70008001A30C1
:100D0000D2000230D3002E08A400A41DF221A41D9D
:100D1000AE15A4191922A419AE1108001B30D20077
:100D20000230D3002E08A400241EF221241E2E1609
:100D3000241A1922241A2E120800AD171E30D200D0
:100D40000230D300F2215A160830E60008002D17B1
:100D50001C30D2000230D300F2215A160830E600CF
:100D60000800AE161D30D2000230D300F2215A1610
:100D70000830E60008002E141F30D2000230D300E5
:100D8000F2215A160830E6000800000008000000B2
:100D9000080000000800000008000530A300A30BB5
:100DA000CF2E08005030A300A30BD42E08001E3015
:100DB000A300A30BD92E08001930D2000330D300B2
:100DC0002B08A400241EF221241E2B16241A1922FB
:100DD000241A2B1208001630D2000330D30030083A
:100DE000A400241FF221241F3017241B1922241BC6
:040DF00030130800B4
:101000008A115E0885005F08860060088700610815
:101010008800620889000E30D2000330D300F2212C
:101020002F170F30D2000330D300F221AF170C304E
:10103000D2000330D30019222F120D30D20003301A
:10104000D3001922AF128A1549288A11DE01DF0167
:10105000E001E101E201D226A0230C30D2000330EE
:10106000D300F2212F160D30D2000330D300F2212D
:10107000AF160E30D2000330D30019222F130F30D9
:10108000D2000330D3001922AF131930EC008A15B7
:1010900049288A11640059205C2059205C2059207D
:1010A0005C2059205C20591A62208A158A11003070
:1010B000F6008A15F9228A117608A0003F09A007D8
:1010C0001E08A00FBF0020088A11031D4022013016
:1010D000F6008A15F9228A117608A0004309A007B4
:1010E0001E08A00FC30020088A11031D8D220230A4
:1010F000F6008A15F9228A117608A0003709A007A0
:101100001E08A00FB70020088A11031DDA22033041
:10111000F6008A15F9228A117608A0004009A00776
:101120001E08A00FC00020088A11031DDC22043015
:10113000F6008A15F9228A117608A0004109A00755
:101140001E08A00FC10020088A11031DDE220530F1
:10115000F6008A15F9228A117608A0004209A00734
:101160001E08A00FC20020088A11031DE02259208A
:101170000230F80039215C207008A0003809A0076F
:101180007008A00FB8002008031DE6227108A00017
:101190003909A0077108A00FB9002008031DE82233
:1011A0007208A0003A09A0077208A00FBA00200830
:1011B000031DEA227308A0003B09A0077308A00FD3
:1011C000BB002008031DEC227408A0003C09A00706
:1011D0007408A00FBC002008031DEE227508A000B3
:1011E0003D09A0077508A00FBD002008031DF022CF
:1011F0007608A0003E09A0077608A00FBE002008D0
:10120000031DF2227708A0003609A0077708A00F77
:10121000B6002008031DE22259200330F8003921CE
:101220005C207008A0004409A0077008A00FC4004B
:101230002008031DE4227108A0004509A0077108D9
:10124000A00FC5002008031DF4227208A000460963
:10125000A0077208A00FC6002008031DF62273081D
:10126000A0004709A0077308A00FC7002008031DAE
:10127000F8227408A0004809A0077408A00FC8004D
:101280002008031DFA227508A0004909A007750867
:10129000A00FC9002008031DFC227608A0004A09FF
:1012A000A0077608A00FCA002008031DFE227708B9
:1012B000A0004B09A0077708A00FCB002008031D52
:1012C000002359200430F80039215C207008A00068
:1012D0004C09A0077008A00FCC002008031D0223B2
:1012E0007108A0004D09A0077108A00FCD002008CB
:1012F000031D04237208A0004E09A0077208A00F66
:10130000CE002008031D06237308A0004F09A00784
:101310007308A00FCF002008031D08237408A00045
:101320005009A0077408A00FD0002008031D0A234D
:101330007508A0003509A0077508A00FB5002008A2
:10134000031D57237608A0003509A0077608A00FD3
:10135000B5002008031D57237708A0003509A00712
:101360007708A00FB5002008031D57238A154928C8
:101370004B08F039A000A0092408F039A0070308A1
:10138000A200221927222219C929221CFD21221874
:1013900012224C08F039A000A0092508F039A00756
:1013A0000308A200221966222219DA29221C3C22F3
:1013B000221851224D08F039A000A0092608F03962
:1013C000A0070308A2002219A5222219EB29221C3A
:1013D0007B22221890224E08F039A000A00927088D
:1013E000F039A0070308A2002219E42222190800FC
:1013F000221CBA222218CF220800A919072A1D3060
:10140000D2000330D3008A11F2218A15A915A91F31
:1014100008000C30D2000230D3008A1119228A153C
:10142000A9130800A91D1C2A1D30D2000330D300C7
:101430008A1119228A15A911A91B08000C30D200A3
:101440000230D3008A11F2218A15A9170800A91DBC
:10145000312A1D30D2000330D3008A1119228A1597
:10146000A911A91F08000C30D2000230D3008A1144
:1014700019228A15A9130800291A462A1830D20001
:101480000230D3008A11F2218A1529162A1C08007D
:101490000D30D2000230D3008A1119228A152A1089
:1014A0000800291E5B2A1830D2000230D3008A11AE
:1014B00019228A1529122A1808000D30D20002308C
:1014C000D3008A11F2218A152A140800291E702AD5
:1014D0001830D2000230D3008A1119228A1529123D
:1014E0002A1C08000D30D2000230D3008A111922C4
:1014F0008A152A100800A91A852A0A30D20002305B
:10150000D3008A11F2218A15A916AA1C08000E30F0
:10151000D2000230D3008A1119228A15AA100800BD
:10152000A91E9A2A0A30D2000230D3008A11192249
:101530008A15A912AA1808000E30D2000230D30072
:101540008A11F2218A15AA140800A91EAF2A0A30AE
:10155000D2000230D3008A1119228A15A912AA1CBE
:1015600008000E30D2000230D3008A1119228A15E9
:10157000AA100800291BC42A0B30D2000230D30065
:101580008A11F2218A1529172A1D08000F30D2006E
:101590000230D3008A1119228A152A110800291F46
:1015A000D92A0B30D2000230D3008A1119228A15B1
:1015B00029132A1908000F30D2000230D3008A11F3
:1015C000F2218A152A150800291FEE2A0B30D200B5
:1015D0000230D3008A1119228A1529132A1D080006
:1015E0000F30D2000230D3008A1119228A152A1135
:1015F00008003230F700FA007608F800F201F30133
:101600007808F6002123F1017608F00070087207CF
:10161000F40071080318013E7307F5007408F20026
:101620007508F300F70B002B7208F0007308F10047
:10163000F2017A08F300F401F50130237608F60090
:1016400008000310F60DF60DF60DF6137617761555
:10165000761476089F001F192B2B1E08F600080031
:10166000F3080319F4080319F508031908007008B2
:10167000F9007108FA007208FB00F001F101F201B3
:101680001830FC0003105523031C4B2BF200770885
:10169000F1007608F000FC0B432B790DF6007A0D73
:1016A000F7007B0DF80003110800F90DFA0DFB0D92
:1016B000F00DF10DF20D73087002F6000301031C2A
:1016C00001307407F801031878147102F7007808E4
:1016D000031C01307507F80103187814720278189A
:0616E0000310F8000800F1
:00000001FF
