:020000040000FA
:020000001628C0
:08000800A6000308A7000A0886
:10001000A80083018A114E2028088A00270883003F
:100020002608271D03112719031508008A110A1233
:1000300085018601870188018901831649309F0067
:100040002F308500013086000030870000308800A6
:10005000013089006400CC3081000E088E148312B8
:10006000A000D911A018D915213090004630920077
:100070003D208A15D919002819288B100B160C1051
:100080008C1083160C148C1483120B178B1708001A
:100090000B1283160C108C108312080048208B184A
:1000A00062200B1959140C1859168C1859203D2030
:1000B000080059150800591191010800591D5E28C2
:1000C000D826080000000800000059100800581841
:1000D00079206B188220DA18AD205A19BE20DA195F
:1000E000C5205A1ADB20DA1A10216419D6205912B9
:1000F0000800D703031D08000310D80C3126033075
:10010000D7000800DB03031D0800EB0C031CEB13F6
:100110000318EB17A101A2012D1A2114AD1A221404
:100120002108A20522182D12221861132218081383
:100130002218AD122218E11322188813221C2D1642
:10014000221C6117221C0817221CAD16221CE11765
:10015000221C88170830DB000800DC03031D0800A0
:100160002B111630D2000230D300FB21AE111A3011
:10017000D2000230D300FB21DA100800DD03031D9A
:100180000800F1260F30DD000800E303031D08001E
:10019000AB111730D2000230D300FB212E121B30DE
:1001A000D2000230D300FB21DA110800E503031D61
:1001B000080010240800E603031D08002A121F305F
:1001C000D2000330D300FB21AA12E01387132A13B5
:1001D0005F110611AA13DF118611AA115F12061210
:1001E0002D10DF1286122B105F130613AD131E3075
:1001F000D2000230D300FB212D131C30D20002307C
:10020000D300FB21AE121D30D2000230D300FB21FF
:100210002E101F30D2000230D300FB215A120800EA
:10022000E703031D0800BC25CB2585269426E2267E
:100230001430E70008008614D8268610D8267808DF
:10024000A0000430A100A0198614A01D8610D82695
:10025000A00DA10B23290030A0000730A100201B16
:100260008614201F8610D826A00DA10B2F298614D6
:10027000D826D826D8268610DD2683168614831223
:100280005919D029861C40295919D0298618442982
:10029000DD26D826F0010830A100F00D8618701474
:1002A000861C7010D826A10B4D295919D029861803
:1002B0005529DD26D826F1010830A100F10D861858
:1002C0007114861C7110D826A10B5E295919D029EA
:1002D00086186629DD26D826F2010830A100F20D25
:1002E00086187214861C7210D826A10B6F29591912
:1002F000D02986187729DD26D826F3010830A100F9
:10030000F30D86187314861C7310D826A10B802950
:100310005919D02986188829DD26D826F4010830F5
:10032000A100F40D86187414861C7410D826A10B35
:1003300091295919D02986189929DD26D826F50141
:100340000830A100F50D86187514861C7510D82686
:10035000A10BA2295919D0298618AA29DD26D82649
:10036000F6010830A100F60D86187614861C76106A
:10037000D826A10BB3295919D0298618BB29DD2607
:10038000D826F7010830A100F70D86187714861CCF
:100390007710D826A10BC4295919D0298618CC2941
:1003A00083168610831208008614D8268610D82655
:1003B0005308A0000430A100A0198614A01D8610C7
:1003C000D826A00DA10BDC298614D8265208A0003F
:1003D0000530A100201A8614201E8610D826A00DF4
:1003E000A10BEA298614D8268614D826D826D82622
:1003F0008610D82608008614D8268610D8265308DA
:10040000A0000430A100A0198614A01D8610D826D3
:10041000A00DA10B032A8614D8265208A00005308F
:10042000A100201A8614201E8610D826A00DA10B2C
:10043000112A8610D8268614D826D826D8268610C3
:10044000D8260800AC1B080003103F0CA0000310C6
:10045000A00C0310A00CE030A0042008A300540856
:10046000A306031908002008D400A00A03198C244D
:10047000A00A0319E823A00A03191024A00A0319EB
:100480006C24A00A0319E925A00A0319DA25A00A99
:100490000319C824A00A0319D624A00A03190925A0
:1004A000A00A03191025A00A0319A825A00A0319F8
:1004B000E624A00A0319F724A00A03196325A00A59
:1004C00003198B25A00A03197525A00A03199D2578
:1004D00003103F0CA000200803193B230800AC1BAD
:1004E00008000310430CA0000310A00C0310A00C84
:1004F000E030A0042008A3005508A3060319080053
:100500002008D500A00A03193624A00A031953268F
:10051000A00A03191725A00A03194E25A00A0319DA
:10052000F825A00A0319F024A00A03190025A00A3F
:1005300003194026A00A0319CB25A00A0319942603
:10054000A00A0319BC25A00A03198526A00A0319CD
:100550006C25A00A03199425A00A03193126A00AC4
:1005600003198025A00A03197A260310430CA00062
:10057000200803193D2308000000080000000800BF
:10058000000008000000080000000800000008004B
:10059000000008000000080000000800000008003B
:1005A000000008000000080000000800000008002B
:1005B000000008000000080000000800000008001B
:1005C000000008000000080000000800000008000B
:1005D0000000080000000800AC1B00000310500CD5
:1005E000A0000310A00C0310A00CE030A004200811
:1005F000A3005608A306031908002008D600A00A85
:1006000003190F26A00A03198223A00A0319C02385
:10061000A00A0319D126A00A0319D126A00A03199A
:10062000D126A00A0319D126A00A0319D126A00AAF
:100630000319D126A00A0319D126A00A0319D1262D
:10064000A00A0319D126A00A0319D126A00A03196A
:10065000D126A00A0319D126A00A0319D126A00A7F
:100660000319D1260310500CA000200803193F23C2
:10067000080000000800000008000000080000005A
:1006800008001030D2000230D300AC18FB21AC10AF
:100690001130D2000230D3002C19FB212C11123062
:1006A000D2000230D300AC19FB21AC111330D200C0
:1006B0000230D3002C1AFB212C121430D20002304D
:1006C000D300AC1AFB21AC121530D2000230D3009B
:1006D0002C1BFB212C132D1261130813AD12E113F7
:1006E00088131930D2000330D3002B1AFB212B12B0
:1006F000AB13E11188112B13611108112C10611239
:1007000008120800581808003C084504460447042D
:10071000480449044A04A500A51B0000A51B312676
:10072000A51B1F30A51BD800A51B0330A51BD70098
:100730008C24AC17DF1786176C241F30EB000830B1
:10074000DB001630D2000230D3002B1DD4212B1534
:100750001A30D2000230D300AE1DD421AE15DA1407
:100760001E30DC0031260130D8000830D700AE132F
:10077000E21089100000C8245A150F30DD0008006F
:1007800058180800AC13DF13861336246C24073086
:10079000EB000830DB001730D2000230D300AB1D75
:1007A000D421AB151B30D2000230D3002E1ED42131
:1007B0002E16DA151E30E30031260730D800083037
:1007C000D700AE17E214891400005A11D62408008D
:1007D000641908000314E40D641D032C2910601033
:1007E0000710A910E010871031151A30D20003301D
:1007F000D300D421B1151B30D2000330D300D42153
:100800001430E5000800E41C0C2C291460140714B3
:100810002915601507150800A914E01487140800AD
:10082000641C08000310E40CE41C292C2914601437
:100830000714A914E014871431111A30D2000330C0
:10084000D300FB21B1111B30D2000330D300FB21B8
:100850000800641C322C2910601007102911601147
:1008600007110800A910E01087100800DA1E080020
:100870001830D2000330D300AD18FB21AD106C242A
:100880001930D2000230D3002D19FB212D11163062
:10089000D2000230D3002B19FB212B111730D200CC
:1008A0000230D300AB19FB21AB111A30D200023059
:1008B000D300AE19FB21AE111B30D2000230D300A1
:1008C0002E1AFB212E121930D2000330D3002B1A1E
:1008D000FB212B12DA1208006B182D126B18611312
:1008E0006B1808136B18AD126B18E1136B18881393
:1008F0006B1C2D166B1C61176B1C08176B1CAD163F
:100900006B1CE1176B1C88176B1800306B1CFF30D9
:10091000EB000830DB000800D9180800AB10E0112C
:1009200087111730D2000230D300AB19FB21AB1175
:100930001B30D2000230D3002E1AFB212E121630AB
:10094000D2000230D3002B19FB212B111A30D20018
:100950000230D300AE19FB21AE111930D2000230A3
:10096000D3002D19FB212D111830D2000330D300F4
:10097000AD18FB21AD10AD11E1128812AE1060125E
:100980000712AB12E11088102E11E0128712080036
:100990005114B0121530D2000330D300FB213017B0
:1009A0001630D2000330D300D42108005110B01605
:1009B0001530D2000330D300D42130171630D200C6
:1009C0000330D300FB210800000008002A161F3066
:1009D000D2000330D300D4215A160830E6000800B4
:1009E000AA16E01787175A160830E6000800311AD1
:1009F00008002A175F1506155A160830E600080089
:100A0000311A0800AA17DF1586155A160830E600B5
:100A10000800AA155F1606165A160830E6000800E8
:100A20002D14DF1686165A160830E60008002B141F
:100A30005F1706175A160830E60008000000080085
:100A40000000080000000800AC141030D200023092
:100A5000D300D42108002C151130D2000230D3006D
:100A6000D4210800AC151230D2000230D300D421BA
:100A700008002C161330D2000230D300D421080015
:100A8000AC161430D2000230D300D42108002C1749
:100A90001530D2000230D300D42108002E08A40063
:100AA000241DE016241D8716241D2E152419E0127E
:100AB0002419871224192E110800000008000000D4
:100AC0000800000008000800A400F030A407031C80
:100AD00008002408A40008000800A400F030A407BF
:100AE000031C08002408A5000800080008002608C8
:100AF000A400F030A407031C08002408A600080086
:100B0000080008002708A400F030A407031C080010
:100B10002408A70008000800A4001030A407031848
:100B200008002408A40008000800A4001030A4074E
:100B3000031808002408A50008000800080026087B
:100B4000A4001030A407031808002408A600080019
:100B5000311EB12D31121C30D2000330D300FB21E5
:100B6000080031161C30D2000330D300D421080015
:100B700000000800000008001630D2000230D30048
:100B80002B08A400241DD421241D2B152419FB217E
:100B900024192B1108001730D2000230D3002B0883
:100BA000A400A41DD421A41DAB15A419FB21A419D4
:100BB000AB1108002D08A400A41DE116A41D881681
:100BC000A41DAD15A419E112A4198812A419AD1120
:100BD00008002B08A400A41CE015A41C8715A41C65
:100BE000AB14A418E011A4188711A418AB100800C6
:100BF0002E08A400A41C6016A41C0716A41CAE1486
:100C0000A4186012A4180712A418AE1008002D161C
:100C1000611708170800AD16E117881708002B08A0
:100C2000A400A41EE114A41E8814A41EAB16A41ACA
:100C3000E110A41A8810A41AAB12080000000800E2
:100C4000000008002B161930D2000330D300D42145
:100C50000800AB17E115881508002B17611508155A
:100C600008001830D2000330D3002D08A400A41CC3
:100C7000D421A41CAD14A418FB21A418AD100800A5
:100C80001930D2000230D3002D08A400241DD42135
:100C9000241D2D152419FB2124192D1108002C14B5
:100CA0006116081608001830D2000330D300AD1CBE
:100CB000D421AD146C241930D2000230D3002D1D84
:100CC000D4212D151630D2000230D3002B1DD42193
:100CD0002B151B30D2000230D3002E1ED4212E162D
:100CE000DA161E30E70008000000080000000800C7
:100CF00000000800080008002708A4001030A4071E
:100D0000031808002408A70008001A30D200023097
:100D1000D3002E08A400A41DD421A41DAE15A4192F
:100D2000FB21A419AE1108001B30D2000230D30001
:100D30002E08A400241ED421241E2E16241AFB21C2
:100D4000241A2E120800AD171E30D2000230D30034
:100D5000D4215A160830E60008002D171C30D200A6
:100D60000230D300D4215A160830E6000800AE162F
:100D70001D30D2000230D300D4215A160830E600CC
:100D800008002E141F30D2000230D300D4215A168E
:100D90000830E6000800000008000000080000001D
:100DA0000800000008000530A300A30BD52E0800A2
:100DB0005030A300A30BDA2E08001E30A300A30BB3
:100DC000DF2E08001930D2000330D3002B08A40016
:100DD000241ED421241E2B16241AFB21241A2B1284
:100DE00008001630D2000330D3003008A400241FBE
:100DF000D421241F3017241BFB21241B301308008F
:101000008A115E0885005F08860060088700610815
:101010008800620889000E30D2000330D300D4214A
:101020002F170F30D2000330D300D421AF178A1509
:101030002E288A11DE01DF01E001E101E2018223B5
:101040000C30D2000330D300D4212F160D30D20043
:101050000330D300D421AF168A152E288A116400DC
:101060005B205E205B205E205B205E205B205E209C
:10107000591A67208A158A110030F6008A15DE2277
:101080008A117608A0003F09A0071E08A00FBF0024
:1010900020088A11031D22220130F6008A15DE2263
:1010A0008A117608A0004309A0071E08A00FC300FC
:1010B00020088A11031D6F220230F6008A15DE22F5
:1010C0008A117608A0003709A0071E08A00FB700F4
:1010D00020088A11031DBC220330F6008A15DE2287
:1010E0008A117608A0004009A0071E08A00FC000C2
:1010F00020088A11031DBE220430F6008A15DE2264
:101100008A117608A0004109A0071E08A00FC1009F
:1011100020088A11031DC0220530F6008A15DE2240
:101120008A117608A0004209A0071E08A00FC2007D
:1011300020088A11031DC2225B200230F8001B2107
:101140005E207008A0003809A0077008A00FB80042
:101150002008031DC8227108A0003909A0077108E2
:10116000A00FB9002008031DCA227208A0003A0986
:10117000A0077208A00FBA002008031DCC22730834
:10118000A0003B09A0077308A00FBB002008031DA7
:10119000CE227408A0003C09A0077408A00FBC0070
:1011A0002008031DD0227508A0003D09A00775087E
:1011B000A00FBD002008031DD2227608A0003E0922
:1011C000A0077608A00FBE002008031DD4227708D0
:1011D000A0003609A0077708A00FB6002008031D5D
:1011E000C4225B200330F8001B215E207008A000A1
:1011F0004409A0077008A00FC4002008031DC622E0
:101200007108A0004509A0077108A00FC5002008BB
:10121000031DD6227208A0004609A0077208A00F7D
:10122000C6002008031DD8227308A0004709A007A4
:101230007308A00FC7002008031DDA227408A0005D
:101240004809A0077408A00FC8002008031DDC226D
:101250007508A0004909A0077508A00FC90020085B
:10126000031DDE227608A0004A09A0077608A00F19
:10127000CA002008031DE0227708A0004B09A00740
:101280007708A00FCB002008031DE2225B2004306A
:10129000F8001B215E207008A0004C09A007700810
:1012A000A00FCC002008031DE4227108A0004D0906
:1012B000A0077108A00FCD002008031DE6227208C8
:1012C000A0004E09A0077208A00FCE002008031D41
:1012D000E8227308A0004F09A0077308A00FCF00F1
:1012E0002008031DEA227408A0005009A007740812
:1012F000A00FD0002008031DEC227508A0003509BE
:10130000A0077508A00FB5002008031D3923760833
:10131000A0003509A0077608A00FB5002008031D1E
:1013200039237708A0003509A0077708A00FB5007A
:101330002008031D39238A152E284B08F039A000F8
:10134000A0092408F039A0070308A20022190C22E2
:101350002219AE29221CE2212218F7214C08F0396B
:10136000A000A0092508F039A0070308A20022194F
:101370004B222219BF29221C2122221836224D0875
:10138000F039A000A0092608F039A0070308A20040
:1013900022198A222219D029221C602222187522A1
:1013A0004E08F039A000A0092708F039A00703086B
:1013B000A2002219C92222190800221C9F222218E9
:1013C000B4220800A919EC291D30D2000330D30043
:1013D0008A11D4218A15A915A91F08000C30D20042
:1013E0000230D3008A11FB218A15A9130800A91D18
:1013F000012A1D30D2000330D3008A11FB218A1547
:10140000A911A91B08000C30D2000230D3008A11A8
:10141000D4218A15A9170800A91D162A1D30D2004B
:101420000330D3008A11FB218A15A911A91F0800D6
:101430000C30D2000230D3008A11FB218A15A91387
:101440000800291A2B2A1830D2000230D3008A1142
:10145000D4218A1529162A1C08000D30D20002302A
:10146000D3008A11FB218A152A100800291E402A60
:101470001830D2000230D3008A11FB218A152912BC
:101480002A1808000D30D2000230D3008A11D4216E
:101490008A152A140800291E552A1830D200023055
:1014A000D3008A11FB218A1529122A1C08000D304D
:1014B000D2000230D3008A11FB218A152A100800BD
:1014C000A91A6A2A0A30D2000230D3008A11D42124
:1014D0008A15A916AA1C08000E30D2000230D300CB
:1014E0008A11FB218A15AA100800A91E7F2A0A303A
:1014F000D2000230D3008A11FB218A15A912AA1842
:1015000008000E30D2000230D3008A11D4218A158F
:10151000AA140800A91E942A0A30D2000230D3006F
:101520008A11FB218A15A912AA1C08000E30D200CC
:101530000230D3008A11FB218A15AA100800291B4A
:10154000A92A0B30D2000230D3008A11D4218A1587
:1015500029172A1D08000F30D2000230D3008A114B
:10156000FB218A152A110800291FBE2A0B30D20040
:101570000230D3008A11FB218A1529132A19080089
:101580000F30D2000230D3008A11D4218A152A15D7
:101590000800291FD32A0B30D2000230D3008A1151
:1015A000FB218A1529132A1D08000F30D2000230B2
:1015B000D3008A11FB218A152A1108003230F70066
:1015C000FA007608F800F201F3017808F600062325
:1015D000F1017608F00070087207F4007108031832
:1015E000013E7307F5007408F2007508F300F70B6D
:1015F000E52A7208F0007308F100F2017A08F3009E
:10160000F401F50115237608F60008000310F60D25
:10161000F60DF60DF61376177615761476089F00FC
:101620001F19102B1E08F6000800F3080319F40810
:101630000319F508031908007008F9007108FA0089
:101640007208FB00F001F101F2011830FC000310F8
:101650003A23031C302BF2007708F1007608F000E3
:10166000FC0B282B790DF6007A0DF7007B0DF800A6
:1016700003110800F90DFA0DFB0DF00DF10DF20D3F
:1016800073087002F6000301031C01307407F801AF
:10169000031878147102F7007808031C01307507ED
:1016A000F80103187814720278180310F800080083
:00000001FF
