:020000040000FA
:020000001228C4
:08000800A6000A0EA800030E79
:10001000A70083018A114720270E8300280E8A003B
:10002000260E08008A110A128501860187018801BF
:100030008901831649309F002F30850001308600EA
:10004000003087000030880001308900C73081000F
:100050000E088E148312A000D911A018D9154630AD
:10006000920036208A15D919002810288B100B16FB
:100070000B118B168C1083168C1483120B178B1795
:1000800008000B128B1283168C108312080041207B
:100090008B1859200B1959148C1850203620080041
:1000A00059150800591191010800591D5528942629
:1000B00008000000080058186D206E187620DA1825
:1000C00099205A19AA20DA19B1205A1AC720DA1A27
:1000D000F6206719C22059100800D703031D080035
:1000E0000310D80CEE250330D7000800DB03031DF6
:1000F0000800EE0C031CEE130318EE17A101A20179
:100100002D1A2114AD1A22142108A20522182D122D
:10011000221808132218AD1222188813221C2D163B
:10012000221C0817221CAD16221C88170830DB0081
:100130000800DC03031D08002B111630D20002302A
:10014000D300E121AE111A30D2000230D300E121F8
:10015000DA100800DD03031D0800AD260F30DD00B6
:100160000800E603031D0800AB111730D20002306F
:10017000D300E1212E121B30D2000230D300E12146
:10018000DA110800E803031D0800FD230800E90355
:10019000031D08002A121F30D2000330D300E121D2
:1001A000AA1287132A130611AA138611AA1106127E
:1001B0002D1086122B100613AD131E30D200023004
:1001C000D300E1212D131C30D2000230D300E121F5
:1001D000AE121D30D2000230D300E1212E101F30AC
:1001E000D2000230D300E1215A120800EA03031DB5
:1001F00008008D259C25412650269E261430EA00B5
:10020000080086149426861094267808A0000430EE
:10021000A100A0198614A01D86109426A00DA10B84
:1002200009290030A0000730A100201B8614201FE0
:1002300086109426A00DA10B1529861494269426C9
:100240009426861099268316861483125919B62986
:10025000861C26295919B62986182A2999269426F2
:10026000F0010830A100F00D86187014861C701083
:100270009426A10B33295919B62986183B299926AA
:100280009426F1010830A100F10D86187114861C26
:1002900071109426A10B44295919B62986184C29A6
:1002A00099269426F2010830A100F20D86187214E6
:1002B000861C72109426A10B55295919B629861847
:1002C0005D2999269426F3010830A100F30D8618C4
:1002D0007314861C73109426A10B66295919B6292C
:1002E00086186E2999269426F4010830A100F40D91
:1002F00086187414861C74109426A10B772959193A
:10030000B62986187F2999269426F5010830A10080
:10031000F50D86187514861C75109426A10B882976
:100320005919B6298618902999269426F60108307D
:10033000A100F60D86187614861C76109426A10B63
:1003400099295919B6298618A12999269426F701C1
:100350000830A100F70D86187714861C77109426B4
:10036000A10BAA295919B6298618B2298316861015
:100370008312080086149426861094265308A00041
:100380000430A100A0198614A01D86109426A00D8B
:10039000A10BC229861494265208A0000530A100A2
:1003A000201A8614201E86109426A00DA10BD02999
:1003B00086149426861494269426942686109426D1
:1003C000080086149426861094265308A000043052
:1003D000A100A0198614A01D86109426A00DA10BC3
:1003E000E929861494265208A0000530A100201A9D
:1003F0008614201E86109426A00DA10BF7298610C6
:100400009426861494269426942686109426080012
:10041000AC1B080003103F0CA0000310A00C03103D
:10042000A00CE030A0042008A3005408A306031980
:1004300008002008D400A00A03196C24A00A03199C
:10044000DA23A00A0319FD23A00A03195424A00AE1
:100450000319B625A00A0319AB25A00A0319A32482
:10046000A00A0319B124A00A0319E124A00A031960
:10047000E724A00A03197925A00A0319C124A00AB8
:100480000319D124A00A03193425A00A03195C25F5
:10049000A00A03194625A00A03196E2503103F0C74
:1004A000A0002008031921230800AC1B080003103A
:1004B000430CA0000310A00C0310A00CE030A0041B
:1004C0002008A3005508A306031908002008D5003A
:1004D000A00A03191E24A00A03190F26A00A031953
:1004E000ED24A00A03192325A00A0319C125A00A97
:1004F0000319CB24A00A0319D924A00A0319FD2546
:10050000A00A03199C25A00A03195026A00A031962
:100510008D25A00A03194126A00A03193D25A00A2A
:1005200003196525A00A0319EE25A00A0319512510
:10053000A00A031936260310430CA0002008031953
:100540002323080000000800000008000000080045
:10055000000008000000080000000800000008007B
:10056000000008000000080000000800000008006B
:10057000000008000000080000000800000008005B
:10058000000008000000080000000800000008004B
:10059000000008000000080000000800000008003B
:1005A00000000800AC1B00000310500CA00003105A
:1005B000A00C0310A00CE030A0042008A3005608F3
:1005C000A306031908002008D600A00A0319D225A3
:1005D000A00A03196323A00A0319AC23A00A031974
:1005E0008D26A00A03198D26A00A03198D26A00ABC
:1005F00003198D26A00A03198D26A00A03198D263A
:10060000A00A03198D26A00A03198D26A00A031932
:100610008D26A00A03198D26A00A03198D26A00A8B
:1006200003198D26A00A03198D26A00A03198D2609
:100630000310500CA0002008031925230800000017
:10064000080000000800000008000000080010304A
:10065000D2000230D300AC18E121AC101130D2002E
:100660000230D3002C19E1212C111230D2000230BB
:10067000D300AC19E121AC111330D2000230D30009
:100680002C1AE1212C121430D2000230D300AC1A03
:10069000E121AC121530D2000230D3002C1BE12135
:1006A0002C132D120813AD1288131930D200033009
:1006B000D3002B1AE1212B12AB1388112B13081135
:1006C0002C1008120800581808003C08450446047D
:1006D0004704480449044A04A500A51B0000A51BC3
:1006E000EE25A51B1F30A51BD800A51B0330A51B9D
:1006F000D7006C24AC17861754241F30EE00083046
:10070000DB001630D2000230D3002B1DBA212B158E
:100710001A30D2000230D300AE1DBA21AE15DA1461
:100720001E30DC00EE250130D8000830D700AE13B3
:1007300089100000A3245A150F30DD004B08DE009D
:100740004C08DF004D08E0004E08E1000030E200F8
:10075000E300E400E500080058180800AC13861315
:100760001E2454240730EE000830DB001730D2007E
:100770000230D300AB1DBA21AB151B30D2000230C2
:10078000D3002E1EBA212E16DA151E30E600EE25F5
:100790000730D8000830D700AE17891400005A116E
:1007A000B1245E08E2005F08E3006008E40061082D
:1007B000E5000800671908000314E70D671DF32B17
:1007C00029100710A910871031151A30D2000330F4
:1007D000D300BA21B1151B30D2000330D300BA21A7
:1007E0001430E8000800E71CFA2B29140714291517
:1007F00007150800A91487140800671C08000310D7
:10080000E70CE71C142C29140714A91487143111C0
:100810001A30D2000330D300E121B1111B30D200D5
:100820000330D300E1210800671C1B2C291007109E
:10083000291107110800A91087100800DA1E080006
:100840001830D2000330D300AD18E121AD1054248C
:100850001930D2000230D3002D19E1212D111630AC
:10086000D2000230D3002B19E1212B111730D20016
:100870000230D300AB19E121AB111A30D2000230A3
:10088000D300AE19E121AE111B30D2000230D300EB
:100890002E1AE1212E121930D2000330D3002B1A68
:1008A000E1212B12DA1208006E182D126E180813AF
:1008B0006E18AD126E1888136E1C2D166E1C08175C
:1008C0006E1CAD166E1C88176E1800306E1CFF3043
:1008D000EE000830DB000800D9180800AB108711C3
:1008E0001730D2000230D300AB19E121AB111B301D
:1008F000D2000230D3002E1AE1212E121630D2007F
:100900000230D3002B19E1212B111A30D200023012
:10091000D300AE19E121AE111930D2000230D3005C
:100920002D19E1212D111830D2000330D300AD185C
:10093000E121AD10AD118812AE100712AB12881074
:100940002E11871208005114B0121530D200033056
:10095000D300E12130171630D2000330D300BA2182
:1009600008005110B0161530D2000330D300BA2160
:1009700030171630D2000330D300E1210800000008
:1009800008002A161F30D2000330D300BA215A16AD
:100990000830E9000800AA1687175A160830E9003F
:1009A0000800311A08002A1706155A160830E900FF
:1009B0000800311A0800AA1786155A160830E900EF
:1009C0000800AA1506165A160830E90008002D146A
:1009D00086165A160830E90008002B1406175A1616
:1009E0000830E900080000000800000008000000CE
:1009F0000800AC141030D2000230D300BA21080035
:100A00002C151130D2000230D300BA210800AC15E9
:100A10001230D2000230D300BA2108002C16133055
:100A2000D2000230D300BA210800AC161430D20034
:100A30000230D300BA2108002C171530D200023042
:100A4000D300BA2108002E08A400241D8716241DF7
:100A50002E152419871224192E11080000000800F1
:100A600000000800000008006208A400F030A4079D
:100A7000031C08002408E20008006308A400F0300A
:100A8000A407031C08002408E3000800311A08002A
:100A90006408A400F030A407031C08002408E40044
:100AA0000800311A08006508A400F030A407031CF0
:100AB00008002408E50008006208A4001030A4071C
:100AC000031808002408E20008006308A40010309E
:100AD000A407031808002408E3000800311A0800DE
:100AE0006408A4001030A407031808002408E400D8
:100AF0000800311E822D31121C30D2000330D30089
:100B0000E121080031161C30D2000330D300BA2195
:100B1000080000000800000008001630D200023073
:100B2000D3002B08A400241DBA21241D2B15241941
:100B3000E12124192B1108001730D2000230D30014
:100B40002B08A400A41DBA21A41DAB15A419E121F2
:100B5000A419AB1108002D08A400A41D8816A41D1B
:100B6000AD15A4198812A419AD1108002B08A40012
:100B7000A41C8715A41CAB14A4188711A418AB10CF
:100B800008002E08A400A41C0716A41CAE14A41868
:100B90000712A418AE1008002D1608170800AD168D
:100BA000881708002B08A400A41E8814A41EAB16E6
:100BB000A41A8810A41AAB12080000000800000054
:100BC00008002B161930D2000330D300BA210800D8
:100BD000AB17881508002B17081508001830D2002D
:100BE0000330D3002D08A400A41CBA21A41CAD140A
:100BF000A418E121A418AD1008001930D200023069
:100C0000D3002D08A400241DBA21241D2D1524195C
:100C1000E12124192D1108002C14081608001830A1
:100C2000D2000330D300AD1CBA21AD1454241930C6
:100C3000D2000230D3002D1DBA212D151630D2005E
:100C40000230D3002B1DBA212B151B30D2000230ED
:100C5000D3002E1EBA212E16DA161E30EA00080026
:100C6000000008000000080000000800311A080019
:100C70006508A4001030A407031808002408E50044
:100C800008001A30D2000230D3002E08A400A41DA0
:100C9000BA21A41DAE15A419E121A419AE110800B2
:100CA0001B30D2000230D3002E08A400241EBA212B
:100CB000241E2E16241AE121241A2E120800AD1724
:100CC0001E30D2000230D300BA215A160830E90093
:100CD00008002D171C30D2000230D300BA215A165A
:100CE0000830E9000800AE161D30D2000230D300F3
:100CF000BA215A160830E90008002E141F30D2001D
:100D00000230D300BA215A160830E900080000006A
:100D1000080000000800000008000000080005307E
:100D2000A300A30B912E08005030A300A30B962E16
:100D300008001E30A300A30B9B2E08001930D20020
:100D40000330D3002B08A400241EBA21241E2B1626
:100D5000241AE121241A2B1208001630D200033085
:100D6000D3003008A400241FBA21241F3017241BED
:080D7000E121241B30130800EF
:101000008A1100000E30D2000330D300BA212F170E
:101010000F30D2000330D300BA21AF178A15202831
:101020008A1163230C30D2000330D300BA212F166B
:101030000D30D2000330D300BA21AF168A15202814
:101040008A115220552052205520522055205220DE
:10105000552059185B208A158A110030F6008A1530
:10106000CF228A117608A0003F09A0071E08A00F12
:10107000BF0020088A11031D08220130F6008A15DE
:10108000CF228A117608A0004309A0071E08A00FEE
:10109000C30020088A11031D55220230F6008A156C
:1010A000CF228A117608A0003709A0071E08A00FDA
:1010B000B70020088A11031DA2220330F6008A150A
:1010C000CF228A117608A0004009A0071E08A00FB1
:1010D000C00020088A11031DA4220430F6008A15DE
:1010E000CF228A117608A0004109A0071E08A00F90
:1010F000C10020088A11031DA6220530F6008A15BA
:10110000CF228A117608A0004209A0071E08A00F6E
:10111000C20020088A11031DA82252200230F800C4
:10112000012155207008A0003809A0077008A00F01
:10113000B8002008031DAE227108A0003909A007DD
:101140007108A00FB9002008031DB0227208A0008A
:101150003A09A0077208A00FBA002008031DB222A6
:101160007308A0003B09A0077308A00FBB0020086C
:10117000031DB4227408A0003C09A0077408A00F46
:10118000BC002008031DB6227508A0003D09A00779
:101190007508A00FBD002008031DB8227608A00026
:1011A0003E09A0077608A00FBE002008031DBA2242
:1011B0007708A0003609A0077708A00FB60020081E
:1011C000031DAA2252200330F80001215520700887
:1011D000A0004409A0077008A00FC4002008031D48
:1011E000AC227108A0004509A0077108A00FC50036
:1011F0002008031DBC227208A0004609A00772083F
:10120000A00FC6002008031DBE227308A0004709D6
:10121000A0077308A00FC7002008031DC022740890
:10122000A0004809A0077408A00FC8002008031DEB
:10123000C2227508A0004909A0077508A00FC900BF
:101240002008031DC4227608A0004A09A0077608DA
:10125000A00FCA002008031DC6227708A0004B0972
:10126000A0077708A00FCB002008031DC82252203A
:101270000430F800012155207008A0004C09A00797
:101280007008A00FCC002008031DCA227108A0001E
:101290004D09A0077108A00FCD002008031DCC2226
:1012A0007208A0004E09A0077208A00FCE00200807
:1012B000031DCE227308A0004F09A0077308A00FDA
:1012C000CF002008031DD0227408A0005009A007F9
:1012D0007408A00FD0002008031DD2227508A000BA
:1012E0003509A0077508A00FB5002008031D1F23AE
:1012F0007608A0003509A0077608A00FB5002008E1
:10130000031D1F237708A0003509A0077708A00F49
:10131000B5002008031D1F238A1520284B08F0392B
:10132000A000A0096208F039A0070308A200221952
:10133000FD2122199F29221CD3212218E8214C08C3
:10134000F039A000A0096308F039A0070308A20043
:1013500022193C222219B029221C122222182722EB
:101360004D08F039A000A0096408F039A00703086F
:10137000A20022197B222219C129221C51222218E3
:1013800066224E08F039A000A0096508F039A007D0
:101390000308A2002219BA2222190800221C902256
:1013A0002218A5220800A919DD291D30D20003301A
:1013B000D3008A11BA218A15A915A91F08000C307B
:1013C000D2000230D3008A11E1218A15A913080046
:1013D000A91DF2291D30D2000330D3008A11E1216A
:1013E0008A15A911A91B08000C30D2000230D300C5
:1013F0008A11BA218A15A9170800A91D072A1D30CC
:10140000D2000330D3008A11E1218A15A911A91F46
:1014100008000C30D2000230D3008A11E1218A1575
:10142000A9130800291A1C2A1830D2000230D30050
:101430008A11BA218A1529162A1C08000D30D200FB
:101440000230D3008A11E1218A152A100800291ED2
:10145000312A1830D2000230D3008A11E1218A15D6
:1014600029122A1808000D30D2000230D3008A1148
:10147000BA218A152A140800291E462A1830D200DB
:101480000230D3008A11E1218A1529122A1C080092
:101490000D30D2000230D3008A11E1218A152A10C2
:1014A0000800A91A5B2A0A30D2000230D3008A1140
:1014B000BA218A15A916AA1C08000E30D2000230E3
:1014C000D3008A11E1218A15AA100800A91E702AEA
:1014D0000A30D2000230D3008A11E1218A15A91204
:1014E000AA1808000E30D2000230D3008A11BA21A7
:1014F0008A15AA140800A91E852A0A30D2000230D3
:10150000D3008A11E1218A15A912AA1C08000E3005
:10151000D2000230D3008A11E1218A15AA100800F6
:10152000291B9A2A0B30D2000230D3008A11BA212B
:101530008A1529172A1D08000F30D2000230D30067
:101540008A11E1218A152A110800291FAF2A0B30C0
:10155000D2000230D3008A11E1218A1529132A19F9
:1015600008000F30D2000230D3008A11BA218A1548
:101570002A150800291FC42A0B30D2000230D300DC
:101580008A11E1218A1529132A1D08000F30D20083
:101590000230D3008A11E1218A152A110800323065
:1015A000F700FA007608F800F201F3017808F60077
:1015B000F722F1017608F00070087207F400710854
:1015C0000318013E7307F5007408F2007508F30074
:1015D000F70BD62A7208F0007308F100F2017A08BE
:1015E000F300F401F50106237608F6000800031065
:1015F000F60DF60DF60DF6137617761576147608B9
:101600009F001F19012B1E08F6000800F30803199C
:10161000F4080319F508031908007008F9007108A7
:10162000FA007208FB00F001F101F2011830FC0031
:1016300003102B23031C212BF2007708F1007608FE
:10164000F000FC0B192B790DF6007A0DF7007B0DDD
:10165000F80003110800F90DFA0DFB0DF00DF10D66
:10166000F20D73087002F6000301031C01307407C9
:10167000F801031878147102F7007808031C013090
:101680007507F80103187814720278180310F8002F
:02169000080050
:00000001FF
