:1000000005280000000000004D28850186018701B9
:10001000031707309E0000309F0000309F009616A7
:10002000831603130F3085002030860000308700D0
:100030009615C73081008E0183120714AC2107107A
:100040008714AC2187100715AC2107118715AC2147
:1000500087110716AC2107128716AC2187120717E4
:10006000AC2107138717AC2187130616AC210612A3
:100070000617AC210613313090003F205E280B108C
:100080000B110C108B158B160B170C148B1708000B
:100090008B118B120B130C1008004820AE00030EBE
:1000A0008301AF000B1867200B198D210C188921D3
:1000B0002F0E8300AE0E2E0E3F2008003318EF20C7
:1000C000331CDD205E2885196328B30908008519D3
:1000D0006328861E08008717A7210830A200A00DFC
:1000E000861E2010861A2014A221A20B6F284F30E2
:1000F0002007031DDB280830A200A10D861E211059
:10010000861A2114A221A20B7D280830A200A60D78
:10011000861E2610861A2614A221A20B87280830D4
:10012000A200A70D861E2710861A2714A221A20B53
:1001300091280830A200A80D861E2810861A2814BF
:10014000A221A20B9B280830A200A90D861E29100F
:10015000861A2914A221A20BA5280830A200AA0DF4
:10016000861E2A10861A2A14A221A20BAF28083054
:10017000A200AB0D861E2B10861A2B14A221A20BF7
:10018000B9280830A200AC0D861E2C10861A2C143B
:10019000A221A20BC3280830A200AD0D861E2D108F
:1001A000861A2D14A221A20BCD2801302107031994
:1001B00006170319331087130800F820A40008213C
:1001C00087001321A500003E0319EA282408F93E00
:1001D000031D55212408F93E031923210800482056
:1001E0008B158B1763003318EF28B2013F200800EE
:1001F00003309F009F18FA2803101E0CA000031064
:10020000A00C0310A00C0310A00C0310200C08007D
:10021000A000A00A0130A100A00B102921080800AD
:100220000310A10D0C2907309F009F1815290310FA
:100230001E0CA0000310A00C0310A00C0310A00CB7
:100240000310200C08002508F93E031D29292D085C
:1002500087002508FA3E031D2F292C088700250852
:10026000FB3E031D35292B0887002508FC3E031D96
:100270003B292A0887002508FD3E031D412929083E
:1002800087002508FE3E031D47292808870025080A
:10029000FF3E031D4D29270887002508003E031D4A
:1002A000532926088700871708008B132508A0000C
:1002B0002408A1000310A10DA10DA10DA10D200D79
:1002C0002104A100A0000630A200A301A018A30AE7
:1002D000A00CA20B662923182114231CA117B130EE
:1002E000A0000830A20020188617201C8613A00C3E
:1002F000A221A20B73290830A20021188617211C05
:100300008613A10CA221A20B7D298613B2018B17A3
:100310000800B20B080033140800061E9029942927
:10032000B00B0800061608009B21A300A30D230DA7
:10033000B000061208000B309F009F189D29031083
:100340001E0808005030A300A30BA42908001E308B
:10035000A300A30BA9290800FA30A000FA30A100DD
:100360000130A2000000A20BB229A10BB029A00B02
:04037000AE290800AA
:02400E00C433B9
:00000001FF
